:10000000000D0020D523000005610000A923000099
:10001000A9230000A9230000A9230000000000007C
:10002000000000000000000000000000391E000079
:10003000A923000000000000E51D0000A923000026
:10004000F11E0000DD5E0000F11E0000F11E000048
:10005000F11E0000F11E0000F11E0000F11E000064
:10006000C75E0000F11E0000F11E0000F11E00003E
:10007000F11E0000F11E0000F11E0000F11E000044
:10008000F11E0000F11E0000F11E0000F11E000034
:10009000F11E0000F11E0000F11E0000F11E000024
:1000A000F11E0000F11E0000F11E0000F11E000014
:1000B000F11E0000F11E0000F11E0000F11E000004
:1000C000F11E0000F11E0000F11E0000F11E0000F4
:1000D000F11E0000F11E0000F11E0000F11E0000E4
:1000E000F11E0000F11E0000F11E0000F11E0000D4
:1000F000F11E0000F11E0000F11E0000F11E0000C4
:1001000053B94AB9002908BF00281CBF4FF0FF317E
:100110004FF0FF3000F06CB9ADF1080C6DE904CE82
:1001200000F006F8DDF804E0DDE9022304B07047D2
:100130002DE9F047089E0D4604468E46002B40F000
:1001400082808A42174646D9B2FA82F24AB1C2F197
:10015000200105FA02F320FA01F1974041EA030E6B
:1001600094404FEA1748230CBEFBF8FCB9B208FBD9
:100170001CEE43EA0E430CFB01F098420AD9FB182F
:100180000CF1FF3580F01681984240F21381ACF1FA
:10019000020C3B441B1AA4B2B3FBF8F008FB10336B
:1001A00044EA034400FB01F1A14209D93C1900F1E2
:1001B000FF3380F00181A14240F2FE8002383C44CE
:1001C000641A40EA0C4000211EB1D4400023C6E965
:1001D0000043BDE8F08702B9FFDEB2FA82F2002ADE
:1001E0004FD1CB1B4FEA174E1FFA87F80121B3FB03
:1001F000FEFC250C0EFB1C3345EA034508FB0CF303
:10020000AB4207D97D190CF1FF3002D2AB4200F2AC
:10021000E7808446ED1AA3B2B5FBFEF00EFB105545
:1002200043EA054408FB00F8A04507D93C1900F152
:10023000FF3302D2A04500F2D7801846A4EB080491
:1002400040EA0C40C0E78B4208D9002E00F0AF8096
:100250000021C6E900050846BDE8F087B3FA83F13E
:1002600000294BD1AB4202D3824200F2B780841AFC
:1002700065EB030301209E46002EAAD0C6E9004E7E
:10028000A7E7C2F1200C01FA02F3974020FA0CF024
:100290004FEA174E21FA0CFC1843BCFBFEF1050C8B
:1002A0000EFB11CC1FFA87F845EA0C4501FB08F359
:1002B000AB4204FA02F409D97D1901F1FF3C80F048
:1002C0008B80AB4240F2888002393D44EB1A85B204
:1002D000B3FBFEF00EFB103345EA034500FB08F3C9
:1002E000AB4207D97D1900F1FF3C71D2AB426FD907
:1002F00002383D44EB1A40EA014178E7C1F1200C95
:100300008B4022FA0CF71F4320FA0CF405FA01F394
:100310004FEA174E25FA0CF51C43230CB5FBFEF9EA
:100320001FFA87F80EFB195543EA054509FB08FA41
:10033000AA4502FA01F200FA01F308D97D1909F180
:10034000FF3047D2AA4545D9A9F102093D44A5EBA2
:100350000A05A4B2B5FBFEF00EFB105544EA0544B5
:1003600000FB08F8A04507D93C1900F1FF352DD254
:10037000A0452BD902383C4440EA0940A4EB0804CC
:10038000A0FB02894C45C6464D4619D316D05EB136
:10039000B3EB0E0264EB050404FA0CFCCA404CEA11
:1003A0000202CC40C6E900240021BDE8F0873146B6
:1003B00030460EE7AC46EDE6184601E74345E6D287
:1003C000B8EB020E69EB07050138E0E72846D3E7F2
:1003D00060468FE78146BAE7614677E708464BE714
:1003E000ACF1020C3D4415E702383C4426E700BF5F
:1003F000704700BF43682DE9F0411B68076901257C
:100400008D401D42044616460AD11549154840F252
:10041000924205F054FE124840F2924105F048FE27
:100420003B681D4263681B6818BF86F001061D42C9
:100430000AD10B490B484FF48D6205F040FE084885
:100440004FF48D6105F034FE36B1A368DB682946B0
:100450002046BDE8F0411847A3681B69F7E700BFD5
:10046000046B0000356B000070B50378012B044667
:100470003BD100F067FA647804F00304012C34D116
:100480001B4E1C4D3278286802F00702013A032AFD
:1004900094BF002201220D21FFF7ACFF32782868BB
:1004A00012F0060F22D002F00702052A94BF0022A4
:1004B00001220E21FFF79EFF3278286802F0070222
:1004C000033A032A94BF002201220F21FFF792FF73
:1004D0003278286882F00402C2F380021021FFF70C
:1004E00089FF054A13780133137070BD2246E0E797
:1004F0003004002030020020B40000202DE9F74F26
:100500003848394C04F010F8206050B9354A374863
:10051000452105F0E2FD6FF00406304603B0BDE86A
:10052000F08FDFF8D480DFF8D490DFF8D4B0002566
:10053000266818F8017B7268B3681268009301237B
:10054000BB401342D6F810A00CD14FF43572494687
:100550005846019305F0B3FD4FF43571484605F058
:10056000A7FD019BDAF8002022EA0303CAF8003055
:10057000009B30461B684FF40032394698470646C8
:1005800040B103462A461A48452105F0A6FD00233E
:100590002360C2E72068012239460135FFF72AFFB0
:1005A000042DC5D1134DDFF858801C244FF0A0470F
:1005B00004F5E07301340322202C47F82320ACD04B
:1005C0004FF0FF33E340DB07F2D42946404640F2C8
:1005D000292205F074FD40F22921284605F068FD26
:1005E000E6E700BF4D6B000030020020546B0000B6
:1005F000776B00009E6B0000D66B0000046B000060
:10060000356B00004FF0804307B50122C3F8782511
:10061000FFF774FF0B4B0C4A5A604FF480621A804C
:1006200000229A70094A9A60094ADA600A221A740A
:100630001A6900920FCB00F03DFA03B05DF804EBAD
:1006400000F068B93402002069040000B400002002
:100650003004002030B42049204D0B780F220133A4
:10066000B3FBF2F2C2EB02129B1A1D4ADCB2D25C5F
:100670001C4B0C70C3F8082501225A601A4B042247
:100680001A702A78012A12D11848194B01780F29BB
:100690000FD1002129704FF416515A60DA60C3F867
:1006A00040151A60134B1A786AB100221A7030BCD8
:1006B00070474FF4167501315A60DA60C3F840553F
:1006C0001A600170EEE70C48022303700B4B447074
:1006D00030BC1B68184700BFD7040020DA04002094
:1006E000E06B000000100040D6040020D104002080
:1006F00000800040D3040020D404002048020020E1
:10070000F8B5184D184C2B780BB10123236140F23A
:100710001313C4F8003215491548164F164E10230E
:10072000C4F804330B780F220133B3FBF2F2C2EBAF
:1007300002129B1ADAB20A701049CB5CC4F8083571
:10074000002303700E4B42701B6898470D4B3A789C
:100750001968701C05F003FD3B78337001232B7082
:100760002360F8BDD604002000100040D70400200C
:10077000D4040020D804002050040020E06B0000C6
:100780004802002050020020074A117801290AD1AE
:10079000064B40F21110C3F800020820C3F804030E
:1007A0005960022313707047D604002000100040E7
:1007B0000268530910B504462AD0012B40F2FF33DA
:1007C00018BF002302F01F02D340DB070AD41349ED
:1007D000134840F2292205F072FC104840F229210A
:1007E00005F066FC236803F01F025B0922600CD051
:1007F000012B10D009490A4840F22E2205F05FFC77
:10080000064840F22E2105F053FC4FF0A04010BDE9
:100810004FF0FF33D6E70348F9E700BF9E6B0000B7
:10082000356B00000003005037B5304C2378042BA3
:100830004CD12F4AD2F80034DB0745D52D4C2E4B36
:1008400001251D70D4F8043343F40033C4F8043395
:100850006564D4F84435A3F58C73C4F84435D4F8F2
:1008600044358C33C4F84435D2F84835234A5B42CA
:100870005BB2137001A81E230193FFF799FF019B40
:1008800005FA03F3C0F808351D4B00221A701D4B02
:100890001A7802B91D7040F22713656001A8E5605F
:1008A000C4F840351E2325600193FFF781FF019BAB
:1008B00005FA03F3C0F80C35134B14481B7843704A
:1008C000134B05701B68984703B030BD032BFBD159
:1008D0001D2301A80193FFF76BFF019A01239340A9
:1008E000C0F80C3504232370EEE700BFD6040020C7
:1008F0000010004000800040D3040020D9040020F4
:10090000D1040020DA040020D7040020D404002001
:1009100048020020084A4FF41653C2F8403501231C
:10092000D3601360A2F5E0425360044B00221A70BA
:10093000034B04221A70704700800040DA04002044
:10094000D604002010B5054C054B2146186811F857
:10095000012B05F004FC207810BD00BF50040020DE
:100960004C020020234BF7B5D3F84041012C16D19F
:100970000022C3F8402168461F230093FFF718FFA9
:10098000009AD0F80435944024EA03021C401A4B24
:10099000C0F808251B68C0F80C4503B19847154BF3
:1009A000D3F84441012C23D10022C3F84421134D34
:1009B000C3F844254FF48032C3F804232B78042B6A
:1009C00016D10F4B0F4F104E19683A78701C05F076
:1009D000C6FB3B78337003232B700C4B01A81C60C3
:1009E0001D230193FFF7E4FE019B9C40C0F80845DE
:1009F00003B0F0BD0080004058020020D604002063
:100A000050020020D80400205004002000100040B4
:100A10002DE9F041214CD4F80C3143B3D4F8043320
:100A2000180724D51E4B1B780027C4F80C71F3B1AE
:100A30001C4E96F80080B8F1020F18D1D4F800349B
:100A4000D90714D5D4F808541749184B11F8012BBD
:100A50001B68EDB2681E02FB003005F080FB022D22
:100A60004FF0010314D0A360A36086F800800B4B05
:100A7000D3F810217AB1D3F80423D2060BD5002283
:100A8000C3F810210A4B1B682BB1BDE8F041184791
:100A900023613770EBE7BDE8F08100BF0010004034
:100AA000D2040020D6040020500400204C02002074
:100AB0005402002084B0F8B506AC84E80F005B4B0C
:100AC000079A1A605A4B089A1A605A4B099A1A6088
:100AD000594E5A4B9DF818109DF828201A70317005
:100AE00005F0E5F9564A574B002908BF1346564A08
:100AF0001360564A564B08BF1346564A1360564B6E
:100B0000D3F8502642F00102C3F850260122C3F860
:100B1000FC2F0822C3F81425504AC3F818250222D6
:100B2000C3F834254FF6FF72C3F83C254C4AC3F88E
:100B3000382540F21312C3F800229DF81A20002A2B
:100B40006CD0012A02D10322C3F81025002206210D
:100B5000012001F0E5F8434D012001F0C3F8022720
:100B6000A023C5F8807185F801332F603A4C10231B
:100B7000C4F804334FF0E73393FAA3F3C4F81C35F9
:100B80004FF0C23393FAA3F3C4F82035364B93FAEF
:100B9000A3F31BBAC4F82435344B93FAA3F31BBA5E
:100BA000C4F82835324BC4F8043500220621082049
:100BB00001F0B6F8082001F095F84FF48073C022D8
:100BC000C5F8803185F808232B602A4B4FF480321A
:100BD000C3F804230422C3F810250322C3F8082510
:100BE0000122C3F800229DF81930C4F80C3533787F
:100BF000B3B10023C4F82C35FF23C4F830351E4BA5
:100C00001E4A1B781A48D25C134BC3F80825BDE86E
:100C1000F8408122002104B005F0ACBA042293E729
:100C2000C4F82C75C4F83025E9E700BF480200205D
:100C3000500200204C020020D2040020D8040020E2
:100C40005506000001070000580200202908000096
:100C500089070000540200200010004080000301BA
:100C60002110010000E100E0000102030405060775
:100C70005004002000800040D7040020E06B0000FA
:100C800038B54468816004F00304032C054602D0A3
:100C90002CB1002000E0006800236B6038BD0549DE
:100CA0000548452205F00BFA0248452105F000FAF7
:100CB000EFE700BFEF6B0000356B00000B680133FE
:100CC0000B60014B1B68184700000020014B1860A7
:100CD000704700BF0000002007B50B460021024608
:100CE0000191034801A900F06DFA03B05DF804FB1F
:100CF000BD0C00002DE9F74FB0F81CA01AF0080F4A
:100D0000044693461CD001290CBF4AF0100A4AF051
:100D1000200AA0F81CA004F1140003F03BFE40B927
:100D2000BA49BB48B92205F0CAF9B848B92105F05B
:100D3000BFF98BF31188BFF36F8F03B0BDE8F08F5D
:100D4000B44FDFF8CC820AF0070A022906D1204608
:100D500005F0EFF80028DED0012865D1D4F818900E
:100D6000A38BB9F1000F19DA0026256823F00703D9
:100D7000C4E9006643F00103A383A38B03F00702D9
:100D80005245009203D0A268002A40F0F18015B9C4
:100D9000002E00F02B814FF0000AEBE003F0070279
:100DA000511F012922D8002123F00703062A2568B4
:100DB0009BB2C4E900110CD18D422A4638BF0A46C5
:100DC0002AB1E18B12680131E183002AF8D143F0A6
:100DD0000203A383204605F0ACF806460028CCD0D9
:100DE000A38B43F02003A3830026C6E7042A0DD17A
:100DF00023F007039AB2A283204605F09AF805462D
:100E000080B142F02002A2830025EDE740F21B12E0
:100E10003946404605F053F940F21B11384605F0BB
:100E200047F900252E46A8E7032831D1BAF1000F73
:100E30000AD0394640464FF4AB7205F040F94FF402
:100E4000AB71384605F034F9236853B9394640464A
:100E500040F2571205F033F940F25711384605F0C9
:100E600027F923691E6856B9394640464FF4AD72DA
:100E700005F025F94FF4AD71384605F019F9A38B4B
:100E800023F0070343F00603A3830025A94674E774
:100E900004282ED1BAF1020F0AD03946404640F25A
:100EA0005D1205F00CF940F25D11384605F000F9CD
:100EB000E38B53B1394640464FF4AF7205F0FFF86B
:100EC0004FF4AF71384605F0F3F823695E6856B900
:100ED0003946404640F2611205F0F1F840F26111E6
:100EE000384605F0E5F8A38B23F0070343F004032D
:100EF000CAE705282ED1BAF1010F0AD0394640467B
:100F00004FF4B27205F0DBF84FF4B271384605F0D9
:100F1000CFF8236853B93946404640F2651205F0D0
:100F2000CEF840F26511384605F0C2F823699E6894
:100F300056B9394640464FF4B47205F0C0F84FF444
:100F4000B471384605F0B4F8A38B23F0070343F0DF
:100F5000050399E740F26B123946404605F0AFF8B9
:100F6000002540F26B11384605F0A2F82E468DE7B9
:100F70004FF0010A43F00803A38304F11403184659
:100F8000019303F007FD40B920494046B92205F01E
:100F900096F81E48B92105F08BF88BF31188BFF342
:100FA0006F8FBAF1000F39D1002D4CD116B11A490B
:100FB0002046B0474FF02003EFF3118B83F31288E4
:100FC000BFF36F8F019803F0D7FC40B90F4940463B
:100FD0008E2205F074F80D488E2105F069F801980D
:100FE00003F0E8FCA38B23F00803A383A38BDA06AA
:100FF00031D523F01003A3830121B4F81CA00AF01B
:10100000070A00297FF4A1AE85E600BF346C00001A
:10101000356B0000126C000069100000A168002907
:10102000C2D00B68D1F804B0009A002B38BF00235F
:101030009A4620464B46D847BAF1000FB4D0DAF8AA
:1010400000305146EEE72946009A2D684B4620466F
:1010500004F08BFFA8E713F020011EBF23F020034C
:10106000A3830221C9E700BFF8B504460D4600F18D
:1010700014064FF02003EFF3118783F31288BFF3B8
:101080006F8F304603F078FC40B90A490A488E2237
:1010900005F015F807488E2105F00AF8304603F0F0
:1010A00089FCA5613A4620460121BDE8F840FFF7DA
:1010B00021BE00BF346C0000356B00002DE9F04705
:1010C00004460F4604F067FF051E54DB04F11409C3
:1010D0004FF02003EFF3118A83F31288BFF36F8F71
:1010E000484603F049FC40B9334934488E2204F0A5
:1010F000E6FF31488E2104F0DBFF484603F05AFC3E
:10110000E38BA28B4FF6FF718B4202F007064AD0A9
:10111000022E1FD10133E38335464FF001084846C4
:1011200003F038FC40B924492448B92204F0C7FF31
:101130002148B92104F0BCFF8AF31188BFF36F8FF7
:10114000B8F1000F17D0002332463946204604F08C
:101150000CFF10E0930701D0062E0FD100233B6057
:101160006368EBB9C4E900773546F6B95246022107
:101170002046FFF7BFFD2846BDE8F087052E17D0B3
:10118000012E0AD00E490D4840F2C91204F097FF13
:101190000B4840F2C91104F08BFF6FF0040504E026
:1011A0001F606760E0E76FF00A054FF00008B6E7E0
:1011B0006FF08505F9E700BF346C0000356B000067
:1011C000126C00002DE9F04F91B08B4602909246D0
:1011D0001C4600259AF8000008B928465EE3252839
:1011E0000AF1010707D0029B594698470028C0F230
:1011F0005583013510E2182200210AA804F0BAFF35
:101200009AF80130252B78D000229446164696464F
:101210001046394617F8013B2B2B00F09D8000F259
:101220009480202B00F09B80232B00F09A8028B123
:101230009DF8300040F004008DF83000BEF1000F42
:1012400005D09DF8300040F008008DF830002EB138
:101250009DF8300040F010008DF83000BCF1000F18
:1012600005D09DF8300040F020008DF830002AB104
:101270009DF8302042F040028DF830209DF830205B
:1012800002F04400442803D16FF386128DF8302019
:101290009DF830202A2B42F080028DF830207BD13F
:1012A0009DF8312042F001024B1C8DF831201A7854
:1012B0002E2A9DF831200CBF0121002161F341024B
:1012C0008DF8312074D15A782A2A6AD0013300214E
:1012D0000A26184610F8012BA2F13007092F40F218
:1012E0008E809DF830200E91C2F3400040EAD1710B
:1012F00061F341028DF830205AE00AF102078DF8BF
:1013000033309DF83130D90740F1498154F8049BBE
:10131000B9F1000F07DA9DF8302042F004028DF891
:101320003020C9F100095A0740F1428154F8048B7A
:10133000B8F1000F80F241819DF831306FF3410325
:101340008DF831304FF0FF3837E12D2B0CD0302B9A
:101350007FF46DAF01225CE74FF0010E59E70126E3
:1013600057E74FF0010C54E7012052E70CFB020253
:10137000303A33461E4616F8010BA0F13007092F0C
:10138000F4D9994293D09DF830100D92D20F62F3A8
:1013900041018DF830108AE70B4600224FF00A0C0D
:1013A000E8E79DF8312042F004028DF83120023345
:1013B0001F4617F8012B6C2A41D025D8682A2BD05C
:1013C0006A2A46D04C2A4CD01F4617F8012B9DF8AC
:1013D00031308DF83320782A00F2D980572A4DD841
:1013E000412A03D0453A022A00F2D1809DF83230DA
:1013F000042262F302038DF8323001239EE006FBE3
:1014000001213039034664E7742A26D07A2ADBD1D9
:101410009DF8313006220DE05A78682A9DF8312077
:1014200006D1012161F3C6028DF831209F1CCCE763
:101430001346022262F3C6038DF83130C5E75A78AD
:101440006C2A9DF8312001D10421EBE713460322D9
:10145000F0E79DF831300522ECE79DF831300722A6
:10146000E8E7BDF8303023F4F04323F0020343F4FF
:10147000804343F00203ADF83030A6E7A2F15801F3
:10148000202900F2848001A050F821F051150000BD
:101490008F1500008F1500008F1500008F150000BC
:1014A0008F1500008F1500008F1500008F150000AC
:1014B000ED1300008F1500005115000011150000FC
:1014C000ED130000ED130000ED1300008F15000078
:1014D000111500008F1500008F1500008F150000FA
:1014E0008F150000591500005115000075150000FA
:1014F0008F1500008F150000751500008F15000076
:10150000511500008F1500008F15000051150000C7
:101510009DF83210012003F0780360F30201402BA4
:101520008DF8321002BF9DF8301041F001018DF8A6
:101530003010632A31D1003B18BF01239DF83020C1
:10154000C2F340010B4363F341028DF83020D8E62B
:101550009DF832100220DEE79DF8322003F0780378
:10156000A3F14000032161F3020243428DF83220CF
:101570004341E3E79DF83220032113F0780F61F334
:1015800002028DF8322014BF01230023D6E79DF814
:10159000303043F001038DF830300023CEE79DF961
:1015A0003020002AB4BFDDF834904FF0FF39BAE69E
:1015B0009B077FF5C7AEDDF838809DF8312000230A
:1015C000CDE90D339DF8323003F00703012BC2F350
:1015D000C30236D1D31E042B20D8DFE803F0030763
:1015E000071F1F0054F8040BC11704E0073424F050
:1015F0000704F4E80201CDE90A019DF8303013F048
:10160000030654D002983B465246594604F03AFD30
:101610000028C0F243810544BA46DBE554F8040BC8
:10162000012A4FEAE071CDE90A0105D19DF8283081
:101630000A9300230B93E0E7022ADED1BDF92800CC
:10164000D2E7022B23D1D31E042B13D8DFE803F0FB
:10165000030A0A12120020680A900021231D0B9130
:101660001C46CAE7073424F00703F3E80201CDE97A
:101670000A01F5E754F8043B0A93012A4FF00003EE
:101680000B93D3D0022AB8D1BDF82830D0E7042B71
:1016900007D1073424F00704F4E80201CDE90A0178
:1016A000ABE7032B04BF54F8043B0A93A5E79DF86E
:1016B00033007828B0D8622822D825283FF493AD8B
:1016C0005828A9D10DF126030093DDE90A0104ABE6
:1016D0000CAA04F08CFC8246B8F1000F0DF1260034
:1016E0000CDB9DF83020A0EB0A036FF386129845BF
:1016F0008DF8302002D9A8EB03030D9380463DE01E
:101700006338152888D801A151F820F08D17000002
:10171000F117000019160000191600001916000034
:1017200019160000F1170000191600001916000024
:1017300019160000191600004F1800001D180000AF
:101740002118000019160000191600006517000086
:10175000191600001D1800001916000019160000C7
:101760001D180000B8F1000FDDF828A00ADB414683
:10177000504604F0DFFC0AEB00080026BAF1000F27
:101780000CD149E7504604F0CEFCF4E70A9B8DF8F3
:10179000103000260DF111080DF1100AA8EB0A0314
:1017A00006B101339DF83220D0066BD502335206C4
:1017B0000D9948BF0E9A0B4448BF9B18B9F1000F12
:1017C00079DD9DF83020A9EB0309C2F38003039370
:1017D000530770D4500664D546B1029B5946304633
:1017E000984700285ADB039B01351E46302359E0F9
:1017F0001E0711D413F0100618BF2026DDE90A23B6
:10180000002A73F10001BFF65DAF524263EB430360
:10181000CDE90A232D2655E72B26EFE7002651E7D1
:101820000A9848B30DF1260300930CAA04AB0021DB
:1018300004F0DDFBBDF8323003F0EF0343F4F04376
:1018400043F010038246ADF83230002644E70A9B8D
:10185000072A3FF6E1AEDFE802F00D04060D0808A6
:101860000D0D1D70D8E61D80D6E62846E917C3E9A0
:101870000001D1E61D60CFE6DFF8C4800646A8F17E
:10188000050A8BE7110748BF013390E71846039319
:101890005946029B98470028039B04DA11B0BDE823
:1018A000F08F20234D444A46002AA5EB090109F197
:1018B000FF39EBDC0D4636B1029B5946304698475E
:1018C0000028EBDB01359DF83230D90601D41A0728
:1018D00006D5029B5946302098470028DEDB0135AB
:1018E0009DF83230DB0607D59DF83300029B594640
:1018F00098470028D2DB01350D9E2E44731B002B28
:1019000016DC029843465246594604F0BBFB0028B9
:10191000C4DB0544A944A9EB0503002B7FF77CAE8B
:10192000029B5946202098470028B7DB0135F2E793
:10193000029B5946302098470028AFDB0135DDE790
:10194000666C00002DE9F84305464FF02003EFF3E5
:10195000118683F31288BFF36F8F1E4803F00CF8D3
:1019600040B91D491D488E2204F0A9FB1A488E215A
:1019700004F09EFB174803F01DF8194B1C68002C5F
:1019800038BF00249CB1174FDFF85C804FF00C0982
:10199000D4E90132002D08BF13462BB198F814206A
:1019A00009FB02F2B85C98472468002CF0D1094882
:1019B00002F0F0FF40B908490848B92204F07FFB63
:1019C0000548B92104F074FB86F31188BFF36F8FCB
:1019D000BDE8F8835C020020346C0000356B000029
:1019E0006002002068020020EC030020420901236D
:1019F00000F01F0003FA00F0074BBFF35B8FC043FA
:101A000003EB820353E8002F024043E80021002942
:101A1000F8D1BFF35B8F70477402002038B51A4BC2
:101A20001D7DBFF35B8F05F01F0301229A40174B0A
:101A30006909D04303EB810353E8001F01EA000466
:101A400043E8004CBCF1000FF6D1BFF35B8F1142AD
:101A500013D00F4B0F4C8BB10C236B43E218E05C9F
:101A6000517804F09FFB0020FFF76CFF0C236B43C1
:101A70000022E118E250C1E9012238BD83F3118848
:101A8000BFF36F8FEFE700BFEC0300207802002068
:101A9000A5610000680200202DE9F843324B334A6B
:101AA0001C7DBFF35B8F63094FEA830952F8233033
:101AB0002F4EBFF35B8F04F01F0843FA08F313F0B7
:101AC000010F07460AD10146204600F069F828B107
:101AD00007C80C2303FB046383E807000C2363435C
:101AE000F218F55C2DB92046FFF780FF2846BDE8C7
:101AF000F8837B1C0FD0D2F808C01E481E4A4FF452
:101B0000004500210023E5FB0C01FEF7F9FA012155
:101B1000381A04F08BF803F0C3F80120FFF712FF26
:101B2000BFF35B8F012303FA08F8144B994459E87B
:101B3000003F43EA080349E80032002AF7D1BFF327
:101B40005B8F0F4B33B10C236343F218F05C517879
:101B500004F01CFBFFF762FF2046FFF747FF03F08E
:101B60004FFC0120C3E700BFEC03002074020020FB
:101B7000680200203F420F0040420F007802002020
:101B80008D610000054BBFF35B8F53F82000BFF35E
:101B90005B8F003818BF0120704700BF7C02002017
:101BA0002DE9F74F0E4601A900F048F8DFF88480D0
:101BB000441E24B24FF00009631C04D100252846BE
:101BC00003B0BDE8F08F019A04EB440302EB8305F8
:101BD00012F82300FFF7D6FF38BB6968DFF858B06A
:101BE0004FF4004A4FF0000CEAFB01BC42464B4662
:101BF00058466146FEF784FADFF83CB0A9684FF01A
:101C0000000CEAFB01BC4B4607464246584661467B
:101C1000FEF776FA064B1B68591C01D0834204D9A3
:101C2000721CCCD03844B042C9D9013C24B2C3E7BD
:101C30000400002040420F003F420F0008B9024B51
:101C40000B600020704700BFB869000001491022F6
:101C50000A60704710ED00E072B6404080F31188D2
:101C6000BFF36F8FBFF34F8F30BF62B6BFF36F8F7D
:101C7000704700BF72B6494081F3118820BF80F3DE
:101C8000118862B6704700BF37B505460C46C9B12A
:101C90008B680093D1E900230E48452104F01DFA1A
:101CA00063690093D4E903230B48452104F015FA36
:101CB000E2690A48452104F010FAA2690848452162
:101CC00004F00BFA2146284603B0BDE8304002F08C
:101CD00057BC00BF6A6C00009E6C0000D26C000014
:101CE000E66C000043B2002B08DB012200F01F006D
:101CF00002FA00F05B09024A42F82300704700BF75
:101D000000E100E0054B420900F01F0053F82220DB
:101D1000012303FA00F01040704700BF00E100E02B
:101D200038B54C1C072C054608D90E490E485722D9
:101D300004F0C5F90B48572104F0BAF96BB2002B37
:101D4000ACBF03F16043094B4FEA4414B8BF05F040
:101D50000F05E4B2AABF03F561435C5583F8004365
:101D600038BD00BF196D0000356B000014ED00E0B8
:101D700030BFFFF7FDBF00BF0B4A08B50B4B22F089
:101D80007F029A60BFF34F8FBFF36F8FD3F8882025
:101D900022F47002C3F8882002F068FC03F0B4FD5E
:101DA00000F00CFB02F0A6FC0000000000ED00E0DB
:101DB000094A0A49936809689967094958674B684D
:101DC00043F080534B60002383F31188BFF36F8F80
:101DD0009368986F704700BFEC030020EC6A000026
:101DE00000ED00E012498A684FF030001044EFF334
:101DF000098C80E8F01F202080F31288BFF36F8FDA
:101E00000C4F4FF00066CA698A603E60506F002335
:101E1000536780F3118804B5104600F069FBBDE8F4
:101E2000044002F1300090E8F01F8CF309887047FD
:101E3000EC03002004ED00E01EF0040F0CBFEFF3F4
:101E40000880EFF30980816911F8021C0229FFD094
:101E500001B504F04FF901BD42F8203C009B42F867
:101E60001C3C0A49019B42F8183C029B42F8143C76
:101E700021F001014FF0807342F8043C42F8081C45
:101E80000023203A02654367704700BFDB5F000014
:101E90000B4A0346906890B113F1160F406E05D0BF
:101EA000A0F120029A4206D8834204D281422CBF7C
:101EB0000021012100E00021002908BF0020704717
:101EC000EC03002008B5094B98600D46144600F05D
:101ED0000FFB204685F30988002163B681F3118842
:101EE000BFF36F8F0022002304F077F8EC0300208B
:101EF00001B572B60B4A906900281EBF002191619E
:101F000004F0CBFB62B6EFF30580A0F110004FEABE
:101F1000C0000549014409C99847BDE8014003498B
:101F200008470000EC030020C4670000311F0000D8
:101F3000044B9968D869884203D003494FF0805216
:101F40000A607047EC03002004ED00E02DE9F04149
:101F50003A4C07460D463A484521164604F0BDF86E
:101F6000A26AD10603D53748452104F0B6F8A36A22
:101F70001A0703D53448452104F0AFF82F4CA36A63
:101F80009B0729D46FF015082C4CA26AD10703D502
:101F90002E48452104F0A1F8A36A9A0603D52C48DF
:101FA000452104F09AF8254DAB6ADB0629D4AB6ACB
:101FB0009C0726D40024214B9A6A920642BF5A6A93
:101FC00022F400525A629A6A42F0FF029A62002397
:101FD00033702046BDE8F0811E48452104F07DF8AD
:101FE000D4F83480A36A1806CCD51B484246452154
:101FF00004F073F8002DC7D0A36A23F08003A36216
:10200000C2E76B681805D5D539464046FFF740FF53
:10201000044618B180F309880224CCE7AB6AD906DC
:10202000C8D50E490E4840F2491204F048F80B4852
:1020300040F2491104F03CF8BDE700BF00ED00E0BC
:102040004F6D00006A6D0000A26D0000F26D00008F
:10205000166E0000BA6D0000D76D00004A6E0000D9
:10206000356B000070B5234C06460D4622484521CD
:1020700004F033F8A26AD10403D52048452104F0C6
:102080002CF8A36A1A0503D51D48452104F025F84C
:10209000184CA36A9B0510D51A48452104F01DF879
:1020A000A26BA36A180408D51748452104F015F857
:1020B0001EB1A36A23F40043A3620E4CA36A590520
:1020C00003D51248452104F008F8A36ADA050BD5B8
:1020D0000F48452104F001F8064A936A002043F4B2
:1020E0007F439362287070BDA36A9B04F4D50948AE
:1020F0004521EFE700ED00E0846E00009F6E0000D8
:10210000A26D0000B56E0000D36E0000ED6E000001
:102110000D6F0000166E000010B51D4C1D484521C6
:1021200003F0DBFFA26A930103D51B48452103F0AE
:10213000D4FFA36ADC0103D51848452103F0CDFF85
:10214000134CA26A100303D51548452103F0C5FFBF
:10215000A36A590303D51348452103F0BEFF0C4C75
:10216000A26A920303D51048452103F0B6FFA36A83
:10217000DB0303D50D48452103F0AFFF044A936A02
:102180006FEA03436FEA13439362002010BD00BF60
:1021900000ED00E02A6F0000476F00005F6F000055
:1021A0007E6F0000A16F0000CB6F0000EA6F00009F
:1021B0002DE9F041694BD3F804808AB00D46C8F38D
:1021C0000807002686F31188BFF36F8F02F07F4364
:1021D000B3F17F4F07D102F00C03082B10D16048F8
:1021E000452103F07AFF5F495F4840F2FB3203F07C
:1021F00066FF5C4840F2FB3103F05AFF002505E022
:1022000012075CBF05460126002DECD00023FA1E04
:102210008DF807301C461346092B00F28C80DFE84E
:1022200003F0057F83678A8A8A8A8A874F48452117
:1022300003F053FF494B8DF80740DC6A14F00204A9
:1022400005D04B48452103F048FF002406E0DA6A38
:10225000002A1DDA4748452103F03FFF9DF807306B
:102260009BB92022294602A803F079FF099B002E82
:102270006ED0C3F3080222B96FEA53236FEA4323F7
:10228000099302A92046FFF7FFFC0AB0BDE8F081E0
:10229000DB6A5B003BD53848452103F01EFFAB6984
:1022A00033F8022C4DF602739A420DD003F16043CD
:1022B00003F626631B7873B10DF10702012128464E
:1022C000FFF744FE0446C9E72A682C48452103F07D
:1022D00004FF2C68C2E72A4B1B782BB10DF10701D4
:1022E0000120FFF7BFFEEDE7264B1B889BB213B121
:1022F000FFF712FFE6E71B491B4840F2CD2203F02F
:10230000DEFE40F2CD21174803F0D2FEA6E71549C4
:10231000154840F2D12203F0D2FE40F2D121F2E77B
:102320000DF107020021CAE70DF107010020D8E7EF
:102330001548452187E71549154A164818F4F87FCE
:1023400008BF0A46A7F11003452103F0C6FE7CE74B
:1023500023F4FF7323F0010392E700BF00ED00E0D8
:10236000487000004A6E0000356B00007870000075
:1023700094700000BA700000CD700000F170000091
:1023800029ED00E02AED00E0127100001A70000053
:102390002F7000003B710000024A536943F01003A4
:1023A0005361704700ED00E0EFF30880EFF309811F
:1023B00001B57246FFF7FCFE01BD00BF04480023D3
:1023C0002021C2180133302B82F80013F9D1704755
:1023D00000E100E0002080F31488BFF36F8F04F069
:1023E0008BF900200D490860BFF34F8F0C4880F334
:1023F000088800F029F8202080F3118809484FF45C
:102400000261401880F30988EFF314800221084329
:1024100080F31488BFF36F8FFFF7AEFC94ED00E0FC
:10242000000D0020800E0020064A11680023C1F331
:10243000072118468B4200D1704793601061013329
:10244000F8E700BF90ED00E008B572B6002383F313
:102450001388FFF7E9FF144B4FF0FF32C3F88020D9
:10246000C3F88420C3F88820C3F88C20C3F89020D8
:10247000C3F89420C3F89820C3F89C20C3F88021A7
:10248000C3F88421C3F88821C3F88C21C3F89021B4
:10249000C3F89421C3F89821C3F89C2162B6BFF316
:1024A0004F8FBFF36F8F08BD00E100E0084B9B68C2
:1024B00083420BD1EFF3058343B1064B5A6842F0D8
:1024C00080525A605A6A22F400425A6203F088B974
:1024D000EC03002000ED00E0024B034A0348012119
:1024E00000F074B80000022000000020B86900006D
:1024F000426E054B203A1A60044A2021C3E90112BA
:102500001846012100F080B89802002000000B1549
:10251000F8B5224F154600228A420EDA4468002C94
:1025200039D093B104F1FF3C14EA0C0F07D01C48DA
:10253000452103F0D2FD6FF015052846F8BD1F2C8C
:10254000F5D906681CEA060FF1D1202C0668D0F8F0
:1025500008C0EDB210D9B4F1004F0FD8013CB4FA65
:1025600084F4C4F11F046400072D4CEA040407D965
:102570000C482A464521DCE70824F5E73E24F3E72A
:1025800026F01F062E4346F0100644F00104BD60FD
:10259000FE6001353C6101320C30BDE790ED00E09A
:1025A000577100007F710000034B05225A60BFF392
:1025B0004F8FBFF36F8F704790ED00E0BFF35F8FD9
:1025C000014B00225A60704790ED00E010B50B4CB3
:1025D00001232278FFF79CFF207016300CD10849A8
:1025E000084840F2111203F06AFDBDE810400448AB
:1025F00040F2111103F05CBD10BD00BFDB040020F0
:10260000AA710000356B000008B50F4A002312784C
:10261000FFF77EFF10F1160F08D00C4B00220728A1
:1026200000DD08BD98601A610130F8E708490948E3
:102630004FF4987203F043FDBDE8084004484FF49E
:10264000987103F035BD00BFDB04002090ED00E081
:10265000AA710000356B0000204910B50C68082CE9
:102660000DD91F491F484FF4A47203F028FD1C48E0
:102670004FF4A47103F01CFD4FF0FF3010BDFFF7C5
:102680009DFF486818490022944200F10C0015D1C2
:10269000164B1C70FFF788FF0B68C3F30723082B4A
:1026A0000AD00F490F484FF4D47203F008FD0C48CC
:1026B0004FF4D47103F0FCFC0020DFE78A6050F88F
:1026C0000C3C23F01F03134343F01003CB6050F87E
:1026D000043C43F001030B610132D5E7C4690000FB
:1026E000AA710000356B000090ED00E0DB040020D3
:1026F000014B1860704700BF080000204FF0200316
:10270000EFF3118283F31288BFF36F8F0649012321
:10271000C1F840354FF08041C1F8783582F3118817
:10272000BFF36F8F0020704700E001404FF08043FF
:10273000C0B2C3F81C05BFF34F8F0549054BCA68EB
:1027400002F4E0621343CB60BFF34F8F00BFFDE79D
:1027500000ED00E00400FA0520B1034B800143F0D6
:1027600001031847704700BFB06900002DE9F04130
:102770000E4C051BC5F347130C255D43074605F1B9
:1027800048000E462044402103F012FD011E08DBE4
:10279000074B2C44C4E91036064B5B59BDE8F041A9
:1027A000184738463346BDE8F0411847B4020020C8
:1027B00013620000FC69000038B5CCB2012C05465C
:1027C00008D908490848792203F079FC054879219D
:1027D00003F06EFC2B690C2104FB0134A06C00F0AB
:1027E000070038BDF4710000356B0000F8B5CCB2BD
:1027F000012C0769054616460AD91849184840F2BF
:102800004D1203F05CFC154840F24D1103F050FCF2
:102810004FF02003EFF3118283F31288BFF36F8F21
:102820000C2303FB0471896C11F0C00101D08E42AE
:1028300011D103FB047301219964002082F31188F4
:10284000BFF36F8F30B969680C2303FB041463680E
:1028500098470020F8BD4FF0FF30EFE7F47100001B
:10286000356B000070B50D460649411A0446491102
:1028700005484022FFF7BAFF2B4601462046BDE837
:1028800070401847B40200204C670000002270B569
:10289000012104461046FFF743FA0F4801F034F9CE
:1028A0000E4B984215D101F051F926690C4930467A
:1028B00003F080FB00280BDB0125B564246908497F
:1028C00004F1200003F076FB002801DB65650020A1
:1028D00070BD6FF00400FBE7192900000000AD0B8C
:1028E000146A000001460C2309484B4370B5C41814
:1028F000D4E91056002248332264184403F076FCD1
:102900002DB132462B460348BDE87040184770BDD4
:10291000B40200204C670000012808B506D0032847
:1029200008D0A0B90F4B9B6C5B0719D1BDE80840DC
:10293000FFF7D8BF0C490D4840F25E2203F0BFFB01
:1029400040F25E21BDE80840074803F0B1BB0649EC
:10295000064840F2622203F0B2FB40F26221F1E746
:1029600008BD00BFB4020020F4710000356B000008
:1029700008B54FF02003EFF3118183F31288BFF302
:102980006F8F124A136843F0020013F001031060C6
:102990000CD04FF08042D2F80C34D2F80C2413F053
:1029A000010303D00A4803F021FC012381F31188BD
:1029B000BFF36F8F23B1BDE808400020FFF792BF3F
:1029C000BDE80840012001F0E3B800BF0C0300207F
:1029D000FC020020094BBFF35B8F53E8002F22F06D
:1029E000020143E800100028F7D1BFF35B8FD30743
:1029F00002D4012001F030B9704700BF0C03002061
:102A00001FB500220123CDE90223094ACDF800D0E9
:102A10006B46CDF804D003F00EFC002805DB4FF424
:102A200080420023684602F031F805B05DF804FBEF
:102A3000316200002DE9F8434849BFF35B8F05463A
:102A4000012251E8003F41E800200028F9D1BFF3FE
:102A50005B8F9BB9424943484B60CB608A60FEF76D
:102A60002DFB00280ADA404940484FF4087203F071
:102A700026FB3D484FF4087103F01AFBADB36B1E03
:102A8000012B56D8012D07D14FF08043D3F81C34C9
:102A900003F00303012B28D003F0F7FD044618B917
:102AA000334B1B78002B51D14FF02003EFF31186ED
:102AB00083F31288BFF36F8F01242E4FDFF8B880A5
:102AC000DFF8B8904FF08042D2F81834D2F81824CA
:102AD000D2030CD503F00303012B01D0012D06D145
:102AE0000CB386F31188BFF36F8FBDE8F883ACB1E8
:102AF0003046FFF7BFF84FF08042D2F81835002B70
:102B0000E0D139680029DDD03B603B680123C2F881
:102B10001835C8F88031C9F80030D3E700212120EA
:102B200002F028FEE7E74FF080430222C3F80423B7
:102B3000DBE70D490D4840F2322203F0C0FABDE850
:102B4000F843094840F2322103F0B2BA4FF0804313
:102B50000222C3F808230646AFE700BF1003002097
:102B6000A4020020D4020020F4710000356B0000A4
:102B7000EC0800200401004000E100E008000040F3
:102B800008B5084B0848186003F071FD38B10748D4
:102B9000FFF7AEFD0548FEF799F8002008BD6FF07D
:102BA0001200FBE714030020AC670000B12B00000B
:102BB0000A2838B5074D044604D1286883680D21DA
:102BC0005B68984728688368E1B25B68984720464D
:102BD00038BD00BF1403002070B5056916460C46C9
:102BE00041B91E491E48242203F069FA1B482421DA
:102BF00003F05EFA636843B918491948252203F0C7
:102C00005EFA1648252103F053FA6B685BB1002287
:102C10009C4213D123685AB9AA686B60944200D1D0
:102C2000AB600023236076B9002070BD0B46EFE750
:102C30001360AB689C4208BFAA60F2E719681A46A5
:102C40000029F3D13EB16B682360A8686C6000284E
:102C5000EAD1AC60E9E76FF01500E6E751720000D9
:102C6000356B00002DE9F843430903D0012B30D028
:102C7000BDE8F883184F3B695C68002CF8D02568E4
:102C8000DFF85C80DFF85C9000F01F000126002D6B
:102C900006FA00F638BF0025A3681E4210D063680C
:102CA00043B941464846452203F009FA45214046CA
:102CB00003F0FEF9D4E90132214632403846984704
:102CC000002DD5D02B68002B38BF00232C461D4685
:102CD000E2E7024FCFE700BF646700007C670000B7
:102CE00051720000356B00007FB54068057B01F034
:102CF0001F04B2F5001F44EA45144FF0000504D14B
:102D0000204601F095FA002052E0B2F5800FCDE99F
:102D100002554FD1B3F1007F0CBF042305238DF87A
:102D20000830836823FA01F111F0010153D1B2F1A7
:102D3000A07F50D1660948D040F2FF33012E08BF72
:102D4000194604F01F05E940CA070AD42A492B484E
:102D500040F2292203F0B3F9274840F2292103F079
:102D6000A7F966B1012E33D02349244840F22E2220
:102D700003F0A5F9204840F22E2103F099F94FF015
:102D8000A04305F5E07553F82530DB0723D40DF19A
:102D900007052946204601F07FF9194B984219D1C1
:102DA000284601F0D5F9174B984213D06FF00B006D
:102DB00004B070BDB3F1C06F05D0B3F1007F0CBF9C
:102DC00002230123ABE70323A9E74FF0FF31B8E764
:102DD0000D4BD6E703950023194602AA204601F0C1
:102DE0003DF8084B984204D10121204601F0B6F984
:102DF00089E76FF00400DBE79E6B0000356B000095
:102E00000400AD0B0000AD0B0003005010B501F045
:102E10008FF9044668B901F063F9084B98420AD16A
:102E20000748214601F032F9224605210620FEF727
:102E300077FF002010BD6FF00400FBE70000AD0B32
:102E4000652C00002DE9F04347683B7B01F01F052E
:102E500085B00E4645EA43151446CAB902A928466C
:102E600001F01AF90446284601F004FA4A4B984248
:102E700004D06FF0040005B0BDE8F083844205D1B2
:102E80009DF8080001F05EF9A042F2D10020F2E7BF
:102E90004FF000090DF103013046CDE9029901F030
:102EA000FBF84B46804602AA4946284600F0D6FF6A
:102EB000394B984202D06FF01500DCE7804503D112
:102EC0009DF8030001F03EF9A30351D540F20663DB
:102ED000234040F2062293423BD00CD8062B15D05B
:102EE00004D89BB1022BE6D104230FE0B3F5007F99
:102EF000E1D101230AE040F2024293422BD0B3F524
:102F0000C06F2AD0B3F5806FD5D102238DF804307D
:102F100084F48033C3F30043E0068DF8053054BFDA
:102F2000C4F34013032321038DF8063017D57B68C3
:102F3000012101FA06F6C3F80865002201A9284616
:102F400001F034F8144B984214BF6FF015000020C4
:102F500091E70723DAE70523D8E70323D6E76203DF
:102F600041BF7B68012101FA06F6C3F80C65E4E76E
:102F7000E3064FF0000354BFC4F3401403241A4681
:102F800001A928468DF8044000F068FF024B9842E2
:102F90003FF47CAF8FE700BF0000AD0BF0B54B797D
:102FA000012B28D0032B23D110248B79032B1FD185
:102FB000CE790EB1012E1BD10A79012A1DD0022A29
:102FC0001FD0AAB915460B684768B3F5164F3F687E
:102FD0006ED033D8B3F5165F6DD01CD8B3F5966FAD
:102FE0006BD010D8B3F5967F6AD0B3F5167F6AD050
:102FF0006FF085005BE00024D7E74FF480750E2268
:10300000E1E70025FBE7B3F5166F5FD0B3F5965FF8
:10301000EED1394B3EE0B3F5E14F5AD007D8B3F5C6
:10302000615F58D0B3F5964FE2D1344B32E047F6AA
:10303000122C6345DCD14FF400032BE0B3F5613F64
:103040004BD013D8B3F5963F4AD009D84DF6C02CD3
:10305000634547D0B3F5614FCAD14FF46B0319E014
:10306000B3F5E13FC4D14FF0EB7313E0B3F5612F3B
:103070003BD009D8DFF898C0634539D0B3F5E12FCC
:10308000B6D14FF0E86305E0DFF888C06345AFD103
:103090004FF080530069C7F82435031D03C922434C
:1030A00035432A43C7F86C2583E803000020F0BDB0
:1030B0004FF41D03EEE7124BECE74FF49E23E9E7D4
:1030C0004FF4A033E6E74FF41C33E3E74FF41D233E
:1030D000E0E70C4BDEE70C4BDCE74FF06C73D9E715
:1030E0000A4BD7E74FF46503D4E74FF07063D1E79D
:1030F0004FF08063CEE700BF00B0130000A04E0089
:103100000050270000C0750000F03A0000903A011E
:1031100090D0030040420F002DE9F743D0F804801F
:103120000669D8F80040D8F80C900021C4F80015C2
:103130000746306001AA484603F048F9051E1FDB28
:10314000019BD9F800201979186803F096F9051E3B
:1031500016DB311D3846FFF721FF054680B9D8F848
:103160000430990723D506F1120001F081F9254BAF
:10317000984209D02448452102F0AFFF6FF00405C2
:10318000284603B0BDE8F083B07CC30003F1804360
:1031900003F5F83304F10C0204F59071C3F810152F
:1031A000C3F81425194A01238340C2F804350823C3
:1031B000C4F8003598F808305BB9C4F81031D4F879
:1031C000103106F11103C4F834350123C4F8383541
:1031D0002360D8F804309A075CBF4FF48072C4F8BB
:1031E0000423DB0644BF4FF48003C4F804331036D5
:1031F0000023C4F84465C4F848350123A360E360A4
:10320000BEE700BF0000AD0B8572000000F001407A
:10321000F8B5046906460F4603F037FA10B92D4B8E
:103220001B7883B94FF02003EFF3118583F31288E5
:10323000BFF36F8F706803F09AF828BB85F311888D
:10324000BFF36F8FEEE76425706803F090F870B9F4
:10325000012003F093F9013DF6D10021212002F075
:1032600089FAF0E785F31188BFF36F8FF5E74FF028
:103270002003EFF3118583F31288BFF36F8F70681B
:1032800003F075F80028EDD004F8107F71680B6822
:103290000122C3F84445C3F848250022C3F8202181
:1032A000D3F82001C3F85821D3F858214A68D20630
:1032B00008D5726812680821C2F800154FF4800220
:1032C000C3F8042301229A6085F31188BFF36F8F3E
:1032D000F8BD00BFEC080020194970B5044622F083
:1032E0007F460868C1E90023A6F50013101AB3F55C
:1032F000400F4FF000050AD2124B19680A060B0A5C
:103300009219114943F10003C1E90023012502F09C
:10331000CBFCA30003F1804303F58833D3F84025A9
:10332000B2420BD11DB94FF40002C3F84025074B40
:103330004FF4803000FA04F4C3F8444370BD00BF7A
:103340002001002038030020080100200010014067
:1033500010B501238340114ABFF35B8FDC4352E871
:10336000001F01EA040C42E800CEBEF1000FF6D1C6
:10337000BFF35B8F4FF4803202FA00F002F180421B
:1033800002F58052C2F80803BFF35F8FBFF36F8F5F
:103390000B4214BF0120002010BD00BF34030020E9
:1033A0000123124ABFF35B8F834052E8001F194389
:1033B00042E8001CBCF1000FF7D1BFF35B8F0C4A51
:1033C0004FF480338340C2F804330A4BBFF35B8F62
:1033D0001B68BFF35B8F23FA00F0C30742BF064BA5
:1033E0004FF40032C3F80021704700BF34030020BF
:1033F000001001403003002000E100E00D4B1B688D
:10340000190A1806BFF35F8F0B4BD3F80435C018A9
:1034100041F10001B3F5801F0AD2084BD3E9002324
:10342000994208BF904203D210F1807041F100012F
:10343000704700BF38030020001001400801002041
:103440002DE9F04F85B016461F460546FFF780FF71
:103450000190FFF7D3FFB94208BFB0427FD2B6EB6D
:10346000000867EB010900234FF080724B4508BF4D
:103470004245C0F08580444B03EB0513D3E902239A
:103480009F4208BF964254D04FEA85094FF4803BD3
:1034900009F1804905F150080BFA05F209F5883960
:1034A0004FEA88081FFA88F80292384AD9F840058E
:1034B00026F07F4308F1804808F588381C4693467B
:1034C000D2F804A5A0EB0A0020F07F402AF07F414B
:1034D0000128C9F8401505D10393132003F008F91A
:1034E0002A4A039B02990AF1020CA4EB0C0020F07B
:1034F0007F40B0F5000F88BF64460020C8F8000088
:10350000D8F80000CBF8441324F07F40C9F84005F8
:10351000DBF80405824506D0201A023820F07F40EF
:10352000B0F5000F19D8E41A24F07F44321947F19E
:103530000003154C290104EB0510C0E902230E9A83
:103540000F9B625043600024019B13B12846FFF794
:1035500027FF204605B0BDE8F08F2046B0E70123E5
:103560000B4ABFF35B8FAB4052E8001F194342E8A0
:1035700000100028F8D1BFF35B8F32463B46D8E7F6
:103580006FF01504E0E700BF1001002000100140BB
:103590003003002073B5194B194D00244FF0FF3054
:1035A0004FF0FF31C5F80845C3E902014FF48033FD
:1035B000C5F80433134B02264FF400320121C5F83D
:1035C00004631120C3F880212246FEF7A9FB1120D5
:1035D000FEF788FB0C4A012313600C4A2B60136032
:1035E0000B4B0C4A0093019400232046FFF728FF61
:1035F0003046FFF71FFA204602B070BD10010020D0
:103600000010014000E100E00810014034030020F8
:10361000D9320000FFFF7F002DE9F743344CD4F886
:1036200004339A0709D5334B1A6832B100221A6065
:10363000314A1B681368013313604FF02003EFF326
:10364000118283F31288BFF36F8FD4F80433DB0346
:1036500012D5BFF35B8F294B53E8001F21F0010007
:1036600043E80006002EF7D1BFF35B8F244B0029FF
:1036700036D11968002933D1002382F31188BFF3B2
:103680006F8F53B3FFF7BAFE06464FF02003EFF3F8
:10369000118083F31288BFF36F8F1A4BD3E902892D
:1036A000494508BF46454FF000021ED34FF0FF3694
:1036B0004FF0FF37D3E90015C3E902671A604FF4F2
:1036C0008033C4F8483380F31188BFF36F8F21B182
:1036D000009542464B460020884703B0BDE8F08382
:1036E000002119601B680123C7E71146EBE700BF03
:1036F0000010014004110140380300203003002075
:103700004011014010010020431C13B521D00128B5
:1037100021DDB0F5000F20DA441EFFF76FFE104BDD
:103720001049D3E90023801AB0F5000F28BF002408
:10373000013004440C480091844228BF0446121909
:103740004FF00000019043F10003FFF779FE02B053
:1037500010BD0548E0E70024DFE7034CDDE700BFCC
:1037600020010020D9320000FFFF7F0008B5FFF7DD
:1037700045FE024B1B68C01A08BD00BF2001002097
:103780000268530910B504462AD0012B40F2FF33DA
:1037900018BF002302F01F02D340DB070AD41349ED
:1037A000134840F2292202F08AFC104840F22921F5
:1037B00002F07EFC236803F01F025B0922600CD03C
:1037C000012B10D009490A4840F22E2202F077FC62
:1037D000064840F22E2102F06BFC4FF0A04010BDD5
:1037E0004FF0FF33D6E70348F9E700BF9E6B0000B8
:1037F000356B000000030050034808B5452102F076
:103800006CFC0020FEF792FFC7720000024AD2F85B
:103810000034002BFBD0704700E001404E4B1B688A
:103820000D2B10B557D14FF080414FF0805200233F
:10383000C1F80C31C1F81031C1F83835474BD2F816
:103840000404C3F82005D2F80804C3F82405D2F80C
:103850000C04C3F82805D2F81004C3F82C05D2F8DC
:103860001404C3F83005D2F81804C3F83405D2F8AC
:103870001C04C3F84005D2F82004C3F84405D2F86C
:103880002404C3F84805D2F82804C3F84C05D2F83C
:103890002C04C3F85005D2F83004C3F85405D2F80C
:1038A0003404C3F86005D2F83804C3F86405D2F8CC
:1038B0003C04C3F86805D2F84004C3F86C05D2F89C
:1038C0004424C3F87025D1F80034DB0707D56FF026
:1038D0000103C1F80034204B1B680D2B0AD1204B8B
:1038E0001B683BB14FF01023D3F808224FF0804300
:1038F000C3F858254FF01023D3F80022002A03DB29
:10390000D3F80432002B22DA16490123C1F804351A
:10391000FFF77CFF4FF010201224C0F80042FFF7A1
:1039200075FFC0F80442FFF771FF0023C1F80435AA
:10393000FFF76CFFBFF34F8F0B490C4BCA6802F4C3
:10394000E0621343CB60BFF34F8F00BFFDE7084B2E
:10395000084A1A6010BD00BF3001001000C00040CE
:103960003401001000E0014000ED00E00400FA0521
:10397000340000200090D00370B501250268B2FA2F
:1039800082F3C3F11F035E1CDCB214D0BFF35B8F64
:1039900005FA03F322EA030350E8006F964204D1CC
:1039A00040E8003CBCF1000FF6D1BFF35B8FE5D1DE
:1039B00002480C7070BD0248FCE700BF0000AD0B70
:1039C0000200AD0B0368CB40DB0710B515D4012313
:1039D00003FA01F10368BFF35B8F41EA030250E889
:1039E000004F9C4204D140E8002CBCF1000FF6D1FE
:1039F000BFF35B8FEED1024810BD0248FCE700BF69
:103A00000000AD0B0400AD0B08B570B101281BD050
:103A1000144915484FF44F7202F051FB11484FF40E
:103A20004F7102F045FB00200DE031B14FF08043B3
:103A3000D3F8183403F003030B604FF08043D3F83E
:103A40001804C0F3004008BD31B14FF08043D3F8F3
:103A50000C3403F001030B704FF08043D3F80C04D7
:103A6000EFE700BFE9720000356B000073B5044654
:103A700060B1012832D020492048D82202F01FFB33
:103A80001D48D82102F014FB02B070BD4FF08043F6
:103A90000222C3F80823C3F8040103F5827301224C
:103AA0001B68174B1A6001239C428DF8073014BF26
:103AB00000260DF1070642F2107531462046FFF749
:103AC000A3FF0028E0D01EB19DF80730012BDBD109
:103AD000012002F053FD013DEFD1D5E74FF08043C7
:103AE0000022C3F80803C3F8002103F580731B68A4
:103AF000044B1860D7E700BF1D730000356B000052
:103B00000C0000400400004010B5044650B90A49BA
:103B10000A4840F2151202F0D2FA074840F2151195
:103B200002F0C6FA064B1A7922B9012205481C6038
:103B30001A7110BD0448FCE71D730000356B0000CE
:103B40003C0300200000AD0B0C00AD0B08B50D4B85
:103B50001B7953B90C490D484FF4977202F0AFFA34
:103B600009484FF4977102F0A3FA0020FEF7CAF853
:103B700008B9FEF7B7F84FF080430022C3F81825C4
:103B800008BD00BF3C0300201D730000356B000022
:103B90002C4B1B7913B5044653B92B492B484FF4D2
:103BA000B47202F08CFA28484FF4B47102F080FA33
:103BB0006CB1012C3BD0244924484FF4D37202F05D
:103BC0007EFA21484FF4D37102F072FA1AE001A98B
:103BD0002046FFF719FFB8B1019B012B04D9002043
:103BE000FFF744FF002301934FF08043019AC3F88D
:103BF0001825174A0021116012680222C3F8042315
:103C000001229A6002B010BD4FF08043D3F8142413
:103C1000D1070AD5D3F81C2402F0030192070191C1
:103C2000DDD40222C3F80423ECE70194DCE7094B5E
:103C300000221A601B684FF08043C3F804431C60E5
:103C4000E0E700BF3C0300201D730000356B00005F
:103C500004010040000100400A4B1B7910B50446E6
:103C600053B90949094840F2AD1202F028FA064852
:103C700040F2AD1102F01CFA2046BDE81040FFF7FB
:103C8000F5BE00BF3C0300201D730000356B000033
:103C9000154B07B51A6852B1002018601B684FF029
:103CA00080430122C3F80823104B1B689847104B30
:103CB0001A686AB10020186001A91B68FFF7A4FE0A
:103CC000019A4FF0804332B90122C3F818259A6057
:103CD00003B05DF804FB0222C3F80823034B012064
:103CE0001B689847F4E700BF000100403C03002038
:103CF00004010040054B083033F8100000F02200AA
:103D0000A0F1220358425841704700BF38000020FC
:103D100070B500F108030C4C34F81330DA05054691
:103D20000E4607D5C3F3432304EBC30254F83330E4
:103D300052689847A3682BB1E26831462846BDE82F
:103D40007040184770BD00BF38000020194B083084
:103D500010B533F81020D1051DD5C2F3432122F44C
:103D6000F85223F8102003F11004002034F8022B3D
:103D700012F4807F03D0C2F3432291420BD0013072
:103D80002A28F3D1002243F831200B48FFF71AFE0E
:103D90000A4B984200D110BD09490A484FF4997264
:103DA00002F08DF9BDE8104005484FF4997102F01A
:103DB0007FB900BF38000020A00000200000AD0B3C
:103DC0005A730000356B000038B50A4C00F1080545
:103DD00034F815309A0606D55B0B074A03F5A27333
:103DE000002142F82310FFF7B1FF002324F815301B
:103DF00038BD00BF380000200060004010B5044608
:103E0000006802F0BDFB50B91149124840F2292266
:103E100002F055F90E4840F2292102F049F92368D1
:103E200003F01F025B0922600CD0012B0DD0084962
:103E3000084840F22E2202F042F9054840F22E21B5
:103E400002F036F94FF0A04010BD0348FCE700BF78
:103E50009E6B0000356B000000030050F0B5044677
:103E600085B017461D46F1B1FFF744FF10B14A482F
:103E700005B0F0BD0B46CDE900008DF80E008DF8C1
:103E80000F000DF10F020DF10E01204602F08DFB27
:103E9000424A04F1080132F8113023F0020343F0E2
:103EA000010322F8113097B13C4B3E787A6804F157
:103EB000080033F810108F070CD5002AD7D133F83B
:103EC000102022F01C0242EA860223F81020CDBB0B
:103ED0003348CDE721F02001C904C90C23F81010A4
:103EE000002AECD0032EC2D817782EB92D4A07F538
:103EF000A27142F82160E2E7BA0002F1804202F5C5
:103F0000C04241EA4731D2F810C52CF0030CC2F888
:103F100010C5D2F810C52CF44F3C2CF4407CC2F8EC
:103F200010C5D2F810E54FEA042C0CF47C5C4EEA84
:103F3000064E4CEA0E0C41F0200123F81010C2F896
:103F400010C5BCE7D5E900672046FFF7FFFE002E4D
:103F5000BED0124D2B689E4204D16B689F4201D1A6
:103F600000220AE010480DF10F01FFF705FD0C4B90
:103F700098427FF47DAF9DF80F2045F8326005EB45
:103F8000C20308345F6035F8143043EA422343F437
:103F9000807325F814309BE70400AD0B3800002037
:103FA0000000AD0B00600040A0000020F0B504460A
:103FB00085B0154609B300F10807314E36F81730C1
:103FC000980701D49A0658D413F01C0F02D04B78EE
:103FD000012B52D001238DF80F300023CDE90013BF
:103FE0004A1C8B1C20460DF10F0102F0DEFA36F858
:103FF000173043F0030326F8173015B9214805B0F0
:10400000F0BD1F4E04F1080736F81700830734D5BA
:1040100095F800C06146890020F0200001F1804140
:10402000C00401F5C041C00C26F817000023C1F8F8
:1040300010356A78002AE1D0D1F81035AD7823F434
:10404000991323F4F853C1F81035D1F810E5230281
:1040500003F47C53120443EA0E0302F440322D05AC
:10406000134305F4801540EA4C302B4340F0200008
:1040700026F81700C1F81035C0E70348BFE700BFB6
:10408000380000200000AD0B0400AD0B014BC3E96C
:10409000020170473800002038B504460D4651B97A
:1040A0000A490B4840F2352202F009F8074840F26D
:1040B000352101F0FDFF0834064B33F814309A0621
:1040C00043BF5B0B2B700448044838BD5A73000093
:1040D000356B0000380000200000AD0B0400AD0B74
:1040E00038B50E4C94F86C50B5B95422294604F1F9
:1040F000100002F03FF80620FDF7F4FD084B0948D8
:104100001D601B68084B4FF00042C3F804230123D5
:1041100084F86C30A36638BD0448FCE73800002002
:104120007C6100400000AD0B006000400500AD0B5D
:10413000034B93F86C00003818BF0120704700BF94
:104140003800002001460148FFF73CBC9C000020DD
:1041500001460148FFF710BC9C000020F7B5304D28
:1041600000F10807044635F8173013F01C0F0E460F
:104170000AD12C492C4840F2DF3201F0A0FF294837
:1041800040F2DF3101F094FF35F8170083061FD5A8
:1041900010F002031CD1410B084602F002FA00F1B4
:1041A000804000F5C040036003688B0003F180434A
:1041B00003F5C043D3F8102542F00102C3F81025DF
:1041C00026B11A4A01238B40C2F8043303B0F0BD74
:1041D00056B91449144840F2EE3201F070FF11480C
:1041E00040F2EE3101F064FF35F81730C3F382037B
:1041F000042B10D0052B10D001A80194FFF7FEFD71
:10420000019BD0F81015D94001F001010231204680
:1042100002F016FADAE70321F9E70221F7E700BF17
:10422000380000205A730000356B00000060004029
:104230000E4B00F1080233F81230990613D59A0795
:1042400011D45B0B01229A409B00094903F1804382
:1042500003F5C043C1F80823D3F8102522F0030268
:10426000C3F810257047002102F0EAB93800002099
:10427000006000400E4B00F1080213B513F8123035
:10428000DB07044611D5FFF7D3FF2046FFF79CFD5F
:1042900001A80194FFF7B2FD019B03F5E073022230
:1042A00040F82320034802B010BD0348FBE700BFDD
:1042B000380000200000AD0B0400AD0B2DE9F04FDD
:1042C000654B66486649002589B001222C461E6868
:1042D00036B1D0F8046316421EBF1C601E68154339
:1042E00004338B424FEA4202F1D15E4F3B687BB30D
:1042F0004FF0A0435C4ED3F820250692C3F820254A
:10430000D6F820350793C6F8203501960DF1180927
:104310004FF000084FF0010BD9F80030F3B908F165
:104320002008B8F1400F09F10409F5D13B603B6862
:1043300001994FF0A043D3F820250692C3F8202519
:10434000019BD3F820350793C1F820351343DDD105
:104350000124002D68D109B0BDE8F08F93FAA3F3D2
:10436000B3FA83F308EB030606F108023F4B059608
:1043700033F81220C2F38203F40802939A4606AB84
:1043800006F007000BFA00FC185D20EA0C00185537
:10439000910805A80391FFF731FD059C039904F5E9
:1043A000E0744B0750F82440C4F3014423D5514630
:1043B0003046FFF7ADFC05A80596FFF71FFD059AEF
:1043C00002F5E072E4B250F82220C2F301429442B6
:1043D00007D10021304602F033F92146304602F081
:1043E0002FF905A80596FFF709FD059B0BFA03F3C6
:1043F000C0F8203590E7022C0CBF03210221304683
:1044000002F01EF9029B032B04D0022C07D1BAF153
:10441000010FE6D151463046FFF77AFCE1E7032C65
:10442000DFD1BAF1020FF4E795FAA5F3B3FA83F3FB
:1044300004FA03F29B0003F1804303F5C04325EA2D
:104440000205D3F81005D3F81015C0F30520C1F309
:104450000141FFF75DFC7CE7006100400060004027
:10446000206100407C6100400003005038000020C3
:1044700001460148FFF780BAA800002010B5144C8F
:10448000144A1549032323616361144BA261E3615C
:104490004FF4806323620023A3626362E3622266B7
:1044A0000F4A6266E01D1022A2662367E366636717
:1044B00001F02FFEBFF35F8F0A49204601F029FE6D
:1044C000BFF35F8F2023A371BFF35F8F10BD00BFC9
:1044D0004403002098730000A1730000EC04002046
:1044E000DC040020A57300000E4B70B553F820408B
:1044F000013053F82060A64200D870BDD4E90035E1
:104500002846984765B1EB6830B10028B8BF4042F3
:10451000FF28A8BFFF2018705A7842F001025A7095
:104520000834E8E7D86A000070B5054610B90024E1
:10453000204670BD0378002BF9D00F4A0F4C164669
:10454000944208D10D4CB442F1D0204602F08FF8CD
:1045500050B91834F7E7204602F089F810B1236803
:10456000AB42E5D01834EBE72168284601F0EBFDBB
:104570000028EED1DCE700BFC46700004C670000F4
:10458000F7B504460E464FF02003EFF3118783F38F
:104590001288BFF36F8F01F01DF9042C96BF1E4BDC
:1045A0001E4B53F824300022054600921C48224638
:1045B000452101F092FD3EB1F369C3F308031BB13D
:1045C0001848452101F089FD35B1284602F063F80D
:1045D000034608B1027802B9134B14482A46452114
:1045E00001F07BFD31462046FFF706F9042C08D187
:1045F0000F4910488F2201F062FD0D488F2101F014
:1046000057FD87F31188BFF36F8F284603B0BDE8CD
:10461000F040FDF74BBF00BFF06A0000AC73000034
:10462000C2730000EF730000BA730000157400003D
:1046300032740000356B000008B50A4B01220220DD
:104640001A70FFF751FF01F025FC0320FFF74CFF24
:1046500000F012F9FBF7D6FF034A137B23F00103A6
:10466000137308BDEC080020A801002008B503481A
:10467000034A0021121A02F004F808BD08010020C4
:10468000F008002070B5002386B00122CDE9042394
:104690000F22CDE902320193114E124B1249182517
:1046A00005FB003506EBC01604464FF4B07000FB66
:1046B00004110E4B00954FF4A072304600F084F8C0
:1046C000737B0B482C7523F0040373734FF4026360
:1046D00003FB04041C44EE606C6006B070BD00BFB8
:1046E00028010020EC030020200D0020C549000017
:1046F000800E002080B52D4BA6B083F308882C4D8A
:104700002C4E6B692C4F43F4007300246B61E02343
:1047100085F82230EC772C766C76AC7685F82040E4
:104720006B6A43F4E0236B6285F82340FDF734FEA7
:10473000FDF78CFA4FF0FF33AB62EB62FDF78CFFB5
:10474000FDF7CAFE40F20113ADF8243006ABB360AA
:10475000CDE91F44229401F089FF2046FFF7C4FEF3
:104760000120164DFFF7C0FE00F0E4FE144BF5618A
:104770000593012313490094CDE903434FF480626C
:104780003B46CDE90144284600F01EF86A7B22F042
:1047900004026A730646284600F04CFC2046FFF7E8
:1047A00071FF3A4631462846FDF78CFBA0160020E3
:1047B00000ED00E0EC03002039460000A8010020D5
:1047C000D16B0000000900202DE9F04385B00446BC
:1047D000DDF83C80B8F10F0F0F461546994632D1EF
:1047E000214B994533D104F15803C4E91633109B8A
:1047F000237307350423637325F0070507F12003AE
:10480000C4E919350E9B84F80E80029305F1200847
:104810000D9B019300260C9B0093B8444B46C4E9C2
:104820000666A660E673E666424639462046FDF710
:1048300013FB0E4B66659B6803B11B6F23674046F5
:1048400005B0BDE8F08308F110031E2BCBD9084951
:10485000084840F2FF1201F032FC054840F2FF1117
:1048600001F026FCBFE700BFC5490000EC030020B3
:10487000A1740000356B00002DE9F047394F3A4D27
:10488000DFF8EC8086B03E46BD420AD93748414643
:1048900040F2D52201F013FC40F2D521404601F050
:1048A00007FCB54205F130041DD300F0F9F92E4C98
:1048B0002F4DDFF8B8A040F2E7384FF00009B442BE
:1048C0000AD9294650464FF43D7201F0F8FB4FF4E7
:1048D0003D71284601F0ECFBB44221D306B0BDE89F
:1048E000F04700F08DBD54F8043C059354F8103C9B
:1048F000049354F8143C039354F8183C029354F86E
:104900001C3C019354F8203C009354E90A2354E9D9
:104910000C01FFF759FF54F8303C5D652546B3E7BD
:10492000636A5A1C0FD023EAE3734FF400424046F7
:104930004946C2FB0301494508BF4045276804D1E9
:10494000384600F0ADFB3034B9E74FF47A720023FB
:10495000FBF7D6FB02460B4607F11800054901F0AC
:1049600039F8F0E70801002008010020356B00004D
:10497000A174000025510000006838B1044B1B7D74
:1049800000F00300C01A18BF0120704701207047D3
:10499000EC030020064903468A68087D1968024333
:1049A00091424FF0000004BF18600120704700BF23
:1049B000EC030020024A117D93680B4303607047AB
:1049C000EC030020124CA26892F90E20002A08B5D0
:1049D00008DA10491048272201F071FB0D48272101
:1049E00001F066FB0D4D4FF02002EFF3118382F3CF
:1049F0001288BFF36F8F01F0E3F82B78A06113B931
:104A0000FDF72AF9EFE7FDF747F80028EBD1F7E7C4
:104A1000EC030020C4740000356B0000EC0800209B
:104A200038B504464FF02003EFF3118583F3128865
:104A3000BFF36F8F1248FFF79FFF40B9114912482B
:104A40008E2201F03CFB0F488E2101F031FB0C4817
:104A5000FFF7B0FF204600F02FFD48B1002282672B
:104A600000F0E8FA29460648BDE8384000F0E2B810
:104A7000D4E902329A4218BF0133A360F2E700BFC3
:104A800014040020346C0000356B0000F7B50446B8
:104A900016461F46EFF305835BB156EA070308D0BD
:104AA0002B492C48792201F00AFB2948792101F091
:104AB000FFFA4FF02003EFF3118583F31288BFF361
:104AC0006F8F2548FFF758FF40B9244921488E22AF
:104AD00001F0F5FA21488E2101F0EAFA1E48FFF7AD
:104AE00069FFA368ABB1013B1B48A360FFF752FF0E
:104AF00040B91A491748B92201F0E1FA1748B9211B
:104B000001F0D6FA85F31188BFF36F8F002003B050
:104B1000F0BD56EA070313D10F48FFF73BFF40B93A
:104B20000E490C48B92201F0CAFA0C48B92101F02B
:104B3000BFFA85F31188BFF36F8F6FF00F00E6E7C0
:104B4000CDE9006722462946034800F0DBFBDEE79B
:104B5000E5740000356B000014040020346C000084
:104B600038B5074D2C6854B1FEF700FE054B0444E0
:104B70001C6128680021BDE8384001F057B838BDF5
:104B800024040020EC030020F8B505460E464FF043
:104B90002003EFF3118783F31288BFF36F8F1F4851
:104BA000FFF7EAFE40B91E491E488E2201F087FA3F
:104BB0001B488E2101F07CFA18481B4CFFF7FAFEC7
:104BC00000234FF4004C40F2E730002123614FF402
:104BD0007A720023ECFB0501FBF792FA002D134BD0
:104BE00017DC1860124BA0681E60FFF7B9FF0B4876
:104BF000FFF7D0FE40B90A490A48B92201F05FFA2E
:104C00000748B92101F054FA87F31188BFF36F8F79
:104C1000F8BD0228B8BF0220E3E700BF1C04002053
:104C2000346C0000356B0000EC03002024040020ED
:104C30002004002010B503460C46C1B9EFF30582ED
:104C4000AAB9144AD1699268914210D0FFF7A2FE26
:104C500040B911491148D02201F031FA0E48D02153
:104C600001F026FABDE810400020FDF7A1B8184673
:104C7000FFF790FE40B908490848B92201F01FFA31
:104C80000548B92101F014FA84F31188BFF36F8F3E
:104C900010BD00BFEC030020346C0000356B000039
:104CA00038B54FF02003EFF3118583F31288BFF37B
:104CB0006F8F2048FFF760FE40B91F491F488E22C2
:104CC00001F0FDF91C488E2101F0F2F91948FFF7B7
:104CD00071FEEFF3058343B119491848FD2201F035
:104CE000EEF91748FD2101F0E3F9164CA268D27BDA
:104CF000012A08D112491148FE2201F0E0F91048BA
:104D0000FE2101F0D5F9A268D37B013BD37309489A
:104D1000FFF740FE40B908490848B92201F0CFF931
:104D20000548B92101F0C4F985F31188BFF36F8FED
:104D300038BD00BF1C040020346C0000356B00003F
:104D400005750000EC0300200B4B994210B50C4692
:104D50000AD10A490A4840F23D4201F0B0F9074839
:104D600040F23D4101F0A4F9D4E9003213605A60E9
:104D70000023C4E9003310BD280100203075000075
:104D8000356B0000836810B5044653B90A490B48D7
:104D900040F2B92201F093F9074840F2B92101F03D
:104DA00087F9A0682146FFF7CFFF637B23F002035A
:104DB00063730023A36010BD30750000356B0000E5
:104DC00038B502461248134D01F084FC044600B980
:104DD000EC68AAB9AB6843B90F491048892201F0C1
:104DE0006EF90D48892101F063F9AB685A7BD20650
:104DF00006D1A26922B9DA897F2A01D9EB6138BDCF
:104E0000AB68A34202D02046FFF7AAFEEC61F6E7AA
:104E10000C040020EC03002030750000356B00000E
:104E200070B590F90D20437B002A044606DA03F0A2
:104E30007F03437301461F48FFF786FF637B63F0E0
:104E40007F0363731C4B9C4208D11C491C48BA2247
:104E500001F035F91948BA2101F02AF9194A114629
:104E6000556A51F8203F8B4208BF0023002B38BF02
:104E70000023CBB194F90E6093F90E0086420FD057
:104E8000801B00280CDD5968C4E900310C605C60AF
:104E90009068031B5842BDE870405841FFF790BF2F
:104EA000AB4201D01B68E4E7C4E900152C605462F2
:104EB000EEE700BF0C040020280100203075000040
:104EC000356B0000EC03002070B505464FF0200361
:104ED000EFF3118683F31288BFF36F8F2648FFF735
:104EE0004BFD40B9254926488E2201F0E8F82348B9
:104EF0008E2101F0DDF82048FFF75CFD214B224AAE
:104F00009C6811688C42194614D12046FFF728FE90
:104F10001948FFF73FFD40B918491948B92201F077
:104F2000CEF81648B92101F0C3F886F31188BFF313
:104F30006F8F70BD00201060144A1268C2B1E28900
:104F40007F2A15D8627BD20612D1114A94F90E003D
:104F5000126890420CDB0F4A944209D01A69AA42A7
:104F600003DC2046FFF75CFFCFE7521B1A61CFE757
:104F700000230B61CCE700BF1C040020346C000050
:104F8000356B0000EC0300201804002024040020EE
:104F9000200400202801002070B590F90D20437BEB
:104FA000002A04463DDBDA063BD18569002D38D165
:104FB00063F07F0343731B4B984208D11A491B4887
:104FC000BA2201F07CF81848BA2101F071F81849AA
:104FD0000B4653F8200F984218BF0546002D1A467D
:104FE0002B464D6A38BF0023B3B194F90E6093F994
:104FF0000E0086420CD0801B002809DD5A68C4E9E7
:10500000003214605C60BDE870400020FFF7D8BE3D
:10501000AB4201D01B68E7E7C4E900252C604C6275
:10502000F1E770BD2801002030750000356B0000ED
:10503000EC03002038B504464FF02003EFF3118550
:1050400083F31288BFF36F8F1248FFF795FC40B9C6
:10505000114912488E2201F032F80F488E2101F0DA
:1050600027F80C48FFF7A6FC2046FFF795FF0948F4
:10507000FFF790FC40B908490848B92201F01FF831
:105080000548B92101F014F885F31188BFF36F8F3B
:1050900038BD00BF1C040020346C0000356B0000DC
:1050A00038B504464FF02003EFF3118583F31288DF
:1050B000BFF36F8F1848FFF75FFC40B917491848D6
:1050C0008E2200F0FCFF15488E2100F0F1FF1248FF
:1050D000FFF770FC637B5A0711D40F48FFF75AFCA7
:1050E00040B90E490E48B92200F0E9FF0B48B9213A
:1050F00000F0DEFF85F31188BFF36F8F38BD23F01A
:10510000040320466373FFF747FF29460248BDE8C2
:105110003840FFF78FBD00BF1C040020346C000036
:10512000356B000070B504464FF02003EFF3118695
:1051300083F31288BFF36F8F1B48FFF71DFC40B944
:105140001A491B488E2200F0BAFF18488E2100F041
:10515000AFFF1548FFF72EFC14F80B3C13F0280F97
:1051600010D154F8103CA4F1180513B12846FFF7EC
:1051700009FE14F80B3C23F0140304F80B3C2846FA
:10518000FFF70AFF0848FFF705FC40B90749084840
:10519000B92200F094FF0548B92100F089FF86F399
:1051A0001188BFF36F8F70BD1C040020346C0000A9
:1051B000356B000010B590F90D20437B002A0446A2
:1051C00006DA03F07F03437301460648FFF7BCFD90
:1051D000054B9868031B5842BDE810405841FFF743
:1051E000EFBD00BF0C040020EC03002038B50446DE
:1051F0000D46FFF7DFFF637B43F00203637315B3D4
:10520000174BA5609C4208D116491748BA2200F0F6
:1052100056FF1448BA2100F04BFF2B689D4208BF8F
:105220000023002B38BF00239BB194F90E1093F993
:105230000E20914208D0521A002A05DD5A68C4E9AE
:10524000003214605C6038BD6A68934201D01B680C
:10525000EAE76B68C4E900531C606C60F3E700BFC9
:105260002801002030750000356B00002DE9F04169
:1052700004460D4616461F464FF02003EFF31188F3
:1052800083F31288BFF36F8F1A48FFF775FB40B99D
:1052900019491A488E2200F012FF17488E2100F09B
:1052A00007FF1448FFF786FB20462946FFF79EFFBD
:1052B0001048FFF76FFB40B90F491048B92200F0C2
:1052C000FEFE0D48B92100F0F3FE88F31188BFF30C
:1052D0006F8F7B1C08BFB6F1FF3F08D032463B46BC
:1052E00004F118000649BDE8F04100F073BBBDE8C9
:1052F000F08100BF1C040020346C0000356B0000FE
:105300002551000038B50E4B054698680D4B0C46EC
:1053100018601146DDE90423FFF7A8FF2846FFF7D0
:1053200039FB40B908490948D02200F0C8FE0648B8
:10533000D02100F0BDFE2046BDE83840FCF738BD66
:10534000EC03002018040020346C0000356B0000D2
:1053500070B50446183000F0F7FB4FF02003EFF370
:10536000118683F31288BFF36F8F2048FFF704FB89
:1053700040B91F491F488E2200F0A1FE1C488E2113
:1053800000F096FE1948FFF715FB94F90D20637B9A
:10539000002A06DA03F07F03174863732146FFF7FC
:1053A000D3FC164D637BA86843F010036373031BA3
:1053B00058425841FFF704FD0C48FFF7EBFA40B99B
:1053C0000B490C48B92200F07AFE0948B92100F0D7
:1053D0006FFE86F31188BFF36F8FAB68A34203D1D2
:1053E000BDE8704001F06CB970BD00BF1C04002026
:1053F000346C0000356B00000C040020EC0300202E
:1054000038B54FF02003EFF3118583F31288BFF313
:105410006F8F2448FFF7B0FA40B9234923488E2202
:1054200000F04DFE20488E2100F042FE204C1D4829
:10543000FFF7C0FAA268D27B52B91E491B4840F25E
:10544000BB3200F03CFE1B4840F2BB3100F030FEA6
:10545000EFF3058353B1174914484FF46F7200F00E
:105460002EFE14484FF46F7100F022FEA268D37B29
:1054700001330020D373FFF7A3FC0A48FFF78AFA31
:1054800040B909490948B92200F019FE0648B92176
:1054900000F00EFE85F31188BFF36F8FBDE8384032
:1054A00001F00EB91C040020346C0000356B0000C4
:1054B000EC0300203075000038B504464FF020039F
:1054C000EFF3118583F31288BFF36F8F1648FFF750
:1054D00053FA40B9154916488E2200F0F0FD1348E2
:1054E0008E2100F0E5FD1048FFF764FA204601F038
:1054F000F1F8044628B1FFF745FC04F1180000F06C
:1055000023FB0948FFF746FA40B908490848B92281
:1055100000F0D5FD0548B92100F0CAFD85F31188DA
:10552000BFF36F8F204638BD1C040020346C000090
:10553000356B0000044B002103F12002C3E908226F
:105540000846FFF721BB00BFEC030020F8B5EFF3DE
:10555000058353B139493A4840F2325200F0AFFD69
:10556000364840F2325100F0A3FD4FF02003EFF334
:10557000118683F31288BFF36F8F3248FFF7FCF96F
:1055800040B931492E488E2200F099FD2E488E21D7
:1055900000F08EFD2D4D2B48FFF70CFAA9684B7BD0
:1055A00003F07F034B7305F12000FFF7CDFBAC68E0
:1055B000637B63F07F036373254B9C4208D11F49D3
:1055C0001F48BA2200F07BFD1C48BA2100F070FD94
:1055D0002B6A2048696A834208BF0023002B38BF2A
:1055E000002333B394F90E7093F90E2097421CD028
:1055F000D21B002A19DD5A68C4E9003214605C60CD
:105600000120FFF7DDFB0F48FFF7C4F940B90E4951
:105610000B48D02200F053FD0B48D02100F048FD8C
:105620003046BDE8F840FCF7C3BB8B4201D01B6895
:10563000D7E7C4E900010C606C62E1E73075000057
:10564000356B00001C040020346C0000EC030020CB
:10565000280100200C0400202DE9F04104460D46ED
:10566000EFF3058353B13C493C4840F24E5200F001
:1056700026FD394840F24E5100F01AFD54EA050368
:1056800004D1FFF763FF0020BDE8F0816FF0010354
:105690001E1B4FF0FF3363EB0507012E77F100036C
:1056A00056DA01F021F806194FF02003EFF31188C4
:1056B00083F31288BFF36F8F2948FFF75DF940B974
:1056C000284926488E2200F0FAFC26488E2100F058
:1056D000EFFC254F2248FFF76DF9244BB86818609E
:1056E000FFF768FDB868224922462B46183000F0C3
:1056F00071F9BA681A48537B43F010035373FFF7EC
:1057000049F940B917491548D02200F0D8FC15488E
:10571000D02100F0CDFC4046FCF74AFBBB685B7B28
:10572000DB060AD50C490D4840F26F5200F0C7FC69
:10573000094840F26F5100F0BBFC00F0D5FF301A71
:1057400066EB0601012871F10003B8BF00209BE75A
:105750006FF00106361BA7E730750000356B0000BF
:105760001C040020346C0000EC030020180400200E
:105770002551000038B504460D46EFF3058353B1BB
:105780001149124840F27E5200F099FC0E4840F256
:105790007E5100F08DFC6B1C08BFB4F1FF3F06D1B9
:1057A0000B4B9868FFF7D4FD4FF0FF3038BD204613
:1057B0002946FFF751FF4FF47A7380FB0334D80B6F
:1057C00040EA4440F2E700BF30750000356B00004E
:1057D000EC030020014B9868704700BFEC030020E9
:1057E0002DE9F04104464FF02003EFF3118683F3D7
:1057F0001288BFF36F8F3E48FFF7BEF840B93D49AE
:105800003D488E2200F05BFC3A488E2100F050FCAF
:105810003748FFF7CFF8637B1A0712D53448FFF7F4
:10582000B9F840B933493448B92200F048FC31484E
:10583000B92100F03DFC86F31188BFF36F8FBDE8FE
:10584000F08123F0200242F00801D20938D16173BF
:10585000A36813B12046FFF795FA04F1180000F091
:1058600073F904F158074FF00008A56DBD4200D050
:1058700085BB0120FFF7A4FA204B9B68A342CDD142
:10588000EFF30583002BC9D11948FFF783F840B91E
:1058900018491948D02200F012FC1648D02100F017
:1058A00007FC3046FCF784FA1549134840F2AC6215
:1058B00000F005FC124840F2AC6100F0F9FBADE7E6
:1058C00003F05F0343F008030E4863732146FFF7BC
:1058D0003BFABDE72846FFF755FA05F1180000F03E
:1058E00033F9C5F878802846FFF756FBBDE700BFBF
:1058F0001C040020346C0000356B0000EC03002019
:10590000307500000C04002008B50648064A074917
:10591000121A00F0B8FEBDE80840054A05490648DD
:1059200000F0B1BE0000002008010020AC750000AE
:1059300000000000AC75000000000020034B1B6855
:105940000BB9FDF713BF0020704700BF28040020EB
:1059500030B5036868B10A4A5268904209D043B131
:10596000D3E90421D0E90445121945EB0101C3E94B
:105970000421426813605A600023C0E9003330BD3F
:10598000AC00002038B5114B1C689C4208BF0024B5
:10599000FFF7D4FF0546ACB1D4E90401401B61EB2D
:1059A000E571B0F1004F71F100030BDA002871F1DD
:1059B000000300DA0020064B1B6913B19842A8BF10
:1059C000184638BD6FF00040F5E700BFAC0000207E
:1059D000EC0300202DE9F74F1D466B1C08BFB2F108
:1059E000FF3F82468B46144600F09C80036843B11B
:1059F0004E494F48632200F062FB4C48632100F09F
:105A000057FBCAF808B04FF02003EFF3118B83F374
:105A10001288BFF36F8F4748FEF7AEFF40B9464983
:105A200043488E2200F04BFB43488E2100F040FBA0
:105A30004048FEF7BFFF6FF00103B3EB04084FF0DF
:105A4000FF3262EB0509B8F1000F79F100011CDBB0
:105A50003A48D0E900105B1A62EB00021E1B62EBB1
:105A60000507012E77F10003BCBF01260027CAE914
:105A70000467334AD2E9003693421DD1CAE90026B1
:105A8000C6F800A0C2F804A02CE0FFF757FF631C83
:105A9000009345F100030193DDE90023121843EB65
:105AA000E073CAE90423E4E7E01B65EB0801B342B5
:105AB000CAE90401E2D01B68002BDFD0D3E90478E7
:105AC000DAE90445BC4275EB0801EDDA381B68EBF6
:105AD0000501C3E904015968CAE90031C1F800A011
