:10000000B80A0020650B0000EF2A0000B1090000CB
:10001000B1090000B1090000B1090000B1090000F8
:10002000B1090000B1090000B10900007909000020
:10003000B1090000B109000025090000D92A00001B
:10004000E1090000E1090000E1090000E109000008
:10005000E1090000E1090000E1090000E1090000F8
:10006000E1090000E1090000E1090000E1090000E8
:10007000E1090000E1090000E1090000E1090000D8
:10008000E1090000E1090000E1090000E1090000C8
:10009000E1090000E1090000E1090000E1090000B8
:1000A000E1090000E1090000E1090000E1090000A8
:1000B000E1090000E1090000E1090000E109000098
:1000C000E1090000E1090000E1090000E109000088
:1000D000E1090000E1090000E1090000E109000078
:1000E000E1090000E1090000E1090000E109000068
:1000F000E1090000E1090000E1090000E109000058
:100100007BB972B90029BEBF00204FF0004106E064
:1001100008BF00281CBF6FF000414FF0FF3000F017
:10012000A5B9ADF1080C6DE904CE002909DB002B5F
:100130001ADB00F035F8DDF804E0DDE9022304B055
:100140007047404261EB4101002B1BDB00F028F8B7
:10015000DDF804E0DDE9022304B0404261EB410137
:10016000524263EB43037047524263EB430300F098
:1001700017F8DDF804E0DDE9022304B0404261EB4A
:1001800041017047524263EB430300F009F8DDF888
:1001900004E0DDE9022304B0524263EB43037047FD
:1001A0002DE9F047089E04468846002B4BD18A4231
:1001B000154667D9B2FA82F24AB1C2F1200701FAB4
:1001C00002F320FA07F7954047EA030894404FEA04
:1001D000154E230CB8FBFEF71FFA85FC0EFB1788A3
:1001E00043EA084307FB0CF1994209D9EB1807F1E0
:1001F000FF3080F01B81994240F21881023F2B446E
:100200005B1AA4B2B3FBFEF00EFB103344EA0344C6
:1002100000FB0CFCA44509D92C1900F1FF3380F038
:100220000781A44540F2048102382C4440EA07408B
:10023000A4EB0C0400271EB1D4400023C6E9004300
:100240003946BDE8F0878B4209D9002E00F0EB80DB
:100250000027C6E9000138463946BDE8F087B3FA01
:1002600083F7002F47D18B4202D3824200F2FA80FB
:10027000841A61EB030301209846002EE0D0C6E902
:100280000048DDE702B9FFDEB2FA82F2002A40F050
:100290008F80491B4FEA154E1FFA85F80127B1FBE5
:1002A000FEFC230C0EFB1C1143EA014308FB0CF17E
:1002B000994207D9EB180CF1FF3002D2994200F2B3
:1002C000CD808446591AA3B2B1FBFEF00EFB101488
:1002D00043EA044408FB00F8A04507D92C1900F1B3
:1002E000FF3302D2A04500F2B6801846A4EB080402
:1002F00040EA0C409FE7C7F1200CBB4022FA0CFEFD
:100300004EEA030E01FA07F420FA0CF521FA0CF379
:100310004FEA1E482543B3FBF8F92C0C08FB1933B0
:100320001FFA8EFA44EA034309FB0AF49C4202FADC
:1003300007F200FA07F10BD91EEB030309F1FF30B6
:1003400080F087809C4240F28480A9F102097344C6
:100350001B1BADB2B3FBF8F008FB103345EA0344B6
:1003600000FB0AFAA24508D91EEB040400F1FF3392
:100370006BD2A24569D90238744440EA0940A0FB17
:100380000289A4EB0A044C45C2464B4654D351D0D3
:10039000002E69D0B1EB0A0564EB030404FA0CFCEF
:1003A000FD40FC404CEA0505C6E90054002747E73C
:1003B000C2F1200320FA03F7954001FA02F021FA76
:1003C00003F34FEA154E3843010CB3FBFEF71FFA57
:1003D00085F80EFB173341EA034107FB08F38B4214
:1003E00004FA02F407D9691807F1FF3C2FD28B42B7
:1003F0002DD9023F2944CB1A81B2B3FBFEF00EFB8C
:10040000103341EA034100FB08F38B4207D9691816
:1004100000F1FF3C17D28B4215D902382944C91A82
:1004200040EA07473BE73746304609E70746E7E635
:100430001846FBE64145ABD2B8EB020A69EB0E0267
:1004400001381346A4E76046E9E7184695E7674692
:10045000D1E781467CE702382C4447E7ACF1020C37
:100460002B442FE7384608E73746E9E6704700BFD8
:100470000149024802F05BBA0C3400001E3400004F
:100480000B6801330B60014B1B681847F813002001
:100490002DE9F04F85B09B460E9CDFF88890012C2B
:1004A000B8BF0124012B0CBF3023202316468246FF
:1004B0008846029301250A270022B6FBF9F301932F
:1004C0000AB9B1451DD8019B414603F13000D04720
:1004D00001350122019B013F012F09FB13664FF0FB
:1004E0000A03B9FBF3F9E8D1414606F13000D047E1
:1004F000BBF1030F02D1641B002C0EDC05B0BDE87C
:10050000F08FBC42E6DBBBF1020FE3D84146029814
:1005100003920135D047039ADCE741462020D047BB
:10052000013CE9E700CA9A3B014B1860704700BFE5
:10053000F813002013B502AC002344F8043D024632
:100540000B460348214602F07CF802B010BD00BF04
:10055000810400004FF02003EFF3118283F3118830
:10056000BFF36F8F06490123C1F840354FF080413A
:10057000C1F8783582F31188BFF36F8F0020704780
:1005800000E001400A2838B50446074D04D1286828
:1005900043680D215B68984728684368E1B25B684F
:1005A0009847204638BD00BF0800002010B5044C15
:1005B000204600F08FFC2046BDE81040FFF7B4BF96
:1005C0008505000008B5044801F078F8034B186071
:1005D000FFF7ECFF002008BD3E34000008000020BB
:1005E000154B07B51A6882B14FF08042D2F8082344
:1005F000D1070AD500221A601B6810480093009B9F
:1006000083685B7A0BB902F04AFA0D4B1A6882B123
:100610004FF08042D2F8082392070AD500221A60D0
:100620001B680193019B074803B05DF804EB02F0DF
:1006300036BA03B05DF804FB00010040A4140020AA
:1006400004010040B01400200D4B0022C3F84021EB
:100650004FF02002EFF3118182F31188BFF36F8F07
:10066000084AD3F804051368C01A20F07F400344F9
:10067000136081F31188BFF36F8F01F09DBD00BF40
:10068000001001402400002073B51C4801F016F84A
:1006900080B343681A4D1B68002198470126002447
:1006A0004FF48033C5F80845C5F84065C5F80433F4
:1006B00003F1804303F58A534FF400321C601B683A
:1006C0000193019B0F4B3146C3F880211120224634
:1006D00000F0D0F9112000F0BDF90B4B1E602E6028
:1006E000D5F80435334423F07F43C5F84035204620
:1006F00002B070BD4FF0FF30FAE700BF4534000094
:100700000010014000E100E00810014070B5214EEA
:10071000B0F1FF3F08BF30464FF02003EFF31184E4
:1007200083F31188BFF36F8F1B491C4BD1F804254D
:100730001D68531B23F07F43013501382B4420EA09
:10074000E070B042D4BF18189819821A22F07F4284
:1007500020F07F43022AC1F8403504D984F3118880
:10076000BFF36F8F70BDD1F804350D4AC31A23F063
:100770007F435D1E954205D90A4B4FF40032C3F802
:100780000021EBE7012B02BF023020F07F40C1F8CF
:100790004005E3E7FEFFFF000010014024000020B9
:1007A000FEFF7F0000E100E04FF02002EFF3118335
:1007B00082F31188BFF36F8F064AD2F80405064A08
:1007C0001268801A20F07F4083F31188BFF36F8F87
:1007D000704700BF0010014024000020014801F0D4
:1007E00087BD00BF0833000008B530B143683BB196
:1007F000006801F04FF9002008BD6FF4E040FBE70E
:100800000048F9E7EA8FFFFF08B558B1436863B1C4
:1008100000684FF0FF3101F0CBF80028044808BF12
:10082000002008BD6FF4E040FBE70248F9E700BF95
:10083000E98FFFFFEA8FFFFF38B5044618B90B4B6D
:100840000B485B689847656855B115F0020520684C
:1008500007D10146074801F07DF825600023636059
:1008600038BD1422002102F08BF9F7E73414002080
:10087000633400002800002010B5044618B9134B5B
:1008800013485B6898476368BBB92368ABB94FF0FE
:10089000FF3221460F4801F02FF808B923681BB931
:1008A0000A4B0D485B68984714220021206802F02B
:1008B00067F9636843F002036360206802F0CCFAD2
:1008C000636843F00103636010BD00BF341400206F
:1008D00063340000280000208934000008B5064970
:1008E00006484023142202F0A5FA05490548BDE850
:1008F000084001F039BD00BF44000020280000205E
:10090000203300001033000004488168406A8842A8
:1009100003D003494FF080520A6070475C06002004
:1009200004ED00E012498A684FF028001044EFF30C
:10093000098C80E8F01F202080F31188BFF36F8FAF
:100940000C4F4FF000664A6A8A603E60506E00238A
:10095000536680F3118804B5104602F0CFF8BDE865
:10096000044002F1280090E8F01F8CF309887047DA
:100970005C06002004ED00E01EF0040F0CBFEFF356
:100980000880EFF30980816911F8021C0229FFD069
:1009900001B502F0A8F801BD014910220A607047B4
:1009A00010ED00E0404080F3118830BF704700BF79
:1009B000404080F31188DFF81CC0DCF800C01CF454
:1009C000006C0CBFEFF30880EFF3098001B500F075
:1009D0002DF901BD04ED00E030BFFFF7FDBF00BF02
:1009E00001B572B60B4A106A00281EBF00211162C1
:1009F00002F01EFA62B6EFF30580A0F110004FEA94
:100A0000C0000549014409C99847BDE801400349B0
:100A1000084700005C060020AC3000000909000017
:100A2000094A0A49936809689966094958664B68F2
:100A300043F080534B60002383F31188BFF36F8F23
:100A40009368986E704700BF5C06002088330000F2
:100A500000ED00E043B2002B08DB012200F01F0094
:100A600002FA00F05B09024A42F82300704700BF17
:100A700000E100E043B2002BA8BF03F1604301F1A5
:100A800001014FEA4111AEBF03F5614300F00F00D1
:100A9000034BC9B2ACBF83F800131954704700BFB1
:100AA00014ED00E02DE9F0418C18884617461E46EB
:100AB00004220A9B0999054602F0ABFAA4F120032F
:100AC0000C4923F00703002221F00101C5E913229C
:100AD000C5E916879961069959600799996008993F
:100AE000D9604FF080711E60D961AB646A66BDE861
:100AF000F08100BF0F260000F8B505460C461746EA
:100B00001E4600F017F90B4B3C4428469D6024F02C
:100B1000070401F0F3FF304684F3098863B64FF011
:100B2000000181F31188BFF36F8F002100220023A1
:100B300001F06DFD5C06002008B5084B084A23F063
:100B40007F039360BFF34F8FBFF36F8F00F0F6FD0D
:100B500000F0FEFD00F0BCF800F02CFE00000000EC
:100B600000ED00E001F0F1FE202080F3118808483C
:100B70004FF40061401880F30988EFF314800221DC
:100B8000084380F31488BFF36F8FFFF7D5FF000091
:100B9000F80B00200C4B9A6A9A6A9A6A920708D559
:100BA0005A6B9A6A120604D518B19A6A22F080022A
:100BB0009A629A6A9A6A9A6A9A6A002042F0FF02D6
:100BC0009A620870704700BF00ED00E00D4B9A6A12
:100BD0009A6A9A6A920508D59A6B9A6A120404D5A1
:100BE00018B19A6A22F400429A629A6A9A6AD20505
:100BF000044A58BF9B6A936A002043F47F43936280
:100C00000870704700ED00E0074B9A6A9A6A9A6A8A
:100C10009A6A9A6A9A6A9A6A6FEA02426FEA12427A
:100C20009A620020704700BF00ED00E0204A13B533
:100C30005368C3F308030021033B04468DF80710F3
:100C4000032B33D8DFE803F0022A2E27D36A9B0751
:100C50002CD4D06A10F0804007D0164B1B7863B1BB
:100C60000DF107010120FFF795FF9DF8073013B93B
:100C7000214601F036FF02B010BD0F4B1B782BB19F
:100C80000DF107010120FFF7A1FFEEE70B4B1888DC
:100C900080B20028E9D0FFF7B7FFE6E70DF10701C2
:100CA0000020E0E70DF107010020ECE70020DCE781
:100CB00000ED00E028ED00E029ED00E02AED00E085
:100CC000024A536943F010035361704700ED00E09E
:100CD000044800232021C2180133302B82F800136E
:100CE000F9D1704700E100E038B505464FF0200328
:100CF000EFF3118483F31188BFF36F8F02F06AF969
:100D00000A4B9B68AB420BD1094B5A68C2F30802ED
:100D100012B92046FFF784FE5A6842F080525A60AA
:100D20002046BDE8384002F0CEB800BF5C06002087
:100D300000ED00E01FB5094B0193094B029304A895
:100D4000084B039301AB40F8103D074A074B0121C4
:100D500000F076F805B05DF804FB00BF000000204D
:100D60000000000000000B0600000020000004202E
:100D700030B5D1E90043202B896817D9B3F1004F72
:100D800016D8013BB3FA83F3C3F11F035B000728B6
:100D900041F001020ED8094D24F01F0140F010046B
:100DA00021431343A860E9602B6130BD0823EEE7BF
:100DB0003E23ECE76FF01500F7E700BF90ED00E091
:100DC000034B05225A60BFF34F8FBFF36F8F7047FD
:100DD00090ED00E0BFF35F8F014B00225A60704737
:100DE00090ED00E013490868082810B51ED8FFF7F9
:100DF000F1FF114C49680022904201F10C0105D12C
:100E00000E4B1870FFF7DCFF002010BDA26051F8F8
:100E10000C3C23F01F0343F010031343E36051F82D
:100E2000043C43F0010323610132E5E74FF0FF305A
:100E3000EBE700BFBC32000090ED00E0B4060020FC
:100E4000F8B5104C074620780E460025B54208DA62
:100E500057F825104B6893B15A1E134203D06FF018
:100E600015002070F8BD1F2BF9D90B681A42F6D176
:100E7000C0B2FFF77DFF10F1160FF0D00130013541
:100E8000E4E700BFB406002070B5104B06461878A2
:100E90000D460024AC4207DB10F1160F03D00C4BBB
:100EA000002207280DDD70BD56F824104B6833B1C1
:100EB000C0B2FFF75DFF10F1160FF4D0013001341E
:100EC000E8E798601A610130EBE700BFB406002044
:100ED00090ED00E0014B1860704700BF1C1400202B
:100EE00008B5094B1A786AB9012119700620052145
:100EF000FFF7C0FD0620FFF7ADFD044B4FF00042A9
:100F0000C3F80423002008BDB5060020006000409F
:100F10001F288ABF094B4FF0A04300F01F0003EBCE
:100F20008000D0F8003723F44033C0F80037D0F801
:100F3000003743EA0141C0F8001770470003005032
:100F4000F7B5036886689B6801F01F040D464C499D
:100F50001B79D1F8042344EA4314D2B2002303F5E9
:100F6000A27051F82000C0F3052084426CD122FA0F
:100F700003F0C00768D59A0002F1804202F5C04232
:100F8000D2F8100520F00100C2F81005012202FA83
:100F900003F3C1F8083320460021FFF7B9FFB0681A
:100FA000E84010F001004DD0F068E84010F001007A
:100FB00048D07069E84010F0010251D0B369EB40AD
:100FC000DB0745D43369F269EB4022FA05F503F0FB
:100FD000010305F00105AB420CBF02250125284F96
:100FE000002101F5A27357F8230010F0030031D15E
:100FF0008A0002F1804303F5C0432402D3F8106550
:1010000026F44F3626F44076C3F81065D3F8106501
:1010100004F47C5402F1804202F5C24244EA0545E0
:101020003543C3F81055106012680192019AD3F845
:10103000102542F00102C3F81025012303FA01F143
:10104000C7F8041303B0F0BD0133082B87D1A2E722
:101050000325C4E701310829C3D16FF01200F1E77D
:10106000F16933694B4023FA05F515F0010F20466D
:101070000CBF03210221FFF74BFF1046E2E700BF40
:10108000006000402DE9F84F0746856803F4704082
:10109000B0F5804F1E4647D02ADCB0F5805F3BD0CC
:1010A000B0F5405F3CD050BB06F44078B8F5807F87
:1010B0003CD0A8F500746342634106F0010C4FEA8E
:1010C0004C08012948EA0C0818BFD4B248EA0020AD
:1010D000DFF8D4A012BFA1464FF01F09002440EA58
:1010E00083084FF0010BA14522D20020BDE8F88F04
:1010F000B0F5E04F16D005DCB0F5A04F0ED06FF084
:101100001500F3E7B0F5404F04D0B0F5504FF6D1DD
:101110000720C9E70620C7E70120C5E70320C3E78A
:101120000420C1E70520BFE70220BDE70323C4E791
:101130003B689B681A7904F01F0343EA42131F2B94
:10114000C6BF03F01F0352464FF0A04203F5E07301
:10115000B10742F82380AB680BFA04F24CBF13438B
:101160009343AB606B69B0064CBF134393436B6111
:10117000AB6971064CBF13439343AB612B69700796
:101180004CBF134393432B61EB6931064CBF1A43A9
:1011900023EA0202EA6121463846FFF7D1FE002821
:1011A000A4D10134E4B29EE700030050F0B500265C
:1011B00085B0CDE90266294D2C68012C0BD1284859
:1011C00001F078FD0290274801F074FD03902E6035
:1011D0002B680093009B244E002301279C46D6F8E1
:1011E000042307FA03F111421ED003F1805202F5E5
:1011F000C25292001168012916D103F5A2700DF1B7
:10120000100E56F82050C2F800C0C5F340300EEB67
:101210008000C5F30425A940126850F8085C0192CB
:101220002943019A40F8081C0133082BD7D10299B1
:1012300011B10B4801F029FD039911B1094801F0E2
:1012400024FD012C08D1064801F05DFD054805B0DC
:10125000BDE8F04001F057BD05B0F0BD7C61004035
:10126000E0140020EC14002000600040034B1868DC
:1012700018B1D3F85C03C3F85C0370472421004025
:1012800070B54B79012B26D0032B21D101268B7908
:10129000032B1DD1CD792DB1012D19D103689B6888
:1012A0001B78ABB10A7912B1022A11D10E220B6858
:1012B00047F61224A34275D029D8B3F5965F6AD0B9
:1012C00014D8B3F5167F4ED007D8B3F5967F79D0F2
:1012D0006FF022005BE00026D9E7B3F5966F57D098
:1012E000B3F5166FF4D14FF41D233EE0B3F5615F03
:1012F00053D004D8B3F5165FEAD1344B35E0B3F5DB
:10130000964F4DD0B3F5E14FE2D1314B2DE0B3F51F
:10131000E13F4FD011D84DF6C024A34245D004D8A8
:10132000B3F5164FD4D12B4B1FE0B3F5614F3FD02F
:10133000B3F5963FCCD1284B17E0B3F5E12F3DD064
:1013400008D8B3F5613F37D0244CA342C0D14FF049
:1013500080630AE0B3F5612F32D0214CA342B7D1AC
:101360004FF0805301E04FF41C331E4C2A43C4F865
:101370002435C4F86C252EB1D4F86C3543F0100335
:10138000C4F86C35836803C983E80300002070BD8E
:101390004FF49E23E9E7144BE7E74FF46C13E4E7BF
:1013A000124BE2E74FF40003DFE74FF46503DCE79D
:1013B0000F4BDAE70F4BD8E70F4BD6E70F4BD4E7CD
:1013C0000F4BD2E74FF4A033CFE700BF0050270008
:1013D00000F0750000509D0000903A0190D003008D
:1013E00040420F000020004000B0130000A04E005B
:1013F00000F0EB0000E0D70100B0AF0300705F0722
:1014000000D0BE0E084B1A6882B052B1002018609E
:101410001B680193019B054BD3F818350B7002B084
:1014200070474FF0FF30FAE70821004000200040ED
:10143000094B00221A6082B01A680192019A074A89
:1014400001201060C2F814151A68002AFCD0044B61
:1014500001221A6002B070471C21004008200040A1
:101460000C2000404FF0A04337B5164C4022C3F883
:101470000825032100220825C3F81817C3F82027E0
:10148000C4F814550625C4F80C552025C3F8085592
:10149000C3F81417C3F81C270523C4F8083507231D
:1014A000C4F810358168FFF7EBFE48B90423C4F88F
:1014B0000035054B18601B680193019B01232360D5
:1014C00003B030BD0020004008210040054B1B68E0
:1014D000082B01BF044B1868B0FA80F0400918BF10
:1014E00000207047300100103401001008B54FF0A3
:1014F00080430022C3F80C21C3F81021C3F838251B
:101500004FF0805203F54043D2F80414C3F820157D
:10151000D2F80814C3F82415D2F80C14C3F828150F
:10152000D2F81014C3F82C15D2F81414C3F83015DF
:10153000D2F81814C3F83415D2F81C14C3F84015A7
:10154000D2F82014C3F84415D2F82414C3F848156F
:10155000D2F82814C3F84C15D2F82C14C3F850153F
:10156000D2F83014C3F85415D2F83414C3F8601507
:10157000D2F83814C3F86415D2F83C14C3F86815CF
:10158000D2F84014C3F86C15D2F84424C3F870257F
:10159000FFF79CFF10B1334B334A1A60FFF796FFF9
:1015A00018B1324BFB22C3F81825FFF78FFF48B163
:1015B0002F49304B0A681B6822F00F0203F00F031B
:1015C00013430B60FFF782FF18B12B4B4FF40072EF
:1015D0001A604FF08043D3F80024D20744BF6FF065
:1015E0000102C3F800244FF01023D3F80022002A90
:1015F00003DBD3F80432002B2FDA204B0122C3F88F
:101600000425D3F80024002AFBD04FF01022122129
:10161000C2F80012D3F80024002AFBD04FF01023A8
:101620001222C3F80422154B1A46D3F800140029DD
:10163000FBD00021C3F80415D2F80034002BFBD0F6
:10164000BFF34F8F0E490F4BCA6802F4E062134399
:10165000CB60BFF34F8F00BFFDE70B4B0B4A1A6007
:1016600008BD00BF8C5600404881030000F00040D8
:10167000E40E0040580200104096024000E0014095
:1016800000ED00E00400FA05281400200090D003CB
:10169000094B70B553F820400130002653F8205014
:1016A000A54200D870BD236820465B68984700B10A
:1016B00066600C34F4E700BF74330000104B70B563
:1016C000104C05461E469C4204D10E4CB44209D132
:1016D000002412E062681AB122681268AA420CD093
:1016E0000C34F0E763680BB90C34EFE72368284645
:1016F000196801F00BFA0028F6D1204670BD00BF32
:10170000041500207414002008B50B4D4FF0200282
:10171000EFF3118382F31188BFF36F8F01F097FC11
:10172000012102280446D8BF084601F0A0FC2C6223
:10173000FFF738F9EAE700BF5C0600200248034AD9
:101740000021121A01F01CBA00000020B806002087
:1017500008B50648064A0749121A01F0E4F9064A94
:1017600006490748BDE8084001F0DDB9F81300203C
:101770006815002010350000000000001035000042
:101780000000002008B50220FFF782FF074801F0A3
:10179000CEF80320FFF77CFF00F034FCFEF768FE74
:1017A000034A137B23F00103137308BDD0340000F8
:1017B000F005002080B5364BA2B083F30888354C85
:1017C000354E636943F4007363610025E02384F8B8
:1017D0002230E57725766576A576636A43F4E023C3
:1017E0006362FFF76DFAFFF7D7F84FF0FF33A3629C
:1017F000E36207AB6C222946184601F0C1F9274C79
:101800000127A06028468DF82970FFF741FF384670
:10181000FFF73EFF00F0A6FB214B66624FF48062AB
:10182000CDE90473CDE902551E4B1F49CDE90055A2
:10183000304600F0CDFB737B23F0040213F01B0F46
:10184000727304D1B36913B9304600F01BFA174B19
:10185000174D059301220F23CDE903320023CDE973
:10186000013300934FF4A072124B1349284600F045
:10187000AFFB6B7BE56023F004036B730F4B0A49EE
:101880000548C4E906334FF48062064BFFF734F98C
:10189000F813002000ED00E0F00500205C060020B9
:1018A0000635000085170000B80600200B35000043
:1018B0008405002009170000B80A002074060020E3
:1018C0000B4B0C4870B50024834201D3002070BD3F
:1018D0001A699D685C610021A94201D11C33F3E7BC
:1018E0005E691660DE685A6101313244F4E700BF78
:1018F000041500200415002010B513460C464FF0C7
:101900002002EFF3118182F31188BFF36F8F4269D8
:1019100062B1226043691B6843618369013383615B
:10192000002081F31188BFF36F8F0DE01BB9236096
:101930006FF00B00F5E70246044800F0BDFA18B955
:10194000034B9B685B69236010BD00BFB606002097
:101950005C06002070B504460D464FF02003EFF3FF
:10196000118683F31188BFF36F8F01F0FDFA80B108
:101970002A684261427B0021D206816603D18369D5
:101980000BB900F07FF931460848BDE8704001F01E
:101990008BBA2B6862691A602B686361A369013B8B
:1019A000A36186F31188BFF36F8F70BDB606002068
:1019B000F8B504460F464FF02003EFF3118583F38B
:1019C0001188BFF36F8FC26830495AB180688E6842
:1019D000B04215D0B7B985F31188BFF36F8F6FF0A0
:1019E0000F000CE08B6893F90E30236101328B6895
:1019F000E260A36085F31188BFF36F8F0020F8BD0C
:101A00002369F2E790F90E3096F90E109942A8BFBB
:101A1000194621EAE17199422BDA00F061FA064693
:101A20003B46224629461A4800F046FA0028E6D0EE
:101A30004FF02003EFF3118583F31188BFF36F8F0D
:101A4000236821699C4207D033B193F90E30994243
:101A5000A8BF194621EAE171A06890F90E309942B9
:101A600009D16EB129460A4801F01EFA6FF00A004A
:101A7000C5E70026D4E700F033FA0028F2D1F0E7FA
:101A800085F31188BFF36F8FF0E700BF5C0600207D
:101A9000B60600201E4B9A68D37B013B70B5044606
:101AA000D373C368012B05D0013BC360BDE8704010
:101AB00000F0CCB84FF02003EFF3118683F31188C8
:101AC000BFF36F8F0169806890F90E30994201D0A1
:101AD00000F006FA204601F047FA0546A06080B102
:101AE000437BDB0603D183690BB900F0CBF886F3A7
:101AF0001188BFF36F8F0023AB6695F90E30236119
:101B0000D4E7E06086F31188BFF36F8FCEE700BFA4
:101B10005C060020EFF305800D2809D828B1054B9D
:101B2000586880F40060C0F3C02080F00100704766
:101B30000120FAE700ED00E010B5084C23685BB126
:101B4000FEF732FE2368064A184410610021184649
:101B5000BDE8104001F08BBA10BD00BF9406002014
:101B60005C060020F8B50D464FF02003EFF311841A
:101B700083F31188BFF36F8F0D4B4FF4004140F298
:101B8000E7360027C1FB006700221A6130464FF498
:101B90007A7200233946FEF7B3FA064B1860064BFB
:101BA0001D60FFF7C9FF84F31188BFF36F8FF8BD85
:101BB0005C06002094060020900600204FF02003D1
:101BC000EFF3118183F31188BFF36F8F044B9A6891
:101BD000D37B013BD37381F31188BFF36F8F7047C1
:101BE0005C060020094B03F12802824205D19B6864
:101BF0008B4202D14B7BDB0607D1D1E900231A606F
:101C00000A6853600023C1E9003370475C06002076
:101C100038B50D4C024604F1280001F06EF9054676
:101C200000B9E568A3684AB95A7BD20606D1AA6909
:101C300022B9DA897F2A01D9636238BD9D4201D079
:101C4000FFF77AFF6562F8E75C06002010B54FF0F9
:101C50002003EFF3118483F31188BFF36F8F084BD8
:101C60009A68D37B0133D3730020FFF7D1FF84F34D
:101C70001188BFF36F8FBDE8104001F034B900BF89
:101C80005C060020F8B54FF02003EFF3118483F3D6
:101C90001188BFF36F8F164A114651F8283F8B42C7
:101CA0000CD05BB1D66A90F90E5093F90E70AF422A
:101CB0000BDCB34202D01B68002BF6D1D36A436021
:101CC000D36A01601860D06205E05A68C0E900324A
:101CD0005A6810605860437B43F040034373002010
:101CE000FFF796FF84F31188BFF36F8FF8BD00BF35
:101CF0005C060020F8B504464FF02003EFF3118591
:101D000083F31188BFF36F8F437B5A0603D50146D7
:101D10001848FFF767FF184AD2E90A3002F1280194
:101D20008B420BD053B194F90E6093F90E70B74209
:101D30000ADC834202D01B68002BF6D1C4E90010F4
:101D4000D36A1C60D46205E05968C4E9003159685F
:101D50000C605C60637B906843F040036373031B1B
:101D600058425841FFF754FF85F31188BFF36F8F36
:101D7000F8BD00BF840600205C060020154A164905
:101D800038B50C689368A342144603D1BDE83840C7
:101D9000FFF7D2BE00250D6010490968B9B1D98995
:101DA0007F2914D80E4993F90E5009688D420EDB35
:101DB0000C498B420BD0996949B91169814203DC06
:101DC0001846FFF797FFE1E7091A116138BD0023B4
:101DD0002361FBE75C0600208C06002094060020AF
:101DE000900600208405002038B504464FF02003FB
:101DF000EFF3118583F31188BFF36F8F437B5A068E
:101E000007D501460948FFF7EDFE637B23F0400349
:101E10006373074B9868031B58425841FFF7F8FE5D
:101E200085F31188BFF36F8F38BD00BF8406002093
:101E30005C06002070B504460D461646FFF7D4FF39
:101E4000637B43F002036373EDB12B68A5609D4291
:101E50000CD05BB194F90E2093F90E1091420CDC7A
:101E600069688B4202D01B68002BF5D16B686360F8
:101E70006B6825601C606C6005E05A68C4E900323C
:101E80005A6814605C60731C13D04FF4004540F234
:101E9000E73000214FF47A72C5FB06010023FEF7FC
:101EA0002FF90449421C04F11800BDE8704000F00D
:101EB0003FB970BD072F000010B50C461146064A09
:101EC0009068064A10601A46FFF7B4FF2046BDE846
:101ED0001040FEF7A5BD00BF5C0600208C06002068
:101EE0002DE9F84304464FF02003EFF3118983F303
:101EF0001188BFF36F8F00F0B5FF4EB2804668B314
:101F0000174D05F1280721463846FFF76BFEAB6AEF
:101F1000A673BB422A460AD04BB1E96A93F90E0078
:101F2000B0420BDC994202D01B68002BF6D1D36A79
:101F30006360D36A27601C60D46205E05A68C4E914
:101F400000325A6814605C600120FFF761FE89F37B
:101F50001188BFF36F8F4046BDE8F883A673F6E79C
:101F60005C060020044B002103F12802C3E90A2289
:101F70000846FFF7F7BD00BF5C060020014B9868DC
:101F8000704700BF5C06002010B502464FF02003EA
:101F9000EFF3118483F31188BFF36F8F437B5907ED
:101FA00004D484F31188BFF36F8F10BD23F00403B2
:101FB000437301F006F810B11046FFF763FE2146A7
:101FC0000248BDE8104000F06FBF00BFB606002019
:101FD00030B587B004460E9D04950D9D03950C9D6C
:101FE00002950B9D01950A9D0095FEF75BFD044B44
:101FF0009B6813B9236607B030BD1B6EFAE700BFBC
:102000005C0600202DE9F04F284E294D87B0B046E0
:10201000B54205F1300410D3FFF7D0FD244CDFF8B2
:1020200094A04FF4004940F2E7360027444521D3FD
:1020300007B0BDE8F04FFFF709BE54F8043C059324
:1020400054F8103C049354F8143C039354F8183C8F
:10205000029354F81C3C019354F8203C009354E93B
:102060000A2354E90C01FFF7B3FF54F8303CDD6458
:102070002546CDE7616A4B1C04D0256821B9284666
:10208000FFF782FF3034D1E7B346BC46C9FB01BC41
:102090004FF47A72002358466146FEF731F85146F4
:1020A000421C05F1180000F043F8EBE7041500208E
:1020B00004150020072F0000034B1B680BB9FEF727
:1020C00073BB0020704700BF98060020036840B132
:1020D000084A5268904204D01BB19A6881680A4449
:1020E0009A604268136003685A600023C0E90033B5
:1020F000704700BF2C1400200B4B10B51C689C428D
:1021000008BF0024FFF7D8FF54B1A368181A20EACB
:10211000E070064B1B6913B19842A8BF184610BD6A
:102120006FF00040F5E700BF2C1400205C06002093
:1021300070B504461646C1604FF02003EFF31185D9
:1021400083F31188BFF36F8FFFF7B6FF194B1A683F
:10215000012EACBF801901309A42A06001D05E68A8
:1021600032B95A6862605A68236014605C600BE0A0
:102170009068A168884216DD411A91605168C4E9EF
:10218000002151680C6054601A689A4206D094424B
:1021900004D1FFF7B1FF0021FEF7B8FA85F31188EB
:1021A000BFF36F8F70BD091A9642A160D9D0126833
:1021B000D6E700BF2C1400202DE9F04B0446FFF7B2
:1021C000DDFD4FF02003EFF3118583F31188BFF39A
:1021D0006F8F214E214FDFF888903460B846D9F8D0
:1021E000004032684C45D7E900BC05D024B1A36853
:1021F000934214DD9B1AA3601BEB02004CEBE271CF
:102200000024C8E900013460FFF776FF2146FEF79D
:102210007DFA85F31188BFF36F8FBDE8F08B1BEB60
:1022200003004CEBE371D31A33600023C7E90001CC
:10223000A3602046FFF74AFF85F31188BFF36F8F35
:10224000E36898474FF02003EFF3118583F311887B
:10225000BFF36F8FC3E700BF980600200000002087
:102260002C14002038B5074C074DAC4201D3002098
:1022700038BD04F114032046C4E9053300F07CF9AD
:102280001C34F2E7041500200415002010B5094C99
:1022900023681BB101232360002010BD00F080F8EB
:1022A0000028F7D00138062896BF034B034853F89F
:1022B000200010BD9C0600208C330000FE8FFFFF25
:1022C000BFF34F8F0549064BCA6802F4E06213431F
:1022D000CB60BFF34F8F00BFFDE700BF00ED00E014
:1022E0000400FA05014B5B68184700BF3414002056
:1022F000D0E90012014BC3E90012704734140020EA
:10230000704700BF10B5044620B1BFF35F8F0020B7
:10231000206010BD0348FFF7E5FFBFF35F8F00208B
:10232000206010BDCC33000010B5044610B100236E
:10233000236010BD0248FFF7D5FF0023236010BDC6
:10234000A833000070B10122BFF35B8F50E8003F5B
:1023500040E800210029F9D1BFF35B8F012BF3D0B6
:10236000BFF35F8F0020704770B4D0E90065D0E9FB
:102370000242094BC3E90242C3E90065D1E90240C8
:10238000D1E90065054B0A691A61C3E90065C3E933
:10239000024070BC704700BF3C1400204C14002069
:1023A00010B500F033F870B900F034F880B900F0DF
:1023B000AFF880B9114B1B681B0EF02B0DD0062413
:1023C00000F026F800E0032400F052F8204610BD8B
:1023D0000424204610BD0024F2E7094A094B126884
:1023E0009A4201D00724EBE7012000F091F8002881
:1023F000F1D1054B04461860E8E700BF28B9025048
:1024000024BA02500000E0200CBA025000207047AD
:102410000020704710B5114800F048F800B110BD19
:102420000F4800F043F80028F9D10E4C204600F088
:102430003DF80028F3D10C4B0C481C6000F036F836
:1024400001460028EBD100F02DF8044608B12046E3
:1024500010BD00F03FF82046FAE700BF6C140020E2
:102460006014002068140020701400206414002000
:1024700008B5084800F024F8074800F021F807489C
:1024800000F01EF8064800F01BF8BDE8084000F018
:102490000BB800BF6C1400206014002068140020EA
:1024A0006414002000207047704700BF08B5034B3C
:1024B00002681B6810689847002008BD3C14002083
:1024C00008B5034B02685B6810689847002008BD98
:1024D0003C14002070B5094C094D2069AB68984741
:1024E00018B1084B08485B689847084AEB682069B0
:1024F00000211160BDE87040184700BF4C14002057
:102500003C14002034140020EC330000B0060020FE
:1025100070B5144C144D0646AB6820699847F0B965
:10252000124A13685EB91BB911490120C1F80005B0
:1025300001331360EB6820699847002070BD002BC1
:10254000F8D0012B08BF0A4903F1FF3308BFC1F8D7
:10255000000520691360EB6898470020EEE7054806
:1025600070BD00BF4C1400203C140020B0060020B9
:1025700000A00250E98FFFFF2DE9F74F456807895A
:102580000468FF2305FB07FCC372837A019364444C
:10259000294600224FF00C0A4FF0200B019B93427A
:1025A00008DC002319468F4205EB030C20DC03B046
:1025B000BDE8F08FD0F80C80BCFBF1F30AFB02FE03
:1025C000202B08EB0E0688BF1F3306F104094FEAE3
:1025D0009101C6E901998ABF93FBFBF3C27248F8E7
:1025E0000E4021F0030188BF04EB83040132D5E7DC
:1025F000C268066802F1040EF41846F803E0936816
:102600006360936801311C6094606346CBE70446C5
:1026100008B5084611461A46A047FFF7AFFCFEF77B
:1026200063FB0020704770B504460D464520A04767
:1026300029465220A047294623465220BDE8704033
:1026400018472DE9F04F002789B005460E469246FF
:102650001C464FF0FF39B846BB469AF8000010B947
:1026600009B0BDE8F08FBBF1000F07D1252800F0BD
:102670004E813146A8470AF1010AEEE7642868D086
:102680001AD839280BD831285AD22D2800F0468183
:10269000302846D0252808D13146A8477AE0582866
:1026A00000F0B480632800F02C8131462520A84733
:1026B00031469AF80000F0E7702800F09D800DD8B0
:1026C000692846D06C2803D16C2F26D14C27D2E73D
:1026D0006828EAD1682F20D14827CCE7752870D028
:1026E00017D87328E1D1226804F1040B11460C4677
:1026F00014F8010B002840F0F980B8F1030F40F006
:1027000013818C1AA9EB0404002C00F3F5805C46BD
:1027100040E078287AD07A28C7D1002FC5D1074663
:10272000A9E7B9F1000F0EDAB8F1000F00F0F98057
:10273000A0F13009B8F1000F08BF4FF002089AE786
:10274000B9F1000FF4DB0A2202FB0909A9F13009F3
:10275000F0E77A2F03D1D4F800B004341EE06C2FD8
:10276000F9D04C2FF7D1073424F0070303F1080404
:10277000D3E9002312F1004043F100014FF0000CB7
:102780004FF0FF3B8C4508BF834506D231462846B3
:10279000FFF749FF4FF0000B6DE79346BBF1000FC9
:1027A00006DA31462D20A847CBF1000B09F1FF399D
:1027B000CDF8009043465A4631462846FDF768FE5C
:1027C000E8E77A2F02D12268043411E06C2FFAD0A6
:1027D0004C2FF8D1073424F0070303F10804D3E9A0
:1027E000002300214FF0FF30994208BF9042CDD323
:1027F000CDF800904346DFE731463020A847314608
:102800007820A8474FF008094FF001089AF80020F7
:10281000702A05D1236804930023029304340CE04A
:102820006C2FF7D04C2FF5D1073424F0070202F1BA
:1028300008041368049353680293002203920592DC
:1028400010234022043A02990498C2F1200CA2F10C
:10285000200ED04001FA0CFC40EA0C0021FA0EFEDA
:1028600040EA0E0010F00F0008D1059901B942BBF3
:102870004FF0300C08E0CDF814B0E3E709288CBF26
:102880004FF0570C4FF0300C31466044CDE9052332
:10289000A847039B01330393DDE90523002AEAD10E
:1028A000B8F1030F7FF476AF039BC3EB490BBBF189
:1028B000000F7FF76FAF31462020A8470BF1FF3B99
:1028C000F5E7591E9945069107DBB8F1010F06D1CE
:1028D000079231463020A847079A069BB2E7B8F125
:1028E000020FFAD1079231462020F4E731460292D6
:1028F000A8472146029AFAE631462020A847013C23
:1029000002E73146206804F1040BA847FFE65F4662
:10291000D8464FF0FF394FF0010BACE64FF00308FB
:10292000A9E64FF00108A6E65C468346A3E60FB48D
:1029300007B504A951F8040B0191FDF7FBFD03B0A5
:102940005DF804EB04B070477047FEF7CFBD8368B5
:102950005A7A32B993F908000028CCBF0020012030
:10296000704702207047026873B5956884684FF01D
:102970002003EFF3118683F31188BFF36F8F237A5F
:10298000013B5BB2002B23721CD1C4E900336B689E
:10299000A3B9EB7A03F1804301221A602B8903F17A
:1029A000804300221A601B680193019B0020607223
:1029B00086F31188BFF36F8F02B070BD984700286F
:1029C000E7D1F3E74FF00000BCBF20726FF0440086
:1029D000EEE7F8B5036885689F68064614464FF031
:1029E0002003EFF3118283F31188BFF36F8F2B7AEB
:1029F00001335BB22B7282F31188BFF36F8F6A7A57
:102A000032B10CB90020F8BDD4E901319847F9E79B
:102A1000012B06D13B6833B9BB7A03F18043012215
:102A20001A604CB9EEE798470028F5D1002CE9D0A0
:102A3000D4E90131304698472B689C420DD013B140
:102A40001B68002BF9D1002020606B6813B9C5E921
:102A50000044D7E71C606C60D5E76FF04400D2E714
:102A60000022FFF7B6BF83680020C3E9000070476B
:102A7000002210B5012104461046FDF7FBFF00209F
:102A8000FDF7E8FF4FF080430122C3F81825032229
:102A9000C3F80423A3680020C3E9000010BD38B5C3
:102AA0008468236805462BB161681A6822608B42EE
:102AB00008BF62600122627203B938BDD3E9012107
:102AC000284690472368002BF7D061681A68226077
:102AD0008B4208BF6260EFE770477047FEE7FDF783
:102AE00067BF00F096B90146006800F092B908B5DA
:102AF000FDF772FFBDE80840FDF706BF07B50021EE
:102B000001A8FEF7C1F903B05DF804FB01380139F3
:102B100010F8013F11F8012F934202D1002BF7D199
:102B20001A46981A7047F0B581EA0004A5070346D3
:102B30000BD0013B0A4491421DD1F0BD002AFCD0CC
:102B400011F8014B03F8014B013A9C07F6D11D1F08
:102B50000C468F183E1B032E08D894086FF003050F
:102B600005FB0422A40023442144E2E754F8046B4B
:102B700045F8046FEEE711F8014B03F8014FDAE76F
:102B8000F0B5C9B203469C070FD141EA012444EADB
:102B900004441D469F187E1B032E0CD8940803EB9B
:102BA000840413449C4209D1F0BD002AFCD003F8F0
:102BB000011B013AE7E745F8044BECE704F8011B79
:102BC000F0E74FF0FF30704710B504688068A468E4
:102BD000C0692468012904D15840C4F804050020C4
:102BE00010BD003320FA02F04FF0010118BF01239D
:102BF00000F001009140834214BFC4F80815C4F8E6
:102C00000C15ECE770B504688068A468C069256895
:102C1000D5F81465D5F81045D5F8045560406C40DA
:102C20003440604001291CBFD04000F00100186012
:102C3000002070BD8368186830B558B10024814207
:102C400013D108685CB95C681860A14200D1586073
:102C50000020086072B9002030BD2846EFE72060F0
:102C60005868814208BF5C60F2E705680446002DA1
:102C7000F3D13AB11A680A60586819600028EAD19D
:102C80005960E9E76FF01500E6E7F8B585680F468B
:102C90002968064669B10C68EB688A683B401342B4
:102CA00003D04B683A463046984714B12146246811
:102CB000F2E7F8BDF8B5026883689768DC69D3E984
:102CC00002120A40D3E90510014322EA01023968E1
:102CD0001B69D1F810155C404C4022EA0404012520
:102CE00000260AB92046F8BD2A4209D03B7906F0F1
:102CF0001F00002140EA4310FEF70AF922EA05020C
:102D000001366D00EDE7F8B5846803689D68D4E985
:102D100002321A40D4E905310B4322EA03020127AB
:102D2000002602B9F8BD174212D0E169236995F86F
:102D300004C04B40F34013F0010F06F01F0014BF16
:102D40000221032140EA4C10FEF7E2F822EA0702D2
:102D500001367F00E5E701292DE9F04118BFD4B223
:102D60008768064612BF25461F2500244FF001083C
:102D7000AC4202D90020BDE8F081FB6808FA04F2F9
:102D800023EA0203FB6021463046FEF7D9F800280B
:102D9000F1D10134E4B2EBE701292DE9F04118BF8C
:102DA000D4B28768064612BF25461F2500244FF07F
:102DB0000108AC4202D90020BDE8F081FB6808FAA6
:102DC00004F21343FB6021463046FEF7B9F80028B1
:102DD000F2D10134E4B2ECE782680B4692E80300DA
:102DE00083E803000020704708B5FDF7F7FCFDF706
:102DF00075FDBDE80840FFF749BA4FF02002EFF338
:102E0000118382F31188BFF36F8FFEE708B5FFF7D8
:102E1000F4FF70B505460E46FFF7B0F8314604469C
:102E20002846FFF7F3FF2046BDE87040FDF75CBF82
:102E3000FFF753BE30B50024C0E90232C0E90544B3
:102E40000161A34202D1C0E9000030BD45690D60B7
:102E5000013441611144F4E70023C0E90233C0E9C1
:102E600000007047437BDB0603BF8069B0FA80F047
:102E700040090020704738B504464FF02003EFF3B7
:102E8000118583F31188BFF36F8F01468068FEF7C9
:102E9000A9FE637B23F00203637385F31188BFF3FC
:102EA0006F8F0023A36038BD08B539B9FEF732FE35
:102EB00020B10846BDE80840FDF7B2BD81F3118896
:102EC000BFF36F8F08BD08B5024638B9FEF722FE82
:102ED00020B11046BDE80840FDF7A2BD82F311887D
:102EE000BFF36F8F08BD4FF02003EFF3118083F322
:102EF0001188BFF36F8FFFF7E6BF0368984214BFD6
:102F000018460020704750F8103C70B50446A0F1F8
:102F10001805CBB14FF02003EFF3118683F311882E
:102F2000BFF36F8F294650F8100CFEF75BFE14F8C4
:102F30000B3C23F0020304F80B3C86F31188BFF32B
:102F40006F8F002344F8103C14F80B3C23F014035B
:102F500004F80B3C2846FFF785FF20B12846BDE862
:102F60007040FEF78FBE70BD38B54FF02003EFF311
:102F7000118283F31188BFF36F8FFFF7BEFF044602
:102F800082F31188BFF36F8FC8B14FF02003EFF3C6
:102F9000118583F31188BFF36F8F01468068FEF7B8
:102FA00021FE637B23F00203637385F31188BFF373
:102FB0006F8F0023A36004F1180000F032F8204660
:102FC00038BD437BDB0603BF8069B0FA80F040095F
:102FD00000207047036D10B5044603B198472046A2
:102FE000FFF7EFFF38B12046FEF7FEFE637B43F0AC
:102FF0000803637310BD637B9B0702D52046FFF770
:103000003AFFA369002BF1D004F1180000F009F891
:10301000ECE70373002342738173C373C0E9063383
:10302000704710B54FF02002EFF3118482F311883E
:10303000BFF36F8F03683BB1FFF748F8002084F3BC
:103040001188BFF36F8F10BD6FF01500F7E710B553
:103050004FF02003EFF3118483F31188BFF36F8FD8
:10306000FFF74AF884F31188BFF36F8F10BD70B576
:1030700004460E464FF02003EFF3118583F31188C9
:10308000BFF36F8FFFF738F8012805DDA04203DD9D
:1030900031462046FDF73AFB85F31188BFF36F8F69
:0430A00070BD704748
:0830A400FCD0FF7F01000000D9
:1030AC0000000000E105000000000000DF2A000025
:1030BC0000000000DF2A000000000000DF2A0000F2
:1030CC0000000000DF2A000000000000DF2A0000E2
:1030DC0000000000AD11000000000000DF2A00001D
:1030EC0000000000DF2A000000000000DF2A0000C2
:1030FC0000000000DF2A000000000000DF2A0000B2
:10310C0000000000DF2A000000000000DF2A0000A1
:10311C0000000000DF2A000000000000DF2A000091
:10312C0000000000DF2A000000000000490600003B
:10313C0000000000DF2A000000000000DF2A000071
:10314C0000000000DF2A000000000000DF2A000061
:10315C0000000000DF2A000000000000DF2A000051
:10316C0000000000DF2A000000000000DF2A000041
:10317C0000000000DF2A000000000000DF2A000031
:10318C0000000000DF2A000000000000DF2A000021
:10319C0000000000DF2A000000000000DF2A000011
:1031AC0000000000DF2A000000000000DF2A000001
:1031BC0000000000DF2A000000000000DF2A0000F1
:1031CC0000000000DF2A000000000000DF2A0000E1
:1031DC0000000000DF2A000000000000DF2A0000D1
:1031EC0000000000DF2A000000000000DF2A0000C1
:1031FC0000000000DF2A000000000000DF2A0000B1
:10320C0000000000DF2A000000000000DF2A0000A0
:10321C0000000000DF2A000000000000DF2A000090
:10322C0005350000550500000000000005350000C4
:10323C00C50500000000000045340000672A0000AE
:10324C00FC3200004F340000712A0000F032000004
:10325C00593400008906000000000000053500000C
:10326C00E50D000000000000B6340000E10E000087
:10327C0058330000BD340000E10E00005033000054
:10328C003E34000065140000C4340000C534000056
:10329C00E92D00000000000005350000C1180000F9
:1032AC000000000005350000652200000000000051
:1032BC0002000000C4320000000000002F340000A7
:1032CC0026000207000000203734000022000B11FA
:1032DC00612A000067290000D329000000000000CB
:1032EC004F29000000000000000000000001000455
:1032FC0000000000000000000401080C00000000A9
:10330C00DD2A0000790800003908000009080000D7
:10331C00E907000014140020FC1300200C140020FA
:10332C00000000000414002085100000C92B0000D0
:10333C00052C0000352C0000992D0000572D0000A5
:10334C0000000000000000500000000000030050CE
:10335C000100000005140000311400006D12000083
:10336C0081120000D92D000074140020D414002008
:10337C00E01400200415002004150020F5FFFFFFC9
:10338C00FF8FFFFFFF8FFFFFFE8FFFFFFE8FFFFF03
:10339C00FD8FFFFFFC8FFFFFFC8FFFFF43616E274C
:1033AC007420696E697469616C697A65206D7574D5
:1033BC0065782C20776173204E554C4C0D0A00001B
:1033CC0043616E277420756E6C6F636B206D757422
:1033DC0065782C20776173204E554C4C0D0A0000FB
:1033EC00436F756C64206E6F74206C6F636B207010
:1033FC006F7765722073617665206D7574657800E2
:10340C006E726635323834305F706361313030350E
:10341C00360048656C6C6F20576F726C64212025E8
:10342C00730A00464C4153485F30005352414D5F84
:10343C003000554152545F3000434C4F434B5F3387
:10344C00324B00434C4F434B5F31364D0073797315
:10345C005F636C6F636B006D757465785F696E6923
:10346C00742063616C6C65642077697468204E55B8
:10347C004C4C20706172616D6574657200436F75A0
:10348C006C64206E6F7420616C6C6F63617465206A
:10349C006D75746578206265666F726520696E69FA
:1034AC007469616C697A696E67004750494F5F3186
:1034BC00004750494F5F30000148575F4343333159
:1034CC00305F30002A2A2A2A2A20426F6F74696ED4
:1034DC0067205A6570687972204F53206275696C49
:1034EC00642076322E302E39392D6E6373312D7265
:1034FC006332202A2A2A2A2A0A006D61696E006921
:04350C00646C650086
:103510002326000018150020010000002C150020B3
:10352000010000004015002001000000541500209B
:1035300001000000C32B000000C2010000010300D5
:103540000090D0032C1400202C1400200000000058
:10355000C1220000292300000123000045230000B0
:1035600005230000AC060020A0060020A8060020CD
:1035700000000000A4060020501400205C1400206D
:0C358000541400204C140020681400209B
:10358C002C3200000000000000000000A4320000FB
:10359C000000000000000000B0320000000000003D
:1035AC000000000068320000000000000000000075
:1035BC0050320000DC3200000C00002044320000CD
:1035CC00DC320000180000208C3200006033000058
:1035DC002014002038320000000000000000000021
:1035EC005C3200000000000000000000803200008F
:1035FC0034330000440500207432000034330000E2
:10360C00640500209832000000000000000000005B
:10361C00041500200415002000000000000000002C
:10362C000F000000181500201815002000000000E5
:10363C00000000000F0000002C1500202C150020AD
:10364C0000000000000000000F00000040150020EA
:10365C004015002000000000000000000F000000DA
:10366C00541500205415002000000000000000003C
:04367C000F0000003B
:0400000300000B6589
:00000001FF
