:020000040000FA
:10000000C05C0020B12000001F51000085200000CE
:1000100085200000852000008520000000000000F1
:10002000000000000000000000000000E91B0000CC
:1000300085200000000000008520000085200000D1
:10004000651C0000651C0000651C0000651C0000AC
:10005000651C0000651C0000651C0000651C00009C
:10006000651C0000651C0000651C0000651C00008C
:10007000651C0000651C0000651C0000651C00007C
:10008000651C0000651C0000651C0000651C00006C
:10009000651C0000651C0000651C0000651C00005C
:1000A000651C0000651C0000651C0000651C00004C
:1000B000651C0000651C0000651C0000651C00003C
:1000C000651C0000651C0000651C0000651C00002C
:1000D000651C0000651C0000651C0000651C00001C
:1000E000651C0000651C0000651C0000651C00000C
:1000F000651C0000651C0000651C0000651C0000FC
:1001000053B94AB9002908BF00281CBF4FF0FF317E
:100110004FF0FF3000F00CB8ADF1080C6DE904CEE3
:1001200000F008F8DDF804E0DDE9022304B07047D0
:10013000704700BF2DE9F04786468C460846089E6A
:10014000154674461946002B40F0C2808542B2FA2B
:1001500082F245D94AB1C2F1200300FA02FC2EFA1C
:1001600003F3954043EA0C0C94404FEA154EA8B2B5
:10017000BCFBFEF8230C0EFB18CC08FB00F943EA8D
:100180000C43994528D9EB1808F1FF3704D299455B
:1001900002D9A8F102072B44A3EB0903A4B2B3FBD5
:1001A000FEFC0EFB1C330CFB00F044EA0344A042AF
:1001B00014D92C190CF1FF3304D2A04202D9ACF1AE
:1001C00002032C44241A43EA07401EB1D440002302
:1001D00034607360BDE8F0874746DDE76346F1E7CA
:1001E00092BB431B01214FEA154EAFB2B3FBFEFC9D
:1001F000200C0EFB1C330CFB07F840EA0343984528
:1002000062D9EB180CF1FF3004D2984502D9ACF159
:1002100002002B44A3EB0803A4B2B3FBFEFC0EFBCD
:100220001C330CFB07F744EA0344A7424ED92C19B0
:100230000CF1FF3304D2A74202D9ACF102032C44E3
:10024000E41B43EA0040C0E7C2F1200320FA03F1B7
:10025000954090402EFA03F303434FEA154EAFB298
:10026000B1FBFEFC0EFB1C10190C0CFB07F841EA5D
:100270000041884504FA02F422D969180CF1FF30D4
:1002800004D2884502D9ACF102002944A1EB08014F
:100290009BB2B1FBFEFC0EFB1C110CFB07F743EA03
:1002A00001439F420ED9EB180CF1FF3104D29F425B
:1002B00002D9ACF102012B44DB1B41EA004192E779
:1002C0006046E3E76146F7E76046A3E76346B7E7C2
:1002D000834206D916B9002108467BE7C6E900E04B
:1002E000F9E7B3FA83F78FB9834201D3724508D88F
:1002F000BEEB020460EB030301209C461EB9002103
:1003000068E73846FAE7C6E9004CF8E7C7F1200C81
:10031000BB4022FA0CF41C432EFA0CF120FA0CF329
:10032000B84001434FEA14490EFA07F5B3FBF9F858
:100330001FFA84FE09FB18300B0C08FB0EFA43EA87
:1003400000439A4502FA07F240D9E31808F1FF305A
:1003500004D29A4502D9A8F102002344A3EB0A0370
:1003600089B2B3FBF9F809FB183308FB0EFE41EA2A
:1003700003418E452CD9611808F1FF3304D28E4514
:1003800002D9A8F10203214443EA0040A0FB0298ED
:10039000A1EB0E014145CE46434602D306D14D4561
:1003A00004D2B9EB020E68EB04030138002EA6D08C
:1003B000B5EB0E0261EB030101FA0CFC22FA07F324
:1003C0004CEA0303F940C6E9003198E74046C5E727
:1003D0004346D9E77FB52B4B2B4AC3F800262B4861
:1003E000C3F804264921C3F80826C3F80C26C3F82D
:1003F0001026C3F81426C3F81826C3F81C2604F0E8
:100400000AFE00F071F801A800F0D2FC204B1B6836
:10041000834204D01F48452104F0FDFDFEE7039A06
:100420001D48492104F0F7FD1C48492104F0F3FD63
:100430004FF44041002005F0E6F820B1184845216E
:1004400004F0E9FDFEE769469DF8080000F02CF88D
:10045000009B039C1C44019B1D8900F05DFF6619F5
:100460004FF02002EFF3118382F31288BFF36F8FF6
:10047000635983F30888736898470A48452104F054
:10048000CAFDFEE7000001403546526E3477000099
:10049000900100204D770000707700009F770000EA
:1004A000C4770000F777000008B5024638B1054868
:1004B0000023452104F0AFFD6FF0150008BD086072
:1004C000FCE700BF1A7800001FB50C46014601AAE0
:1004D000044804F089FF18B9019B2360029B636004
:1004E00004B010BD1472000002484FF4C05103F074
:1004F0007BB900BF580F00202DE9F04FF9B0DDE9BE
:100500008448DFF8E0A138A8DAF8006017461D46F5
:1005100006F025FC002138A803F084FA3CB1B8F1BC
:10052000000F04DD4246214638A806F01CFC7B89FA
:10053000B7F808809844FB684FF000099844C84514
:1005400021D80DA938A806F047FC869B23B12022AC
:100550000DA9184604F00BFE002300932A464FF61F
:10056000FF73394607A804F007FA044638B928464D
:100570000C9F00F0DDF987421BD94FF0FF34204675
:1005800079B0BDE8F08F839B829AA8EB090B9B455D
:1005900028BF9B465B464946284604F04AFD044670
:1005A0000028ECD182995A4638A806F0DCFBD944E1
:1005B000C5E7DFF834914FF0FF370DF1160305AAB8
:1005C00006A907A804F026FAB0F10008C0F2888056
:1005D0007BD1BDF816B0BBF1100F18D1BDF8144097
:1005E000202CCAD10699234638AA284604F021FDBA
:1005F0008046002874D1224638A90DA804F056FA86
:1006000004463A4B1B688342B9D10124D5E7BBF1BC
:10061000010F37D1BDF81430202BAED8069938AA77
:10062000284604F006FD8046002859D19DF814B0F4
:10063000BBF1200F03D94FF0FF384746BDE7D9F88B
:1006400000302B4F0393039B9845F4DA1DA806F066
:1006500086FB00211DA803F0E5F97A6857F8081B0E
:1006600012681DA806F07FFB15A91DA806F0B4FBB3
:100670005A4638A915A804F06AFD0028DDD008F113
:100680000108E0E7BBF1200F97D17B1C95D0D9F88A
:100690000030BB4216DDBDF81430B3F5807F7FF427
:1006A0006CAF069938AA284604F0C3FC8046B8B956
:1006B000FFB2BDF81430009738AA59460DA800F0D3
:1006C00019F806464FF0FF3777E73CB1074B1B6838
:1006D000B34218BFDAF80060344650E74FF0010823
:1006E00044464CE7000000202874000090010020E0
:1006F0002C7400002DE9F04F1F46ADF54B7D6A4B81
:100700009DF850631D68804627A88A46914606F0EA
:10071000E3FA664B53F83640029403EBC6038AAA09
:100720005B681B681C442146302302A805F067F86B
:1007300068BB029B8A9A13449C4228D129AA21466D
:1007400002A805F070F810BB0DF1B00B5A46214617
:1007500002A805F068F80646C8B929A805F084FB88
:10076000029B28909C4212D1CDE9006B3346324661
:1007700029A927A806F06DFA48B927A803F0E4F8DC
:1007800028B929A805F070FB874228900AD027A82D
:1007900006F0ACFA27A806F0A9FA28460DF54B7D1D
:1007A000BDE8F08FB7F5807F02D04FF0FF35F1E75D
:1007B000BAF1200FF9D18AAA494627A803F0EAF82E
:1007C00004460028F1D19DF82733BC2BEDD152AF60
:1007D0000390DF263D460CA806F0C1FA00210CA8C4
:1007E00003F020F920220DF207310CA806F0BBFA25
:1007F000042203A90CA806F0B6FA04A90CA806F076
:10080000EBFA202E9DF80F30B146A8BF4FF020091B
:10081000013338464A4604A9A6EB09068DF80F3085
:1008200004F0A5FC002E4F44D5DC2F468AAB2946A8
:100830000022087813F8016B01327040DF2A01F8BA
:10084000010BF6D12B7803F07F032B7017F8016BA7
:10085000002EAAD10134BE2CF8D195F8BE30012B60
:10086000A3D10CA806F07BFA31460CA803F0DAF805
:100870000F4908220CA806F076FA414620220CA85F
:1008800006F071FA20220DF207210CA806F06BFA8F
:1008900004A90CA806F0A0FA20220DF2073104A842
:1008A00004F004F9054682E7000000202C740000E3
:1008B000407800002DE9F04186B00223DFF86C801B
:1008C000ADF800300D466F46002617F8010B01A960
:1008D00001F0A0F80446A0B901988168102302AA8B
:1008E000103904F0A6FB0446019804F0A1FB44B9BA
:1008F0001022414602A804F02AFC40B12EB14FF06C
:10090000FF34204606B0BDE8F0810126DDE70198FE
:1009100004F07CFE0423A0F108012A46019804F0AB
:1009200088FB0446019804F083FBEAE72477000083
:1009300007B504F0CFF86946FFF7C6FD38B10548A2
:10094000452104F068FB002003B05DF804FB00982B
:10095000FAE700BF487800002DE9F041354B88B038
:10096000064600200C461D6803F0FBFF06A9C0B236
:1009700001F050F8002857D1214603F0F2FF2C2552
:1009800007A9C0B205FB046501F044F8002833D084
:100990002C27674306EB0708069BD8F8101011F0C8
:1009A000100138D14FF480720192234A0092CDE9B0
:1009B00003112A4602910846FFF79EFD05461F4B8C
:1009C000F25906989A420CD1D8F80C20B8F80830A1
:1009D0009B1806D28268934203D2194B1B68AB4224
:1009E0001FD02CB38268002104F04DFB154A164835
:1009F000452104F010FB13E0079804F05FFB074665
:100A0000079804F015FB6B1EEA1C13F8011FB9428E
:100A1000BED19342F9D11CB10699304604F03EF99B
:100A20000125069804F004FB284608B0BDE8F081D3
:100A3000064ADCE700000020582700203DB8F39666
:100A4000900100208B7800009578000083780000EA
:100A500073B50D46044600212846CDE9001104F087
:100A6000DCF830B3164E2368B34203D101AA204606
:100A700004F068F8E36AB34204D16A4601212046D3
:100A800004F060F8DDE90032934288BF0193019BD6
:100A9000AB60019A2946204600F034FB094B1A68E6
:100AA000002A03DD0848572104F0B5FA002002B0FF
:100AB00070BD05F10801FFF7FDFEAB680193E8E7A3
:100AC0003DB8F396F40D0020BD7800002DE9F84FF5
:100AD000DFF870B01C4C1D4D884691469A460026A2
:100AE0000B9B9E4201D300200FE00B9B154A9F1BDE
:100AF000B7F5806F28BF4FF480673B4606EB0A01CD
:100B0000404604F096FA10B10120BDE8F88F0A992A
:100B10003B465A467118484604F0A0FA0028F3D123
:100B2000C4F800563E44C4F80456C4F80856C4F845
:100B30000C56C4F81056C4F81456C4F81856C4F825
:100B40001C56CDE794090020000001403546526E46
:100B50002DE9FF418F4B43620E468F4B0365002109
:100B60000446084603F0FDFE04F12001C0B200F087
:100B700051FF0121002003F0F4FE04F14C01C0B24A
:100B800000F048FF0546204604F01DF8074668B906
:100B900000221146204603F0BFFF074600B37F48FE
:100BA0000022572104F037FA01238FE07C4880228D
:100BB000572104F030FA01239F4284F85830E7D1DE
:100BC00094F858308DF80730042B00F28280012B06
:100BD00000F2858000F09C80FF2384F8583097E075
:100BE000204600F0A7F90028DED0684604F00CF893
:100BF0006946204604F0A7F818B16A483A465721DA
:100C0000D0E7684604F009F880F001016A46C9B2ED
:100C1000204603F081FF02460028C0D1684603F059
:100C2000FCFF074660BB69462046FFF711FF9DF8B1
:100C3000073084F85830033B012B06D8384604F0BF
:100C4000D0F810B1FF2384F858309DF80730023BEC
:100C5000022B0BD8002004F0B2F838B1FF2384F83F
:100C600058305148452104F0D6F9FEE794F8583041
:100C7000FF2BF6D06A460021204603F04DFF93E794
:100C80009DF80780B8F1010F15D1104602F0DCFB8A
:100C9000831E022B07460BD841462046FFF75CFE19
:100CA000424B1B68984203D0012814BF0527012737
:100CB00084F8587084E701212046FFF74DFE3B4B36
:100CC0001B6898420CBF9DF80730052384F8583004
:100CD00076E7052B80D1002004F083F813E0694605
:100CE0002046FFF7B5FE94F85830DA1E012A054673
:100CF0000CD8002004F075F8054600287FF46CAF8E
:100D0000002004F05CF8054610B165E7022BF7D02F
:100D100094F85830FF2B04D12348452104F07BF987
:100D2000FEE7012B10D06A460021204603F0F4FEB6
:100D3000054648B1E06C04F07BF9206A04F078F9CC
:100D4000284604B0BDE8F08100212046FFF704FEEC
:100D50000746DFF85880D8F8003098420FD11022AB
:100D60000021684604F00EFA206A03F003FE307199
:100D7000236A5B683460D8F80050B360DAE7E06C4F
:100D800004F056F9206A04F053F9002D08BF3D46DF
:100D9000D6E700BF94050020940100202E790000C2
:100DA000EC7800005A79000084790000900100205E
:100DB00038B5064D044660220021284604F0E2F9C9
:100DC00021462846FFF7C4FE38BD00BF940D002021
:100DD00073B516461D4643B15B79012B07D121B986
:100DE000204B2A681B689A4217D8002418E0022B6F
:100DF000FBD12B68012B07D91A4A12689342F4D809
:100E0000B1FA81F14909F0E7EFD131B10129ECD113
:100E10002979023918BF0121E7E7436A5C6800219C
:100E2000002003F09EFD01A9C0B200F0F3FD30B137
:100E30000124019804F0FCF8204602B070BD214660
:100E400001982023324604F0F4F804460028EFD13C
:100E5000002DEED03468044BE41A18BF4FF0FF3475
:100E6000E7E700BF040000203DB8F3962DE9F04FFE
:100E7000074685B00C4601460020164603F01DFECD
:100E8000051E50DB3846E46D03F024FE5FFA84F95A
:100E90006B1E09FB03084FF0000A4FF0010B4FF0E7
:100EA000FF349DB9BAF1010F03DD2148452104F05B
:100EB000B2F8631C06D07F2C2ADC013440F2011307
:100EC0003460B380284605B0BDE8F08F6B1E0093F8
:100ED0000DF10F0201234146384604F0AAF8031E23
:100EE000019322DB01220DF10F01384604F0A2FB31
:100EF000019B40B15B4501D00AF1010A009DA8EBBE
:100F000009089B46CDE7B4F1FF3F08BF2C46F5E743
:100F10000223803C7371631004F001040133013437
:100F200033603471CEE70725CCE70125CAE700BF5F
:100F30009079000038B5816A426D914208D0531C07
:100F40008B4205D01348572104F065F8002038BDC6
:100F500080291CD910485721F6E7446A056D04EB37
:100F6000C30405EBC30564686D68AC4202D00B484E
:100F70005721E9E701339A42EFD1914205D9436AFB
:100F800003EBC2035B68A342F1D10120DFE700233A
:100F90001C46F0E7B3790000EB7900001A7A0000F4
:100FA00000B589B004A9022004F0B6FB9DF810201A
:100FB000012A41D0254B2649032A08BF0B469DF83C
:100FC000132002929DF8122001929DF811202148D1
:100FD00000924921204A04F01EF806A9052004F0D9
:100FE0009BFB9DF81820012A28D0184B1849032A8A
:100FF00008BF0B469DF81B2002929DF81A20019213
:101000009DF8192000921348144A492104F003F86E
:101010009DF81030012B13D19DF81230032B0FD106
:101020009DF81830012B0BD00D48492103F0F3FF38
:10103000022009B05DF804FB0A4BC0E7094BD9E771
:101040000948492103F0E7FF0020F2E7467A000053
:101050004F7A0000637A0000557A0000A47A0000FD
:10106000B47A00004A7A0000D37A000070B54B6869
:1010700014461E4A03F0FF23934286B006460D46EF
:101080002FD10B68012B2CD104A9204602F086F940
:101090009DF81020012A26D0154B1649032A08BFB7
:1010A0000B469DF8132002929DF8122001929DF8A4
:1010B000112000921048114A492103F0ACFF9DF81D
:1010C0001030032B0DD12146304603F0E7FD2046BA
:1010D00004F015FBA968204603F00FFD204602F03E
:1010E0003DF906B070BD064BDBE700BF0001000410
:1010F000467A00004F7A0000637A0000A47A00006C
:101100004A7A00002DE9F04F054689B07D480C462B
:101110004921174603F07FFF6B6A01225E680023B6
:101120003344BB42114602F10102F9D3764F204607
:10113000396003F072FD08B3E86D03F0B9FCAB6AE7
:1011400003F1FF3800233344834202D208F1FF3811
:10115000F9E73B68434511D36C48572103F05BFF27
:101160003A686B4808FB06F302FB0662572103F05E
:1011700052FF0123E37109B0BDE8F08F06A90220F8
:1011800000F048FC07A9052000F044FC079A21461E
:101190002846FFF76BFF6379012B0BD1D7F800804E
:1011A000DFF870B13B68DDF81890B8F1000F11D18D
:1011B00001232360022363714FF001083B68DDF8CF
:1011C00018A0984549D9504603F032FF079803F01C
:1011D0002FFFD0E7226801339B1A98453AD86B6AF3
:1011E000196853F8380003EBC803012A53F8083C88
:1011F000A3EB0103A0EB010A049311D1079B039316
:10120000E368022B08D04946284603F047FD2246F2
:101210004946284603F078FD0399284603F03EFD31
:1012200032465146484603F037FD049B4A4649463C
:10123000CDE900A62846FFF749FC2146284603F0E1
:10124000F9FC23680133236020B1DBF8003001335F
:10125000CBF8003008F1FF38A4E7236898454ED357
:101260006A6ADDF81CB052F8381004914FEAC803DE
:10127000083B11680391D1582A6DD0581368A0EB30
:1012800003092379012B38D1039B3246C91A5046F2
:10129000059103F001FD059900914B4652465946D0
:1012A00001962846FFF712FC2146284603F0C2FCAF
:1012B0000223237118B1174A1368013313603246B1
:1012C0004946584603F0E8FCDDE9032351469B1AE2
:1012D000CDE900965A462846FFF7F8FB21462846F6
:1012E00003F0A8FC2368013323600123237130B18C
:1012F000084A13680133136001E0022BDFD008F1C4
:1013000001085BE7EA7A000004000020137B00007C
:10131000427B0000F40D0020164A4FF0FF330121FC
:101320005160C2F84833C2F8083302F5C042516038
:10133000C2F84833C2F8083302F598325160C2F857
:101340004833C2F80833A2F508320021C2F800156C
:10135000C2F8083302F51832C2F80015C2F8083393
:10136000A2F51042C2F808354FF08042C2F80833A7
:10137000704700BF00B00040014B1B68184700BF1A
:1013800008000020014B1860704700BF08000020D3
:1013900007B50B46002102460091034800F014F9FE
:1013A00003B05DF804FB00BF791300002DE9F0479E
:1013B000058B04462807904611D4022905F007053D
:1013C00040F0CD80204603F04CFD78B10138218BF0
:1013D000042811D8DFE800F0C3106D8595000129BD
:1013E0000CBF45F0100545F02005258388F31188D2
:1013F000BFF36F8FBDE8F08701F0070AAA4500F040
:10140000A6800027B9463E46A368002B00F0BD80A9
:1014100041F00801218388F31188BFF36F8FA16821
:10142000002900F0BB800D68002900F0B780D1F8DA
:101430000480334652462046C047002D76D02B68A4
:1014400029461D46F0E701F007035A1F012A1BD861
:10145000002221F00701062B276889B2C4E9002287
:1014600009D13B4603E0628B013262831B68002B8B
:10147000F9D141F002012183204603F0F2FC00285B
:101480007BD041F0200177E0042B0AD121F0070145
:1014900089B22183204603F0E4FC10B141F0200121
:1014A0002183218B01F0070AAA4550D00027B946B5
:1014B000AAE7236921F0070141F00601062DD3F8C0
:1014C000009021832DD1B9F1000F40D041F00801E7
:1014D000218388F31188BFF36F8F3A492046C847AC
:1014E00029E021F00701236941F0040189B2042DAC
:1014F000D3F804902183E6D000273E464FF0040A3B
:1015000082E721F00701236941F0050189B2052D29
:10151000D3F808902183D6D000273E464FF0050A25
:1015200072E700273E464FF0060A6DE72B4687E735
:10153000B9F1000FD1D14FF02003EFF3118883F3FD
:101540001288BFF36F8F238B23F008032383258B2F
:10155000EA062ED525F01003238305F007056669FA
:10156000218B002EBFF66FAF00232768C4E900333C
:1015700021F0070141F001012183218B01F0070ACD
:10158000AA454FF000097FF43FAF002F9BD041F0F8
:101590000801218388F31188BFF36F8F002FC7D014
:1015A0003D68394633465246204603F086FC2F46B6
:1015B000F4E7AB067FF51AAF25F02003238305F08F
:1015C0000705FFE6E74E00002DE9F04F8DB01D4600
:1015D000531E8246019103934FF00009039B5878F4
:1015E000252803F1010419D11E4600204FF0FF38D1
:1015F000023603460290444631780396392954D87E
:101600001F2914D8002900F0F08101992520D04726
:1016100001993078D04709F10209DFE7002800F08E
:10162000E4810199D04709F101090394D6E7A1F1BA
:101630002002192AE9D801A757F822F0A5160000C0
:101640000B1600000B160000A51600000B1600007C
:10165000251700000B1600000B1600000B160000EB
:101660000B16000071170000A51600000B160000F5
:1016700085170000311700000B1600003F1700000F
:101680005F1700005F1700005F1700005F17000082
:101690005F1700005F1700005F1700005F17000072
:1016A0005F17000008460136A6E7582900F0EE80D3
:1016B000A1F16302D7B2172FA7D8172AA5D801A77F
:1016C00057F822F033190000AB1700000B1600008A
:1016D0000B1600000B1600008B170000AB17000064
:1016E0000B1600000B1600008B1700000B160000F5
:1016F0000B1600000B160000671800000B16000008
:101700000B160000071900000B160000AB170000B5
:101710000B1600000B160000671800000B160000E7
:101720008B17000001992520D04709F1010955E7E1
:10173000029A02F0FE0202924FF00008B3E7002C7A
:101740000DDAB8F1000F0DDA029A002A00F0458197
:1017500024EAE4740A2202FB0414303CA3E7B8F143
:10176000000FF5DB0A2202FB0812A2F130089AE70B
:10177000B8F1000F55F8042B80F23181002A80F275
:1017800030815442022202928DE7682903D1682BEE
:1017900006D1482387E76C2902D16C2B00F0238106
:1017A000002B7FF432AF0B467DE77A2B06D17529EB
:1017B00055F8046B14D14FF0000B0CE06C2BF6D0F5
:1017C0004C2BF4D1073525F007037529D3E9006BBD
:1017D00003F1080506D120283ED1864F013C09E0DF
:1017E0004FEAE67BBBF1000FF5DA7642824F6BEBF6
:1017F0004B0B013C0DF12D03059300230493304660
:1018000059460A220023FEF77BFC049B03F1FF3CB0
:10181000CDF810C0DDF814C030320CF8012DCDF831
:1018200014C0B4465A46BCF10A0F72F100020646D3
:101830008B46E4D2C3F1010B30330DEB0306B8F154
:10184000000FA6F104066DDA029BD9077CD4A8EB41
:101850000B03A4EB0B0413E02B280ABF674F684F60
:1018600004F1FF34C6E770290FD155F8042B00238B
:10187000FAB9644E053C6FF004034FF0050B604F5E
:10188000029A92076FD4A04665E078216C2B03D1B1
:1018900055F8042B002308E04C2BF9D1073525F02F
:1018A00007031D465B6855F8082B232825D18806B9
:1018B00021D5554F023C01F06001A1F1390B0DF12A
:1018C0002D0E002602F00F01092988BF594430313E
:1018D0000EF8011D102A4FEA121141EA03714FEA76
:1018E000131073F1000306F1FF3C08D2C6F1010B9F
:1018F00006F13003A1E7454FDCE7414FDBE76646E1
:101900000A460346DEE755F8046B304603F018FC40
:10191000B8F1000F834602DB4045A8BFC346384FED
:101920004FF00008A8EB0B03002B92DDA4EB08049A
:10193000A6E755F8043B8DF81830013C4FF0FF3313
:101940004FF0010B06AE9AE7A046EBE70293019930
:101950002020D047029BB8F10108F7D524EAE472B1
:10196000013C9144A41AB84606E0049302920199FE
:10197000D047029A049B9046424612F8010B002879
:10198000F3D11A46013A15D5002BACBFC7EB0307BC
:101990007F425B46013B15D5BBF1000FA8BF5F44FA
:1019A0004F442646013E14D5002CA8BF3F1907EB33
:1019B000080913E60493029201993020D047049B52
:1019C000029ADFE70293019916F8010BD047029BB8
:1019D000E0E701992020D047E4E70122D3E69046D2
:1019E00061E614465FE64C235DE648460DB0BDE86F
:1019F000F08F00BF0E800000927C0000947C0000FD
:101A0000E58300009C7C0000967C0000997C00002F
:101A100002F016B970B5114B1C680D46DCB1104BC5
:101A2000196800238B4202DB6FF0010070BD224673
:101A300012F8106B864202D001331446F2E7E068D8
:101A400010B96FF01200F1E705F05EFB0028F8D046
:101A50002C600020EAE76FF00C00E7E70C000020A4
:101A60003874000070B588B005460C46C0B26946AF
:101A70001646FFF7CFFF00281BDB0098C8B143686C
:101A80000293836822680195CDE903360023CDE9EE
:101A900006230593C56803F0CBFA6DB128460849C3
:101AA00001AA03F0A5FC079808B9059B236008B0BC
:101AB00070BD6FF01500FAE76FF01200F7E700BF96
:101AC000CB500000014910220A60704710ED00E081
:101AD00072B6494081F3118820BF80F3118862B645
:101AE000704700BF37B505460C46C9B18B680093F7
:101AF000D1E900230E48452103F08DFA6369009374
:101B0000D4E903230B48452103F085FAE2690A482A
:101B1000452103F080FAA2690848452103F07BFAC9
:101B20002146284603B0BDE8304002F097BD00BF13
:101B3000A27C0000D67C00000A7D00001E7D000013
:101B400040B2002807DB044A4109012300F01F00CE
:101B5000834042F82130704700E100E0054B420924
:101B600000F01F0053F82220012303FA00F0104078
:101B7000704700BF00E100E040B20028A8BF00F1BC
:101B8000604001F10101B8BF064B4FEA4111ACBF03
:101B900000F5614000F00F00C9B2B4BF195480F8DD
:101BA0000013704714ED00E030BFFFF7FDBF00BF2A
:101BB0000B4A08B50B4B22F07F029A60BFF34F8FA0
:101BC000BFF36F8FD3F8882022F47002C3F8882007
:101BD00002F0BCFD02F002FE00F05EFA02F0C2FD6F
:101BE0000000000000ED00E01EF0040F0CBFEFF35A
:101BF0000880EFF30980816911F8021C0229FFD0E7
:101C000001B503F084FA01BD10F1160F074B08D09F
:101C1000984208D34033834205D98B4203D9044804
:101C200070474033F9E70020704700BFC034002000
:101C30000035002004462025084611461A46084B68
:101C400083F3098863B64FF0000383F31188BFF371
:101C50006F8FA04785F31188BFF36F8FFEE700BF3A
:101C6000005D002001B5EFF30580A0F110004FEA00
:101C7000C0000449014409C99847BDE80140024930
:101C8000084700002C7200008D1C0000704700BF48
:101C90002DE9F041324C0746884632484521154629
:101CA00003F0B9F9A36ADE0603D52F48452103F0F6
:101CB000B2F9A36A180703D52C48452103F0ABF904
:101CC000274CA36A990728D46FF01506244CA36A01
:101CD000DB0703D52648452103F09DF9A36A9C063E
:101CE00003D52448452103F096F91D4CA36AD80674
:101CF00028D4A36A990725D40020A36A184A9B0612
:101D000042BF636A23F400536362936A43F0FF03A4
:101D1000936200232B70BDE8F0811748452103F042
:101D20007AF9666BA36A1A06CED514483246452165
:101D300003F071F9B8F1000FC8D0A36A23F0800353
:101D4000A362C3E763681A05D6D539463046FFF764
:101D50005BFF0028D0D080F309880220CDE700BFC8
:101D600000ED00E0517D00006C7D0000A47D0000CE
:101D7000F47D0000187E0000BC7D0000D97D0000CD
:101D800010B51D4C1D48452103F045F9A36A9B0180
:101D900003D51B48452103F03EF9A36ADC0103D5B6
:101DA0001848452103F037F9134CA36A180303D5EB
:101DB0001548452103F02FF9A36A590303D51348A9
:101DC000452103F028F90C4CA36A9A0303D5104867
:101DD000452103F020F9A36ADB0303D50D48452113
:101DE00003F019F9044A936A6FEA03436FEA134355
:101DF0009362002010BD00BF00ED00E04C7E0000AB
:101E0000697E0000817E0000A07E0000C37E00008D
:101E1000ED7E00000C7F000070B5234C06460D4699
:101E20002248452103F0F7F8A36AD90403D52048D6
:101E3000452103F0F0F8A36A1A0503D51D48452192
:101E400003F0E9F8184CA36A9B0510D51A48452100
:101E500003F0E1F8A26BA36A180408D517484521DE
:101E600003F0D9F81EB1A36A23F40043A3620E4C19
:101E7000A36A590503D51248452103F0CCF8A36A9B
:101E8000DA050BD50F48452103F0C5F8064A936AD9
:101E9000002043F47F439362287070BDA36A9B04C3
:101EA000F4D509484521EFE700ED00E03C7F000054
:101EB000577F0000A47D00006D7F00008B7F000035
:101EC000A57F0000C57F0000187E00002DE9F041CD
:101ED0005D4B5F688AB00546C7F30804002686F3A9
:101EE0001188BFF36F8F02F07F43B3F17F4F07D1AB
:101EF00002F00C03082B14D15448452103F08BF851
:101F0000002635464FF00008E31E8DF80780092BA8
:101F100000F28780DFE803F00A7A7E768585858582
:101F2000858210074CBF0D460126EBE74848464C1A
:101F3000452103F070F88DF80780E36A9A0705D50C
:101F40004448452103F067F8002433E0E36A002B9E
:101F500002DA41484521F5E7E36A5B00F4D53F48E2
:101F6000452103F058F86369AA6943F480736361FB
:101F7000BFF34F8FBFF36F8F636932F8022C23F4E6
:101F800080736361BFF34F8FBFF36F8F4DF60273A2
:101F90009A4209D0A36ADBB233B30DF107020121E3
:101FA0002846FFF775FE2FE02A682D48452103F0EB
:101FB00032F82C689DF807309BB92022294602A8E8
:101FC00003F0D5F8099B002E38D0C3F3080222B9DC
:101FD0006FEA53236FEA4323099302A92046FFF7D0
:101FE00081FD0AB0BDE8F081A36A13F47F4F05D0EC
:101FF0000DF107010120FFF70FFF05E0A36AB3F51C
:10200000803FA1D3FFF7BCFE0446D3E70DF10702E2
:102010000021C5E70DF107010020ECE7114845213B
:1020200090E71149114A124817F4F87F08BF0A4691
:10203000A4F11003452102F0EEFF85E723F4FF73BE
:1020400023F00103C8E700BF00ED00E010800000AE
:10205000408000005C8000008280000095800000CD
:10206000B9800000DA800000E27F0000F77F000006
:1020700003810000024A536943F010035361704723
:1020800000ED00E0EFF30880EFF3098101B572463F
:10209000FFF71CFF01BD00BF044800232021C21828
:1020A0000133302B82F80013F9D1704700E100E0D2
:1020B000002080F31488BFF36F8FFFF7A9FC002086
:1020C0000D490860BFF34F8F0C4880F3088800F07B
:1020D0002BF8202080F3118809484FF40461401840
:1020E00080F30988EFF314800221084380F31488F9
:1020F000BFF36F8FFFF75CFD94ED00E0C05C002044
:10210000802C00200749D1F890200023C2F3072239
:102110001846934200DB7047C1F89830C1F8A00020
:102120000133F6E700ED00E008B572B6002383F353
:102130001388FFF7E7FF144B4FF0FF32C3F88020FE
:10214000C3F88420C3F88820C3F88C20C3F89020FB
:10215000C3F89420C3F89820C3F89C20C3F88021CA
:10216000C3F88421C3F88821C3F88C21C3F89021D7
:10217000C3F89421C3F89821C3F89C2162B6BFF339
:102180004F8FBFF36F8F08BD00E100E0024B034AA1
:102190000348022100F06CB800000220000000207B
:1021A000AC740000F8B5244E00258D420FDA446867
:1021B000002C3ED09BB104F1FF3C14EA0C0F08D078
:1021C0001E482A46452102F026FF6FF015021046F0
:1021D000F8BD1F2CF4D907681CEA070FF0D1202C9A
:1021E0000768D0F808C05FFA82FE10D9B4F1004F3A
:1021F0000FD8013CB4FA84F4C4F11F046400BEF1AA
:10220000070F4CEA040C06D90D484521DBE70824EA
:10221000F5E73E24F3E727F01F04144344F01004CD
:10222000C6F89820C6F89C404CF00104C6F8A040BF
:10223000013201350C30B8E700ED00E01F810000ED
:1022400047810000044B0522C3F89420BFF34F8F51
:10225000BFF36F8F704700BF00ED00E0BFF35F8FEB
:10226000024B0022C3F89420704700BF00ED00E04D
:1022700010B5034C01232278FFF794FF207010BDA6
:102280005828002014490868082810B521D8FFF7FD
:10229000E5FF124C49680022904201F10C0105D182
:1022A0000F4B1870FFF7CEFF002010BDC4F8982028
:1022B00051F80C3C23F01F03134343F01003C4F800
:1022C0009C3051F8043C43F00103C4F8A0300132C3
:1022D000E2E74FF0FF30E8E7C474000000ED00E0F3
:1022E00058280020014B1860704700BF10000020E4
:1022F0004FF02003EFF3118283F31288BFF36F8F47
:1023000006490123C1F840354FF08041C1F87835C6
:1023100082F31188BFF36F8F0020704700E0014007
:102320004FF08043C0B2C3F81C05BFF34F8F05497F
:10233000054BCA6802F4E0621343CB60BFF34F8FD2
:1023400000BFFDE700ED00E00400FA0520B1034BFB
:10235000800143F001031847704700BF207400005C
:10236000084B70B5C31A0D4607499B1004465943E4
:102370000648402202F02EFF2B4601462046BDE8CB
:10238000704018470C0E0020B76DDBB69C71000042
:1023900073B50C4C0C4A4023041B00930D460B46AE
:1023A0000A49A41061430646094802F03FFF011E96
:1023B00005DA30462B4602B0BDE87040184702B03F
:1023C00070BD00BF0C0E00209D520000B76DDBB643
:1023D0009C710000002270B5012104461046FFF7F1
:1023E000CBFB0F4801F01AFD0E4B984215D104F0BB
:1023F000D2FD26690C49304602F083FD00280BDB34
:10240000012535642469084904F11C0002F079FDB6
:10241000002801DBE564002070BD6FF00400FBE7DD
:10242000612400000000AD0BE474000070B50146AB
:102430000C2309484B43C418D4E90E5600224033FC
:10244000A263184402F0B3FE2DB132462B46034876
:10245000BDE87040184770BD0C0E00209C71000054
:1024600010B1012804D07047034B1B6C5B0701D1EE
:10247000FFF7DCBF704700BF0C0E002008B54FF01F
:102480002003EFF3118183F31288BFF36F8F124A99
:10249000136843F002001060DA0708D481F3118852
:1024A000BFF36F8F0120BDE8084004F081BD4FF0FD
:1024B0008043D3F80C24D3F80C34D307EED5074867
:1024C00002F075FE81F31188BFF36F8F0020BDE825
:1024D0000840FFF7ABBF00BF5C0E00204C0E002091
:1024E000094BBFF35B8F53E8002F22F0020143E852
:1024F00000100028F7D1BFF35B8FD30702D401206F
:1025000004F092BD704700BF5C0E00202DE9F84337
:102510003649BFF35B8F0746012251E8003F41E88F
:1025200000200028F9D1BFF35B8F33B9304931481F
:102530004B60CB608A6002F0F7FC7B1E012B2DD82C
:10254000012F07D14FF08043D3F81C3403F003036D
:10255000012B23D004F0E7FD054608BB264B1B7872
:10256000F3B14FF080430222C3F808230646DFF898
:102570008C904FF080444FF00108D4F81834D4F810
:102580001824D20316D503F00303012B01D0012F29
:1025900010D12DB386F31188BFF36F8FBDE8F88398
:1025A0004FF02003EFF3118683F31288BFF36F8F90
:1025B0000125DCE73046FFF78BFAD4F81835002BFD
:1025C000DBD1D4F80421002AD7D0C4F80431D4F8E0
:1025D0000431C4F81885C9F88081C4F80880CCE7B4
:1025E0004FF080430222C3F80423D7E7080E0020EF
:1025F000F80D0020280E00206D2C002000E100E0E6
:1026000008B5074804F080FD38B10648FFF76AFEB8
:102610000448FEF7B7FE002008BD6FF01200FBE78C
:10262000FC710000292600000A2838B5074D044631
:1026300004D1AB680D215B6828469847AB68034816
:102640005B68E1B29847204638BD00BFFC710000CE
:1026500030B54068057B01F01F04B2F5001F85B05E
:1026600044EA451405D1204601F058FE002005B08B
:1026700030BD0025B2F5800FCDE9025514D1B3F17C
:10268000007F0CBF042305238DF808300023194672
:1026900002AA204601F080FC1F4B984239D101214B
:1026A000204601F0F3FDE1E7B3F1C06F26D0B3F1AE
:1026B000007F14BF012302238DF808308368CB40CC
:1026C000D907E3D4B2F1A07FE0D16209012A04F076
:1026D0001F03124A03F5E07318BF4FF0A04252F8EF
:1026E0002330DB07D2D40DF107052946204601F03F
:1026F00079FD0B4B984203D00395C7E70323DBE733
:10270000284601F0BDFD044B9842F5D06FF00B0058
:10271000ADE76FF01500AAE70000AD0B0003005015
:102720000400AD0B10B501F09BFD044668B901F043
:102730006FFD084B98420AD10748214601F04CFD35
:10274000224605210620FFF717FA002010BD6FF082
:102750000400FBE70000AD0B5D270000420970B5E7
:10276000034602D0012A17D070BD0D4E3269516860
:102770000029F9D003F01F0301250C689D400029B2
:10278000F2D08A682A4002D04B68304698472CB174
:10279000236821461C46F2E7024EE7E72346F8E7A6
:1027A000CC710000B47100002DE9FF4147683B7B0C
:1027B00001F01F0545EA43150E4628460DF10301B9
:1027C000144601F00FFD14F4403F80460BD128461B
:1027D00001F0CCFD3D4B984503D19DF8030001F07D
:1027E00049FD00200CE00023194602AA2846CDE945
:1027F000023301F0D1FB354B984204D06FF0150045
:1028000004B0BDE8F081804503D19DF8030001F0DC
:1028100031FDA3034BD540F206332340B3F5837F4C
:1028200019D00CD8062B17D004D8ABB1022BE5D1A8
:10283000042311E0B3F5807FE0D101230CE040F2E6
:102840000222934227D0B3F5407F26D0B3F5007F14
:10285000D4D1022300E007238DF8043084F48033C0
:10286000C3F30043E0068DF8053054BFC4F34013B2
:10287000032321038DF8063011D57A680123B34074
:10288000C2F80835002201A9284601F033FC0F4B9D
:102890009842A6D0B2E70523DEE70323DCE7620314
:1028A00041BF01237A68B340C2F80C35EAE7E3067A
:1028B0004FF0000354BFC4F3401403241A4601A987
:1028C00028468DF8044001F067FBE0E70000AD0BFF
:1028D000024B0B6001231360704700BF780E00208D
:1028E000004870477C75000010B504F001FC034CF3
:1028F000206004F0F9FB6060002010BD780E00201D
:10290000F8B50E46144604F0EFFB21460546304666
:1029100002F028FD374600B3B6FBF5F305FB136361
:1029200023B9B4FBF5F305FB134343B10D4823462C
:102930003246452102F06FFB6FF0150002E0A54220
:1029400001D90020F8BD04F0CFFB0546384601F060
:102950001BFE641B2F44F9D1F3E70348234632469C
:102960004521E7E7CA810000EE810000F8B50E4678
:102970003046194617461D4602F0F4FC40B913488C
:102980002B463246452102F046FB6FF01500F8BD9C
:1029900046EA050414F0030404D00D482B463246E1
:1029A0004521F0E74DB12B19032BA6EB040006D807
:1029B000084AD2F80034DB07FBD50020E7E73B1BD1
:1029C000043C196801F000FEEDE700BFEE81000055
:1029D0001082000000E0014070B50D4628461946FF
:1029E00016461C4602F0BEFC40B9084823462A465B
:1029F000452102F010FB6FF0150070BD24B1224696
:102A00002946304602F0B3FB0020F6E7EE810000D5
:102A1000F8B5044607690D4604F085FB90B92C4BC8
:102A20001B787BB16426606802F031FDE0B90120BB
:102A300004F055FA013EF6D1F4E786F31188BFF3AE
:102A40006F8FEFE74FF02003EFF3118683F31288C7
:102A5000BFF36F8F6068314602F019FD90B986F3BD
:102A60001188BFF36F8FEDE74FF02003EFF311866E
:102A700083F31288BFF36F8F6068314602F007FD61
:102A80000028DAD03B691D70626838691368C3F8A2
:102A900044050120C3F848050020C3F82001D3F8FD
:102AA0002051C3F858015268D3F85801D20608D50E
:102AB000626812680820C2F800054FF48002C3F86B
:102AC000042301229A6081F31188BFF36F8FF8BD50
:102AD0006D2C0020F0B54B79012B29D0032B24D18C
:102AE00010278B79032B20D1CE790EB1012E1CD16A
:102AF0000A79012A1ED0022A20D0B2B914460B68E6
:102B00004568B3F5164FD5F800C06ED033D8B3F58D
:102B1000165F6DD01CD8B3F5966F6BD010D8B3F597
:102B2000967F6AD0B3F5167F6AD06FF085005BE0C0
:102B30000027D6E74FF480740E22E0E70024FBE77D
:102B4000B3F5166F5FD0B3F5965FEED1384B3CE02E
:102B5000B3F5E14F5AD007D8B3F5615F58D0B3F55C
:102B6000964FE2D1334B30E047F61225AB42DCD131
:102B70004FF4000329E0B3F5613F4BD013D8B3F510
:102B8000963F4AD009D84DF6C025AB4247D0B3F5A1
:102B9000614FCAD14FF46B0317E0B3F5E13FC4D1E5
:102BA0004FF0EB7311E0B3F5612F3BD008D8224D05
:102BB000AB423AD0B3F5E12FB7D14FF0E86304E070
:102BC0001E4DAB42B1D14FF080530569CCF824358E
:102BD00043683A431B6834432243C3F86C2503C956
:102BE0002B1D83E803000020F0BD4FF41D03ECE72C
:102BF000134BEAE74FF49E23E7E74FF4A033E4E7F3
:102C00004FF41C33E1E74FF41D23DEE70D4BDCE707
:102C10000D4BDAE74FF06C73D7E70C4BD5E74FF469
:102C20006503D2E74FF07063CFE74FF08063CCE7E6
:102C300000B0130000A04E0090D0030040420F00EF
:102C40000050270000C0750000F03A0000903A01E3
:102C50002DE9F743476806693C680021C4F8001570
:102C60003060D7F80C90804601AA484602F076FC06
:102C7000051E1EDB019BD9F800201979186800F0A9
:102C8000A5FA051E15DB311D4046FFF723FF05465B
:102C900078B97B68990724D506F1180001F0A2FCE9
:102CA000244B984209D02448452102F0B4F96FF032
:102CB0000405284603B0BDE8F083337EDB0003F152
:102CC000804303F5F83304F10C0204F59071C3F866
:102CD0001015C3F81425327E01239340174AC2F819
:102CE00004350823C4F800353B7A53B9C4F81031D1
:102CF000D4F810317369C4F834350123C4F8383579
:102D000023607B689A075CBF4FF48073C4F8043378
:102D10007B68DB0644BF4FF48003C4F80433336997
:102D2000C4F844350023C4F848350123A360E360A8
:102D3000BFE700BF0000AD0B5782000000F001406C
:102D400070B5012383400E4ABFF35B8FDC4352E82A
:102D5000001F01EA040542E80056002EF7D1BFF338
:102D60005B8F4FF4803282400648C0F80823BFF3DF
:102D70005F8FBFF36F8F0B4214BF0120002070BD27
:102D8000840E002000100140F8B51B49044622F0D3
:102D90007F450868C1E90023A5F50013101AB3F5B3
:102DA000400F0FD301F07AFDA30003F1804303F538
:102DB0008833D3F8402595421DD14FF40002C3F863
:102DC000402512E00D4B1B681A0A1B065E190C4BBE
:102DD00042F10007C3E9006701F060FD094A04F50C
:102DE000A87352F823309D4205D1064A4FF4803330
:102DF000A340C2F84433F8BDF8000020880E00203C
:102E0000000100200010014011B3BFF35B8F0123CC
:102E1000104A834052E800CF4CEA030C42E800C15C
:102E20000029F7D1BFF35B8F0B4A4FF48033834007
:102E3000C2F80433094BBFF35B8F1B68BFF35B8F92
:102E4000C340DB0742BF064B4FF40032C3F80021FA
:102E5000704700BF840E002000100140800E00204B
:102E600000E100E00D4B1868010A0006BFF35F8F18
:102E70000B4BD3F80435181841F10001B3F5801F4E
:102E80000AD2084BD3E90023904271EB030303D22B
:102E900010F1807041F10001704700BF880E0020E2
:102EA00000100140000100202DE9F74F14461D4697
:102EB0000746FFF745FF0090FFF7D4FFA04271EBF4
:102EC00005037AD2464B201A65EB0101984271F155
:102ED000000180F08180434B03EB0713D3E9022309
:102EE0009D4208BF944253D04FEA870A0AF1804AB4
:102EF00007F150090AF5883A4FEA89091FFA89F95A
:102F000024F07F4809F180494FF48033DAF8400516
:102F1000354A09F58839BB404646D2F804B5A0EBDE
:102F20000B0020F07F402BF07F410128CAF84015AC
:102F300005D10193132004F0FCF82B4A019B0BF1FF
:102F4000020CA6EB0C0020F07F40B0F5000F88BF0C
:102F500066460020C9F80000D9F80000C2F84433E2
:102F600026F07F40CAF84005D2F80405834506D014
:102F7000301A023820F07F40B0F5000F1BD8A6EBC6
:102F8000080626F07F46361945F1000334461D46F3
:102F900014490C983B0101EB0712C8500D9B53607C
:102FA000C2E90245002438460099FFF72DFF20466C
:102FB00003B0BDE8F08F3046AFE701230B4ABFF303
:102FC0005B8FBB4052E8000F184342E80001002924
:102FD000F8D1BFF35B8FDBE76FF01504E3E700BFC9
:102FE00001000001E800002000100140800E0020D8
:102FF00073B5194B194D00244FF0FF304FF0FF31DE
:10300000C5F80845C3E902014FF48033C5F804331D
:10301000134B02264FF400320121C5F8046311203E
:10302000C3F880212246FEF7A7FD1120FEF788FD98
:103030000C4A0123AB602B6013600B4B0B4A0093CF
:10304000019400232046FFF72FFF3046FFF75EFA7A
:10305000204602B070BD00BFE80000200010014013
:1030600000E100E0840E0020892D0000FFFF7F00BA
:103070002DE9F743334CD4F804339A070BD5D4F831
:10308000043143B1304A0023C4F80431D4F8043188
:103090001368013313604FF02003EFF3118283F3C1
:1030A0001288BFF36F8FD4F80433DB0329D5BFF345
:1030B0005B8F264B53E8001F21F0010043E8000519
:1030C000002DF7D1BFF35B8F11B9D4F84031C3B1F4
:1030D0000025C4F84051D4F8403182F31188BFF381
:1030E0006F8FFFF7BFFE4FF02003EFF3118283F3E2
:1030F0001288BFF36F8F164BD3E90267B042B94114
:1031000006D282F31188BFF36F8F03B0BDE8F0835E
:103110004FF0FF384FF0FF39D3E90010C3E90289BF
:103120001D604FF48033C4F8483382F31188BFF335
:103130006F8F0029E9D0009032463B4628468847E9
:10314000E3E700BF00100140880E0020800E002041
:10315000E8000020431C13B521D0012821DDB0F583
:10316000000F20DA441EFFF77DFE104BD3E9001359
:10317000421AB2F5000F0E4828BF00240132224443
:10318000824228BF024652184FF0000009490190C0
:10319000009143F10003FFF787FE02B010BD044821
:1031A000E0E70024DFE7024CDDE700BFF800002085
:1031B000FFFF7F00892D000008B5FFF753FE024B8B
:1031C0001B68C01A08BD00BFF80000202DE9F041BF
:1031D0004D4E00EB81010127814202D10020BDE864
:1031E000F081056805F07F03C5F343247F2B4FEA88
:1031F000154508BF4FF0FF33192D00F28180DFE83D
:1032000005F00D1F24272A3E277F7F7F7F426B7F9B
:103210007F7F7F7F7F7F7F7F6E76797CC2F80C35E2
:103220004FEA531CBCF1010F03F01F0514BF4FF010
:10323000A04CB44607FA05F5CCF80855012502E084
:10324000C2F814350025AE4624E0C2F80835E7E799
:10325000C2F81035F6E7C2F8083500254FEA531ECC
:10326000BEF1010F14BF4FF0A04EB64603F01F0C85
:1032700007FA0CFCCEF80CC54FF0010E0AE0C2F8BC
:103280000C350125EAE7C2F80835002CDAD1002513
:10329000AE46062450F804CB0CF40058B8F1000FE9
:1032A0004FEA0424CCF3C11803F01F0C4FEA531368
:1032B0001CBF01254FF0000E44EA8804012B0CBF0F
:1032C00033464FF0A04344EA0E040CF5E07C44EA98
:1032D000450443F82C407FE7C2F80C35D5E7C2F827
:1032E00060350568C5F38035002DCAD098E7C2F86F
:1032F0006435F6E7C2F86835F3E7C2F86C35F0E7F5
:103300006FF085006BE700BF0003005030B50C493B
:103310000C4D0B680246002405EB0310D0F808089A
:10332000C0B218B904B10B60002007E00133072BCD
:103330004FF00104F0D90B606FF01B00136030BD3B
:103340008C0E002000E00140034808B5452101F043
:1033500062FE0020FEF7E4FFA782000030B581681E
:1033600085B0103921F00704054601F0A7FE1022B0
:103370000146684601F006FF07491022684601F041
:10338000F6FE10236A462146284601F067FE003803
:1033900018BF012005B030BD2477000030B50D46C0
:1033A000816887B0102302AA1039044601F041FE5B
:1033B000002802DA012007B030BD102202A9204601
:1033C00002F038F900283AD11E49102202A801F073
:1033D000BEFE00280CBF012302232B70204602F002
:1033E00015F9012301460DF10702204601F021FEE7
:1033F0000028DFDB9DF8073003F00F021B096A701D
:103400002B7101220DF10701204602F013F910B9CA
:103410006B78042B03D901236B7000232B71A268F6
:10342000183A22F00702083AA91C204602F015F9C2
:103430000028BFD1E91C204602F068F9BBE703234E
:10344000CBE700BF247700007FB505466946022020
:1034500002F062F9044610B1FF2004B070BD02A969
:10346000052002F059F9012836D129482A46492178
:1034700001F0D1FD274B02938DF80C409DF80050D0
:103480009DF80860244C00222078294602F0C4F8F8
:1034900048B36078314602F0BFF820B3A378042B1C
:1034A00003D09DF8031099421DD1E378042B03D07B
:1034B0009DF80B10994216D12379042B0FD1637913
:1034C000022B1BD1154A1648492101F0A4FD607951
:1034D000831E022BC1D9BFE70028CFD0BCE79DF8DF
:1034E00002109942EBD00132032A04F10604CBD139
:1034F0000C48492101F08FFD0120AEE7032B05D0D8
:10350000094A0A49042B08BF0A46DCE7084ADAE7F9
:10351000EC820000030103035F830000CE82000001
:10352000378300004A830000D3820000E582000058
:10353000C982000001680E4A9142034615D1C16953
:10354000A2F11022A2F1EF1291420ED18268012A5B
:103550000BD8C26812B101698A4206D0586928B1F5
:103560009B691B1A5842584170470120704700BFA1
:1035700055AA00FF70B50D4B9E68A6B13046FFF707
:10358000D9FF044678B9F3686BB935690DB920469F
:1035900070BD2846FFF7CEFF28B9EB68B34202D1D1
:1035A0002E462D69F2E70124F1E700BF900E0020BE
:1035B0002DE9F8433F4F3C68D4B1BC68C4B1002842
:1035C0004AD0002948D001FB00F5B5FBF0F0884255
:1035D00042D1281D40D8A9070DD025F00306043696
:1035E000FC6803E06368B34238D2A469002CF9D1C7
:1035F0002046BDE8F8832E46F2E7FB6041E006F185
:1036000020016318203A5A600022C3E902242A48A4
:1036100022691A6160502949D96102B1D360626997
:103620005A61A1699961AAB193619A6902B1536122
:103630004FF00109C4E9016923610023C4E905339E
:103640003B69DB072ED5FFF795FF58B31C4B484667
:103650001B6826E0FB60E8E70024C9E7A3681BB10C
:10366000174B01201B6898476268921B232A04F1BC
:103670002008C4D80123A360D4E90523002ABCD0C4
:103680009361A3690BB162695A610023C4E90533F0
:103690003B69DA0706D5FFF76DFF18B1084B1B68C9
:1036A000012098472A4600214046444601F06AFD21
:1036B0009EE700BF900E002055AA00FF669911EE0C
:1036C0004C00002070B50546002800F08880444E6C
:1036D0003368002B00F08380B268002A7FD08342D9
:1036E00003D872681344984203D33E4B01201B68F1
:1036F0009847A5F120042046FFF71CFF18B1394B6D
:1037000001201B68984755F8183C012B03D0354B16
:1037100001201B689847002345F8183C55F8143CD5
:103720003BB39A682ABB55F81C2C02F120015A6859
:103730000A445A6055E905321A6155F8145C2B6940
:1037400003B1DD6020220021204601F01BFD286925
:1037500010B18368002B2ED033699B073FD5FFF74C
:1037600009FF00283BD01F4BBDE870401B680120BB
:10377000184755F8100C00282AD0836843BB4268CC
:10378000636813442033636003692361D4E905232C
:103790009AB9CBB9436963618269A261B3B19C6193
:1037A000A36903B15C61236903B1DC6020220021BD
:1037B00001F0E8FCD0E72C46E1E79361A369002B18
:1037C000E8D062695A61E5E7F360F7E7F460E7E79C
:1037D000F36845F8083C03B15C61F460BCE770BD78
:1037E000900E00204C00002038B514220C460546EF
:1037F0000021134801F0C6FC1249134800F034F8C8
:10380000232C1CD915F003031FBF043CE418C3F19B
:103810000403ED1822460021284601F0B3FC084BB2
:103820000A499D60C3E90054203C6C609A681160AD
:103830009A68DA60A1F11021A1F1EF11D16138BDD0
:10384000900E0020C5360000B135000055AA00FFDB
:10385000014B1B68184700BF54000020014B1B6838
:10386000184700BF50000020024B1860024B002098
:103870001960704754000020500000200A4619B11A
:10388000024B00211B681847704700BF58000020FA
:10389000F8B500F108064768044630460D4602F0C8
:1038A000E3FA87424BD16368B3F5807F47D80021A4
:1038B000304602F044FC002841DD0021304602F091
:1038C000A4FAE0B345B9294604F1140002F037FC2C
:1038D000002834DD0020F8BD04F12C050021284625
:1038E00002F02DFC00282ADD0021284602F08DFA86
:1038F00028B304F138050021284602F020FC0028F6
:103900001DDD0021284602F080FAC0B1002104F13B
:10391000140002F014FC002811DD002104F1440021
:1039200002F00DFC00280ADD002104F1500002F035
:1039300006FC002803DD002104F15C00C6E7014815
:10394000C9E700BF80BFFFFF70B500210446FFF745
:103950009FFF054610B10E4D284670BD04F10806C4
:10396000304602F062FA7F28F5D914342946204601
:1039700002F04BFA0028EED0204602F056FA012859
:10398000E9D93146204602F099FB0028E4DBE2E762
:1039900000BEFFFFF0B50C4687B000210546164675
:1039A000FFF776FF002839D103A802F084F92146F9
:1039B0006A6803A802F05EFA044618B103A802F090
:1039C00080F90CE005F10804214603A802F076FB1B
:1039D000002807DB03A802F074F96FF00304A4F5D4
:1039E000854418E005F1680303A96F68009305F1A9
:1039F00014022346084602F0BCFE04460028DDD12E
:103A00003A46314603A802F056FA044603A802F0EB
:103A100058F9002CE3D1204607B0F0BD004CFAE77E
:103A200080BFFFFF234A2DE9F041B1F1000818BF24
:103A30009646214A2149224F224E234D234C18BF3E
:103A4000944602F1794208BF8E4602F5740220497D
:103A500002F5016208BF8C461E4918BF11461E4A76
:103A600018BF17461D4A18BF164602F1D14202F58B
:103A7000C01202F51E6218BF1546194A034618BF48
:103A800014461848C3F86880A2F11162A2F50C220E
:103A9000A2F28E2218BF02460020C3E90000C3E94B
:103AA00002ECC3E90417C3E90665C3E90842BDE8AF
:103AB000F08100BFD89E05C107D57C3667E6096A4C
:103AC0003AF54FA57F520E518C68059BABD9831FE9
:103AD00085AE67BB72F36E3C39590EF7310BC0FFF0
:103AE000A78FF964A44FFABE2DE9F04FD1B0031DA2
:103AF000019300F124030DF58E7B0393019B5A463D
:103B000053F8040F42F8040F03989842F8D14F9BE2
:103B100002934CADDDE94AE395E82011DDE9480761
:103B20000493424B059306AA4FF00009B9F10F0F19
:103B300063D84C780B78240444EA0364CB7823439D
:103B40008C7843EA04234FEAF52A8CEA0804059EA0
:103B500093608AEAB51A2C408AEA756A84EA0C04F2
:103B6000544456F804AB059654442344029CCDF8C3
:103B700008C023444FEA703A40EA07048AEAB00AD0
:103B800004EA0E0400EA07068AEAB05A34435444B1
:103B900009F10109DDF810A0CDF810E0B9F1400FEE
:103BA0009A4402F10402234401F104011ED1CDE93B
:103BB0000634CDE94E8CCDE94CA5CDE94A7ECDE960
:103BC0004830019A52F8043F01925BF8042F1344E5
:103BD000019A1360039B9342F3D106A84FF49471AA
:103BE000FFF74CFE002051B0BDE8F08FBE46C44642
:103BF0000746A8461846554698E7136852F8384CC9
:103C000052F8346C4FEAF34A8AEA734A8AEA932AF2
:103C100052F8143C234452F8344C4FEAB44484EA3A
:103C2000F614534484EAD60423448CE7F875000064
:103C3000024AD2F80034002BFBD0704700E001406C
:103C400010B54FF08053D3F830210D2A55D14FF0E5
:103C500080410022C1F80C21C1F81021C1F838259B
:103C6000484AD3F80404C2F82005D3F80804C2F87F
:103C70002405D3F80C04C2F82805D3F81004C2F8C0
:103C80002C05D3F81404C2F83005D3F81804C2F890
:103C90003405D3F81C04C2F84005D3F82004C2F858
:103CA0004405D3F82404C2F84805D3F82804C2F820
:103CB0004C05D3F82C04C2F85005D3F83004C2F8F0
:103CC0005405D3F83404C2F86005D3F83804C2F8B8
:103CD0006405D3F83C04C2F86805D3F84004C2F880
:103CE0006C05D3F84434C2F87035D1F80034DB07E2
:103CF00009D56FF00103C1F800344FF08053D3F8B9
:103D000030310D2B0CD14FF08053D3F834313BB10F
:103D10004FF01023D3F808224FF08043C3F8582502
:103D20004FF01023D3F80022002A03DBD3F804322B
:103D3000002B22DA144901234FF01020C1F804357A
:103D40001224FFF775FFC0F80042FFF771FFC0F8BB
:103D50000442FFF76DFF0023C1F80435FFF768FF49
:103D6000BFF34F8F09490A4BCA6802F4E06213435C
:103D7000CB60BFF34F8F00BFFDE7064B064A1A60CA
:103D800010BD00BF00C0004000E0014000ED00E0B9
:103D90000400FA055C0000200090D00370B50125F6
:103DA0000268BFF35B8FB2FA82F3C3F11F03DBB289
:103DB00005FA03F422EA040450E8006F964204D1A5
:103DC00040E8004CBCF1000FF6D1BFF35B8FE7D1A8
:103DD00001480B7070BD00BF0000AD0B10B503684B
:103DE000CB40DB0714D401238B400268BFF35B8F09
:103DF00043EA020150E8004F944204D140E8001C1D
:103E0000BCF1000FF6D1BFF35B8FEED1014810BDBE
:103E10000148FCE70000AD0B0400AD0B044B1A7920
:103E200022B9012218601A7102487047024870478F
:103E3000A40E00200000AD0B0C00AD0B10B54FF030
:103E40008043D3F8002152B10020C3F80001D3F819
:103E500000210122C3F80823104B1B6898474FF03C
:103E60008043D3F8042172B10022C3F80421D3F8AF
:103E70000421D3F81824D3F81814920704D101228E
:103E8000C3F818259A6010BD0222C3F80823034B1B
:103E9000BDE810401B680120184700BFA40E002099
:103EA000036803F01F025B09012B0260024818BF80
:103EB0004FF0A040704700BF00030050034B083094
:103EC00033F81000C0F34010704700BF60000020BE
:103ED00070B500F108030C4C34F81330DA050546D0
:103EE0000E4607D5C3F3432304EBC30254F8333023
:103EF00052689847A3682BB1E26831462846BDE86E
:103F00007040184770BD00BF6000002010B4124A16
:103F1000083032F81030D9051BD5C3F3432123F400
:103F2000F85322F8103002F10E04002034F8023F5A
:103F300013F4807F03D0C3F34323994209D00130A7
:103F40002A28F3D1002342F83130044810BCFFF78F
:103F500045BF10BC704700BF60000020C8000020B3
:103F600038B50246FFF7AAFF094C02F1080540B137
:103F700034F8153007495B0B03F5A273002041F8B4
:103F800023001046FFF7C2FF002324F8153038BD88
:103F900060000020006000402DE9FF410446164605
:103FA0001D4601B34E4F00F1080837F818309B0743
:103FB00002D5FFF783FF10BB0023CDE900338DF856
:103FC0000E308DF80F300DF10F020B4620460DF12B
:103FD0000E0103F02BF837F8183023F0020343F0FA
:103FE000010327F8183046B33D4B96F800C07268BD
:103FF00004F1080733F81710880702D5AAB1394829
:104000001DE021F02001C904C90C23F8171062B18A
:10401000BCF1030FF3D872681678BCF1000F11D110
:10402000314A06F5A27642F826C033F8172022F06E
:104030001C0242EA8C0223F8172045BB2B4804B02F
:10404000BDE8F081B20002F1804202F5C04241EACF
:104050004631D2F8100520F00300C2F81005D2F85E
:10406000100520F44F3020F44070C2F810052002F3
:10407000D2F810E500F47C5040EA0C4040EA0E0013
:1040800041F0200123F81710C2F81005CDE7D5E95B
:1040900000672046FFF73AFF002ECFD0104DD5E93C
:1040A0000023964201D19F4218D011480DF10F0113
:1040B000FFF774FE0D4B9842C1D19DF80F2045F8D3
:1040C000326005EBC20308345F6035F8143043EA10
:1040D000422343F4807325F81430AFE70022EEE763
:1040E000600000200400AD0B006000400000AD0B3C
:1040F000C8000020F0B5044685B0154619B3334E0C
:1041000000F1080736F81720930703D4FFF7D6FE0F
:10411000002858D112F01C0F02D04B78012B52D03E
:1041200001238DF80F300023CDE900134A1C8B1CAE
:1041300020460DF10F0102F079FF36F8173043F0F9
:10414000030326F8173015B9214805B0F0BD1F4EFE
:1041500004F1080736F81700830734D595F800C036
:104160006146890020F0200001F18041C00401F582
:10417000C041C00C26F817000023C1F810356A783A
:10418000002AE1D0D1F81035AD7823F4991323F447
:10419000F853C1F81035D1F810E5230203F47C532D
:1041A000120402F4403243EA0E0313432A0502F4D8
:1041B000801240EA4C30134340F0200026F81700EC
:1041C000C1F81035C0E70348BFE700BF600000201A
:1041D0000000AD0B0400AD0B014BC3E902017047B9
:1041E0006000002008B50246FFF768FE38B1054BB5
:1041F0000548083233F812305B0B0B7008BD0348DA
:10420000FCE700BF600000200000AD0B0400AD0B18
:1042100038B50F4C94F86C50BDB95422294604F1BE
:10422000100000F0AFFF0620FDF78AFC094B0A489A
:10423000C3F87C51D3F87C214FF00042C3F804232B
:10424000012384F86C30A36638BD0448FCE700BF46
:1042500060000020006000400000AD0B0500AD0BC9
:10426000034B93F86C00003818BF0120704700BF63
:104270006000002001460148FFF7B0BDC4000020E7
:1042800001460148FFF78ABDC400002037B5044647
:10429000FFF714FE04F108021E4B33F81230E8B1A8
:1042A00013F002051AD15B0B9A0002F1804000F571
:1042B000C24002F1804202F5C04205600068D2F8B7
:1042C000100540F00100C2F8100529B1012202FAE0
:1042D00003F3114AC2F8043303B030BDC3F38203C1
:1042E000042B12D0052B12D001A80194FFF7D8FDA2
:1042F000019BD0F81015D94001F001010231204690
:1043000003B0BDE8304002F0DABE0321F7E7022136
:10431000F5E700BF600000200060004008B50246DD
:10432000FFF7CCFDC0B102F108010E4B33F811309C
:10433000990711D45B0B01229A409B000A4903F1B3
:10434000804303F5C043C1F80823D3F8102522F0B9
:104350000302C3F8102508BDBDE80840002110463F
:1043600002F0ADBE600000200060004013B50E4BAF
:1043700000F10802044633F81230DB0711D5FFF7CD
:10438000CDFF2046FFF7ECFD01A80194FFF788FD63
:10439000019B03F5E073022240F82320034802B09A
:1043A00010BD0348FBE700BF600000200000AD0B1C
:1043B0000400AD0B2DE9F04F684B694869490026B0
:1043C00087B0012234461D6835B1D0F80453154238
:1043D0001EBF1C601D68164304338B424FEA420225
:1043E000F1D1DFF87C91D9F87C31002B00F0998075
:1043F0004FF0A043D3F820250492C3F82025D3F82A
:1044000020280592C3F820284FF000080DF1100A6B
:104410004FEA481300934FF0010B49E0009B524ACA
:1044200094FAA4F4B4FA84F41C44E00804F10803F8
:10443000039432F813701AF8003004F007020BFAF4
:1044400002F223EA02030AF8003003A8FFF728FD6E
:10445000039B03F5E073B90850F82330C7F38205D6
:104460004A072F46C3F301432CD520463946DDB217
:10447000FFF72EFD03A80394FFF712FD039B03F53E
:10448000E07350F82330C3F301439D4207D100216C
:10449000204602F014FE2946204602F010FE03A832
:1044A0000394FFF7FDFC039B0BFA03F3C0F82035E0
:1044B0005AF82840002CB1D1B8F1000F1DD14FF0AF
:1044C0000108A5E7022B0CD10321204602F0F7FDDD
:1044D00005F00503012BE2D139462046FFF7F8FC31
:1044E000DDE702212046019302F0E9FD032DF3D020
:1044F000019B032BD3D1022DEDE74FF0A042C9F869
:104500007C41D9F87C311949D2F820350493C2F89E
:104510002035D1F8202505921343C1F820257FF4DA
:1045200073AF012416B907B0BDE8F08F96FAA6F371
:10453000B3FA83F304FA03F29B0003F1804303F51B
:10454000C04326EA0206D3F81005D3F81015C0F3CD
:104550000520C1F30141FFF7BBFCE3E70061004028
:104560000060004020610040600000200003005017
:10457000044AD2F80034DB07FBD50160BFF35F8F3C
:10458000704700BF00E001404FF080531A69B0FB54
:10459000F2F302FB130373B9084B0222C3F804259C
:1045A000C3F80805D3F80024D207FBD5002204483D
:1045B000C3F8042570470348704700BF00E001407E
:1045C0000000AD0B0A00AD0B10B5054C0123C4F87B
:1045D0000435FFF7CDFF0023C4F8043510BD00BF3C
:1045E00000E0014001460148FFF7D8BBD0000020A1
:1045F00010B5144C144A1549032323616361144B0D
:10460000A261E3614FF4806323620023A3626362CB
:10461000E36222660F4A62661022A266E01D2367EB
:10462000E366636700F082FDBFF35F8F0A492046AF
:1046300000F07CFDBFF35F8F2023A371BFF35F8F7A
:1046400010BD00BFAC0E0020718300007A83000013
:104650006D2800205D2800207E83000073B504468D
:104660000D464FF02003EFF3118683F31288BFF35A
:104670006F8F042896BF124B124B53F82030002244
:10468000009245210246104800F0C5FC3DB1EB699F
:10469000C3F308031BB10D48452100F0BCFC0C4BD3
:1046A0000C480022452100F0B6FC29462046FEF7C2
:1046B0004BFE86F31188BFF36F8F02B070BD00BF51
:1046C000F87600008583000093830000C08300001B
:1046D000E6830000EE8300000F4B70B553F82040D6
:1046E000013053F82060A64200D870BDD4E90035EF
:1046F000284698476DB138B10028B8BF4042EB68F2
:10470000FF28A8BFFF201870EA68537843F0010320
:1047100053700834E7E700BF0C77000008B5094B79
:10472000012203201A70FFF7D7FF00F013F90420CD
:10473000FFF7D2FFFBF74EFE034A137B23F0010382
:10474000137308BD6D2C00200801002008B5034834
:10475000034A0021121A02F0E2FC08BDE800002022
:10476000702C002008B50020FFF7B6FF184B83F32C
:104770000888184C636943F4007363610025E023E3
:1047800084F82230E57725766576A57684F8205082
:10479000636A43F4E023636284F82350FDF76AFC04
:1047A000FDF790F94FF0FF33A362E362FDF76AFD76
:1047B000FDF7ECFC02F0A7FC0120FFF78DFF0220C3
:1047C000FFF78AFF04482B462A462946FDF732FAAE
:1047D000C034002000ED00E01D47000008B5064889
:1047E000064A0749121A02F09CFCBDE80840054A37
:1047F0000549064802F095BC00000020E8000020B2
:104800008884000000000000888400000000002070
:10481000034B1B680BB9FEF7CFBC0020704700BFED
:10482000540F002010B50E4B1C689C4204D1FFF7BA
:10483000EFFF6FF0004010BDFFF7EAFF002CF8D04B
:10484000D4E904321B1A62EBE072B3F1004F72F14B
:104850000001EEDA002AACBF18460020EBE700BFEB
:10486000D400002030B570B10B4B5B6898420AD081
:10487000036843B1D3E90421D0E90445121941EB9F
:104880000501C3E90421D0E9003213605A60002316
:10489000C0E9003330BD00BFD40000202DE9F8434B
:1048A00003464FF02002EFF3118482F31288BFF326
:1048B0006F8F254FDFF89490D9F80000DFF890C093
:1048C0003B604845DCE9001E4FEAE3750CD058B167
:1048D000D0E90486434575EB060217DAB8EB03020C
:1048E00066EB0506C0E9042659184EEB0505CCE930
:1048F000001500253D60FFF795FF2946FEF72AFCCD
:1049000084F31188BFF36F8FBDE8F88318EB0101C2
:104910004EEBE873CCE9001300220023C0E9042326
:10492000FFF7A0FF84F31188BFF36F8F8368984768
:104930004FF02003EFF3118483F31288BFF36F8FDE
:104940003B68A3EB0803B7E7540F0020D400002016
:1049500088010020014800F077BA00BF58840000A9
:10496000704729B101290CBF05206FF01500704771
:1049700002207047002070472DE9F7430E46174686
:104980009946044628B94FF0FF38404603B0BDE8C9
:10499000F0830029F7D0002AF5D0CB680D891D449B
:1049A00004230DEB03022946384600F042FB804603
:1049B0000028E8D1BDF80410738946F60812914228
:1049C00025D1BDF806109942DDD104230DEB030279
:1049D0002944384600F02DFB0028D4D1BDF804202E
:1049E00046F607139A42CED1C4E900679DF82830F5
:1049F000A4F80890A3727389BDF806202B44E360E5
:104A0000738913442B44043563612561BDE7002B92
:104A1000E4D0B8E72DE9F3410E4617461D4604469B
:104A200020B94FF0FF3002B0BDE8F0810368002BE1
:104A3000F7D04368002BF4D04FF6FF78D4E9042375
:104A40009A4216D223685B8923B1E368934204BF7C
:104A5000043323610423216960680DEB030200F035
:104A6000E8FA0028DDD1A37A2BB1D4E903329A42C7
:104A700001D30120D7E72389BDF80610434501F192
:104A8000040203D0BDF804C09C450BD115B1BDF89C
:104A900004302B8023690433336039802369134445
:104AA0002361C0E7236913442361C7E700F04FBBCC
:104AB0004FF4C0735843303070470B78022B06D048
:104AC000052B14BF4FF0FF304FF4C07070474FF408
:104AD000C070704710B5044600F0E9FAA3684FF4BF
:104AE000C072303B02FB103010BD8168183921F0D4
:104AF00007010122083900F0F8BD13B50446019101
:104B000000F084FD0423A0F108010DEB0302204610
:104B100000F0BFFD02B010BD70B513460E4615463D
:104B2000002102460446FCF753F950B92B4604F124
:104B30002C0201212046FCF74BF910B1002E08BFD2
:104B4000002070BD73B5044600200D461646FFF7E1
:104B500008FF6946C0B2FCF75DFF30BB2C2303FBA6
:104B600005440098E36825891D4404230DEB0302E6
:104B7000294600F05EFAC0B9BDF8042064890098A7
:104B800046F608139A4215D1BDF806309C420CD166
:104B900004230DEB0302611900F04BFA28B9BDF8AC
:104BA000042046F607139A4207D0009800F040FA16
:104BB00002B070BD002CF2D0F7E7BDF8061021441A
:104BC00029443160F1E737B50446426A802501A9DE
:104BD00002200195FCF746FF58B9019B226DA362A4
:104BE00001A905200195FCF73DFF054628B10925DF
:104BF00000E00125284603B030BD019B206A6365B3
:104C000000F055FAE065F5E70123036003F10123A5
:104C100043600023C0E9023370474379012B07D179
:104C20000368012B04D10079431E58425841704754
:104C3000002070477FB506460D46022001A9FCF70B
:104C4000E9FE38BB0198FFF745FFF16D04462846A1
:104C500000F0E5F80444019800F029FA06460198AE
:104C600000F02CFA082201460DEB020000F08AFA4F
:104C70002B798DF8083021460198334602AA00F0BE
:104C8000EDF9041E019818BF012400F0D1F9204667
:104C900004B070BD0124FAE700F0F5B92DE9F8433E
:104CA0000E46002107460846FFF75BFE0121044639
:104CB0000020FFF756FE33789C4221D0984221D144
:104CC00001252C2303FB0575F86DAC6AFFF7F0FE98
:104CD000013C07464FF000086B6A03EBC40253F82F
:104CE0003410D2F804901B684A46C91A3046C844AA
:104CF000FFF7D2FFB84504F1FF34EDD3BDE8F883E8
:104D00000025DEE70120F9E737B515460C460520FA
:104D1000694600F001FDE979012903D0002220460F
:104D200000F00EFD9DF80330012B02D1204600F06B
:104D3000E6FCA9682046FFF7E0FE2046FEF70EFBE2
:104D4000002003B030BD73B50D460646FCF728F9C8
:104D50000446E86050B302282DD101A9FCF75AFEA1
:104D600058BB01982A463146FCF780F80446D0B972
:104D7000019800F04BFC012301460DF1030201985C
:104D800000F057F90446A0B9019801220DF1030182
:104D900000F050FC10B101238DF803309DF8033072
:104DA00003F00F03EB71019800F042F9204602B0C6
:104DB00070BD0124F7E70724F8E70124F6E713B5EF
:104DC000022001A9FCF726FE48B90198FFF78DFEE5
:104DD0000446019800F02CF9204602B010BD0124D1
:104DE000FAE71FB5022001A9FCF714FEA8B9019843
:104DF00002A9FEF7D3FA044668B99DF80B30032BDD
:104E000003D1019800F07BFC0446019800F010F9F2
:104E1000204604B010BD0124F7E70124F8E710B5DF
:104E200043790279012B14BFCB01002302F1FF3239
:104E300001FB0233026814BF4C000C46013A04FB2C
:104E4000023010BD002070470FB407B504A951F817
:104E5000040B0191FCF79CFA03B05DF804EB04B07D
:104E60007047038B13F0070305D10368002B0CBFB9
:104E7000002003207047022B05D1408BB0FA80F050
:104E8000400980007047012B05D10368002B0CBF3F
:104E90000020052070470020704710B50C4600B177
:104EA00011B96FF0150010BD081D00F095F800282D
:104EB000F9D1A368032BF6D9F3E72DE9F0410D46AC
:104EC00007461946281D90461E4600F096F80446EF
:104ED00038B13346424629463846A446BDE8F0413B
:104EE0006047BDE8F08110B44FF02004EFF3118269
:104EF00084F31288BFF36F8F416110BC0121FCF76E
:104F000055BA38B50C46054658B151B10B6843B196
:104F10004B6833B11C22002100F034F92C610020D1
:104F200038BD6FF01500FBE770B505460E46FFF77C
:104F3000B4FF041E15DB4FF02003EFF3118283F35F
:104F40001288BFF36F8F6B8B2C8B4FF6FF718B42E8
:104F500004F0070407D182F31188BFF36F8F6FF05D
:104F60000A04204670BD022C0CD101336B8382F3FE
:104F70001188BFF36F8F0023224631462846FFF782
:104F80009CFFEEE7062C14D8DFE804F0041313139B
:104F9000041A0400002333606B683BB9C5E900665E
:104FA000ACB902212846FCF701FADAE71E606E6010
:104FB000F6E782F31188BFF36F8F6FF00404D0E738
:104FC00082F31188BFF36F8F6FF08504C9E782F316
:104FD0001188BFF36F8FC4E7034658B1426802F0EF
:104FE0000302012A03D0032A04D1026812B100206F
:104FF000986070476FF0150070474268816002F05A
:105000000302032A4FF0000203460CBF006810465B
:105010005A60704770470FB407B504A951F8040BE4
:105020000191FCF7B5F903B05DF804EB04B07047EB
:105030007047002930B4044618460BDBA5680844C5
:10504000A84207D8E0686468214484682468A446BC
:1050500030BC60476FF0150030BC7047002930B499
:10506000044618460BDBA5680844A84207D8E06848
:105070006468214484686468A44630BC60476FF06B
:10508000150030BC70470029034610B410460ADBF7
:105090009C680844A04206D8D8685B6819448368B5
:1050A00010BC9B6818476FF0150010BC704708B51E
:1050B000C0688368DB689847006808BD08B5C068A9
:1050C0008368DB689847007908BD70B54C68036851
:1050D000A34201D2012070BD8A682244934201D3C9
:1050E0000020F8E7D1E903254E69B54203D36FF0FC
:1050F0000B038B61F4E71B1B42F8353043680869EA
:1051000002EBC00253600B6901330B61E2E7014619
:105110000068FCF7E7BC00210120FCF7E3BC08B500
:10512000FCF742FDBDE80840FCF7B0BD013903467D
:1051300011F8012F0AB91A70704703F8012BF7E72D
:10514000034600201A5C02B970470130FAE710B537
:105150005AB10139841810F8012B11F8013FA0420F
:1051600001D09A42F7D0D01A10BD1046FCE710B516
:10517000431E0A44914200D110BD11F8014B03F8BF
:10518000014FF7E7C9B202440346934200D170478A
:1051900003F8011BF9E74FF0FF3070470369C9B20C
:1051A0000C2201FB0233186C00F0070070474FF02F
:1051B0002003EFF3118283F31288BFF36F8F03682C
:1051C00003F0C00343F00203036082F31188BFF3CE
:1051D0006F8F704770B5C9B203694FF02004EFF3C9
:1051E000118584F31288BFF36F8F0C2606FB013400
:1051F000246C14F0C00408D0A24206D085F31188B4
:10520000BFF36F8F4FF0FF3070BD71430B4401222D
:105210001A6485F31188BFF36F8F43680B445B6892
:1052200098470020F0E78022FFF7D4BFF8B5069F2B
:105230000469C9B24FF02005EFF3118685F3128897
:10524000BFF36F8F0C2569430C44256C05F0070CE8
:10525000BCF1010F0BD1276486F31188BFF36F8F68
:10526000C4E90E2343685B5898470020F8BD05F059
:10527000C005AF4286F31188BFF36F8F0CBF6FF08C
:1052800077004FF0FF30F1E713B580240094FFF76B
:10529000CDFF02B010BD6FF08500704710B40069FB
:1052A000CBB21C2403FB0400002110BC10470020DB
:1052B00001F07EBE002001F0B7BE43685B68D3F802
:1052C00010350B600020704743685B6802EA0100FC
:1052D00021EA0201C3F80805C3F80C150020704745
:1052E00043685B680020C3F80815704743685B6833
:1052F0000020C3F80C15704743685A68D2F804358B
:1053000021EA03000B40C2F80805C2F80C35002062
:10531000704710B503695868F8B1884219D19C6884
:1053200008685860A14200D19860002008602AB146
:105330005A680A609A68596002B99960002010E0C2
:10534000814206D10868206098688142EDD19C6056
:10535000EBE7044600680028F2D1002AE8D16FF09C
:10536000150010BD38B505460C4601F0B7FE002DFE
:1053700007DBA84205D9401B84428CBF00200120D6
:1053800038BD0020FCE7F7B51C46164600238268AE
:105390002360A36013690D4601AA69469847019BE3
:1053A0005A1E01921BB96FF0150003B0F0BD0098B2
:1053B000A26847682168676085B9B31AD0F800C051
:1053C000634528BF63461A4403FB07112160A260AE
:1053D00002689A4206D808300090E0E76B1AB3FBE7
:1053E000F7F3EBE70020E0E713460022FFF7CBBF1F
:1053F0002DE9F047836886B01B698846914601A96C
:1054000002AA98470024A2462546029BAB4202D836
:1054100006B0BDE8F087019F07EBC50700267B6853
:1054200004933A68B2420AEB060302D801359A4661
:10543000EBE703940593494603A8C0470028E7D04B
:10544000049B01361C44ECE702690B46D2E90101DA
:1054500083E803000020704743681B68D3F880048A
:10546000C3F880047047436802691B68D3F81001D1
:1054700050B15269002012780A70C3F81001D3F8B5
:10548000102101221A6070474FF0FF307047026808
:105490000346D2F8580140B95B689B0706D4D2F89E
:1054A0002001003818BF0120704701207047426872
:1054B0001368D3F80413C90518D5D3F82011A9B17E
:1054C0004FF02000EFF3118180F31288BFF36F8F4C
:1054D000D3F8200130B10020C3F82001D3F8200117
:1054E0000120D86081F31188BFF36F8F5268D20614
:1054F00015D54FF02001EFF3118281F31288BFF32D
:105500006F8FD3F8581111B10021C3F800154FF473
:105510008001C3F8081382F31188BFF36F8F7047BF
:1055200010B50022044601212820FCF725FB282085
:10553000FCF706FB2046BDE81040FDF789BB10B51F
:105540000022044601210220FCF716FB0220FCF792
:10555000F7FA2046BDE81040FDF77ABB70B5436806
:105560006FF060461360057A4468354404EBC50467
:10557000A34202D96FF0010070BD5C798C4201D06A
:105580000833EFE70020F7E773B5054601A80C469E
:105590001646FDF7BBFE70BB4FF080531969B5FB93
:1055A000F1F201FB125242BB1969B4FBF1F201FBAB
:1055B000124212BB1A695B695343A3421DD3E4B183
:1055C000019B1B0103F1804101F5F031C1F8005846
:1055D000C1F80448C1F80868D1F8002895420FD1F5
:1055E000D1F8042894420BD1D1F80838DBB2B34289
:1055F00018BF6FF00D0002B070BD6FF01500FAE734
:105600006FF00D00F7E70222FFF7BEBF8068183881
:1056100020F0070010387047042809D0052803D16E
:10562000481E18BF01207047431A5842584170471E
:105630000120704738B515460C4661B15AB1FFF7E5
:105640003DFD2544214611F8013B834203D1A94287
:10565000F9D1012038BD0020FCE738B50C46012304
:10566000114622460546FFF7E4FC00280FDB012225
:1056700021462846FFF7DEFF38B92378012B14BFF7
:10568000022301232370002038BD0323FAE7012001
:10569000FAE72DE9F7431D4606460F469046FFF709
:1056A00006FD6C1E044440420440082C1AD83046C3
:1056B000FFF704FD2A46814641466846FFF757FD3D
:1056C000621B49460DEB0500FFF75CFD23466A4669
:1056D00039463046FFF7C2FC003818BF012003B03E
:1056E000BDE8F0834FF0FF30F9E707B501238DF8EF
:1056F000042001AAFFF7CDFF03B05DF804FB816829
:105700001839012221F00701FFF7EFBF8268183A2C
:1057100022F00702FFF7A1BF13B50C46C0B201A9E2
:10572000FCF778F950B921460198FDF737FE044699
:105730000198FFF77DFC204602B010BD0124FAE776
:1057400013B541EA021104468DF80710FFF75EFF1A
:10575000012301460DF107022046FFF79AFF02B030
:1057600010BD0020704770B50368CD1A002D02DC13
:105770006FF05F0070BD93F900601C78002E0ADBAB
:105780005C1C04601B7813600368C91A13688B42A1
:10579000EED80020EEE704F07F04013C032C2BD868
:1057A000DFE804F0020A1421012DE1D05B781360D8
:1057B000036802330360E7E7022DD9DDB3F8013057
:1057C0005BBA9BB2136003680333F3E7032DCFDDAD
:1057D0009C785D78DB78240244EA05442343136017
:1057E00003680433E6E7042DC2DDD3F801301BBAA9
:1057F000136003680533DDE76FF06300BAE770B448
:1058000004680E1B002E07DD26789E4208D1013465
:10581000046070BCFFF7A7BF6FF05F0070BC7047FB
:105820006FF06100FAE773B50223154601AA04463A
:10583000FFF7E5FF40B9019E21683246284600F097
:1058400019FB23683344236002B070BDF0B5844671
:1058500017460E4614460025BCF10F0F06F1400610
:1058600004F1400477D804096FF00F0202FB040032
:1058700007284FEA841C01EB841607EB84145DD9DA
:1058800051F80C10A3FB0112691857F80C5042F1A3
:105890000002491947F80C10716842F10002A3FB9D
:1058A00001515219656841F1000152196260B268F4
:1058B00041F10001A3FB02524919A56842F100021F
:1058C0004919A160F16842F10002A3FB015152198C
:1058D000E56841F100015219E260326941F10001CD
:1058E000A3FB02524919256942F1000249192161BD
:1058F000716942F10002A3FB01515219656941F13E
:10590000000152196261B26941F10001A3FB025228
:105910004919A56942F100024919A161F16942F1F1
:105920000002A3FB01155218E16945F10005521868
:10593000E26145F100050838203420364FEA800C3A
:10594000274606EB8000B04240F006816444002DFB
:1059500040F01081F0BD56F8402CA3FB02E215EB9D
:105960000E0E54F8405C42F1000215EB0E0544F8AF
:10597000405C56F83C5C42F10002A3FB05E512EBEB
:105980000E0E54F83C2C45F1000512EB0E0244F8C3
:105990003C2C56F8382C45F10005A3FB02E215EB30
:1059A0000E0E54F8385C42F1000215EB0E0544F877
:1059B000385C56F8345C42F10002A3FB05E512EBBB
:1059C0000E0E54F8342C45F1000512EB0E0244F88B
:1059D000342C56F8302C45F10005A3FB02E215EB00
:1059E0000E0E54F8305C42F1000215EB0E0544F83F
:1059F000305C56F82C5C42F10002A3FB05E512EB8B
:105A00000E0E54F82C2C45F1000512EB0E0244F852
:105A10002C2C56F8282C45F10005A3FB02E215EBCF
:105A20000E0E54F8285C42F1000215EB0E0544F806
:105A3000285C56F8245C42F10002A3FB05E512EB5A
:105A40000E0E54F8242C45F1000512EB0E0244F81A
:105A5000242C56F8202C45F10005A3FB02E215EB9F
:105A60000E0E54F8205C42F1000215EB0E0544F8CE
:105A7000205C56F81C5C42F10002A3FB05E512EB2A
:105A80000E0E54F81C2C45F1000512EB0E0244F8E2
:105A90001C2C56F8182C45F10005A3FB02E215EB6F
:105AA0000E0E54F8185C42F1000215EB0E0544F896
:105AB000185C56F8145C42F10002A3FB05E512EBFA
:105AC0000E0E54F8142C45F1000512EB0E0244F8AA
:105AD000142C56F8102C45F10005A3FB02E215EB3F
