:020000040000FA
:10000000E80400203D050000AF0B000011050000D2
:100010001105000011050000110500001105000088
:10002000000000000000000000000000B10200001D
:10003000110500000000000011050000110500007E
:100040000D0300000D0300000D0300000D03000070
:100050000D0300000D0300000D0300000D03000060
:100060000D0300000D0300000D0300000D03000050
:100070000D0300000D0300000D0300000D03000040
:100080000D0300000D0300000D0300000D03000030
:100090000D0300000D0300000D0300000D03000020
:1000A0000D0300000D0300000D0300000D03000010
:1000B0000D0300000D0300000D0300000D03000000
:1000C0000D0300000D0300000D0300000D030000F0
:1000D0000D0300000D0300000D0300000D030000E0
:1000E0000D0300000D0300000D0300000D030000D0
:1000F0000D0300000D0300000D0300000D030000C0
:100100000D0300000D0300000D0300000D030000AF
:100110000D0300000D0300000D0300000D0300009F
:100120000D0300000D0300000D0300000D0300008F
:100130000D0300000D0300000D0300000D0300007F
:100140000D0300000D0300000D0300000D0300006F
:100150000D03000002234FF080500A4A03F1800192
:100160000133202B42F82100F8D100234FF08050BA
:10017000054A03F180010133102B42F82100F8D128
:1001800000207047002584500028845008B502499B
:10019000024800F0E4FC00BF70160850001608503A
:1001A00010B5094B094C00F01F024009012808BF97
:1001B000234603EB8203D3F8002222F0E04242EA16
:1001C0000172C3F8002210BD00258450002884501D
:1001D00070B54FF02003EFF3118683F31288BFF35D
:1001E0006F8F0124134B144DC3F8004502230321E4
:1001F000C5F8D0360020FFF7D3FF20460321FFF7D4
:10020000CFFF2146C5F804472120C5F80449C5F8A9
:10021000004BFFF7C5FF2020FFF7C2FF0B20FFF7C1
:10022000BFFF0A20FFF7BCFF86F31188BFF36F8F73
:10023000002070BD0010005000400050014800F048
:1002400097BB00BF840E0000014910220A6070476E
:1002500010ED00E072B6404080F31188BFF36F8F5D
:10026000BFF34F8F30BF62B6BFF36F8F704700BFD1
:1002700030BFFFF7FDBF00BF0B4A08B50B4B22F0A4
:100280007F029A60BFF34F8FBFF36F8FD3F8882040
:1002900022F47002C3F8882000F09EFA00F0DEFA23
:1002A00000F040F900F0A4FA0000000000ED00E0CA
:1002B0001EF0040F0CBFEFF30880EFF30980816993
:1002C00011F8021C0229FFD001B500F068FC01BD45
:1002D0000446084611461A46002383F30B880A4B4E
:1002E0002025A3F5806686F30B8883F3098863B61F
:1002F0004FF0000383F31188BFF36F8FA04785F39E
:100300001188BFF36F8FFEE7E804002001B5EFF31B
:100310000580A0F110004FEAC0000449014409C95A
:100320009847BDE801400249084700005C0C000006
:1003300035030000704700BF124B9A6A9A6A9A6AA6
:10034000920708D55A6B9A6A120604D518B19A6AB0
:1003500022F080029A620B4B9A6A9A6A9A6AD006D5
:100360004FF0000058BF9A6A9A6A920642BF5A6AD2
:1003700022F400525A62034A936A43F0FF039362E5
:100380000870704700ED00E00D4B9A6A9A6A9A6A0D
:10039000920507D59A6A120404D518B19A6A22F414
:1003A00000429A620020064B9A6A9A6AD20558BFA8
:1003B0009A6A9A6A42F47F429A620870704700BF54
:1003C00000ED00E0094B9A6A9A6A986A9A6A9A6AFA
:1003D0009A6A9A6A9A6A10F480106FEA02426FEA87
:1003E000124218BF02209A62704700BF00ED00E081
:1003F00070B53E4B0E465B6800258AB0C3F3080318
:1004000085F31188BFF36F8F02F07F41B1F17F4F09
:1004100011D102F00C0108290DD0120701D40646B3
:1004200001250022033B8DF80720032B56D8DFE877
:1004300003F0044D514A2E46F3E72C4BDC6A14F0CE
:1004400002044BD1DA6A002A17DBDB6A5B0014D5A1
:10045000B36933F8022C4DF602739A420CD003F1C3
:10046000604303F626631B78FBB101200DF1070101
:10047000FFF762FF044600E034689DF8073093B947
:100480002022314602A800F099FB099B45B3C3F333
:10049000080222B96FEA53236FEA432309932046E7
:1004A00002A900F07AFB0AB070BD114B1B782BB18A
:1004B00001200DF10701FFF767FFDBE70D4B1B88FC
:1004C0009BB2002BD9D0FFF77DFFD3E700200DF1C1
:1004D0000701CDE700200DF10701ECE70024CCE790
:1004E00023F4FF7323F00103D8E700BF00ED00E021
:1004F00029ED00E02AED00E0044B5A6942F01002B9
:100500005A615A6942F480625A61704700ED00E016
:10051000EFF30880EFF3098101B57246FFF768FF3A
:1005200001BD00BF002320210348C2180133452B21
:1005300082F80013F9D1704700E100E0002080F359
:100540001488BFF36F8F002080F30A8880F30B8834
:1005500000F06EFB00200E490860BFF34F8F0D487E
:1005600080F3088800F03CF8202080F311880A48C6
:100570004FF40061401880F30988EFF314800221E2
:10058000084380F31488BFF36F8FFFF775FE0000F8
:1005900094ED00E0E8040020E8040020BFF34F8F52
:1005A0000549064BCA6802F4E0621343CB60BFF30F
:1005B0004F8F00BFFDE700BF00ED00E00400FA052B
:1005C00000231846054A1168C1F307218B4200D168
:1005D0007047936010610133F8E700BF90ED00E0D1
:1005E00010B572B6002484F31388FFF7E9FF0E4AB2
:1005F000234611464FF0FF3403F120000133102B46
:1006000042F82040F8D100234FF0FF3003F16002A0
:100610000133102B41F82200F8D162B6BFF34F8F9F
:10062000BFF36F8F10BD00BF00E100E01022044B4C
:100630000020C3F840244FF05023C3F8140670473D
:1006400000300050064B1A680433072A1B6805D196
:10065000023B032B02D8034AD05C7047002070474E
:100660003001FF002B0F00004FF05023D3F8582526
:10067000034B02F00302D340024A1360704700BFED
:100680000020A1070000002008B5FFF7DBFF48B1FC
:100690003A4B1A6832B90D2119600121A3F5827312
:1006A00019601A600022D30003F57F03D3F800130A
:1006B000013107D0D3F800130132D3F80433202AD4
:1006C0000B60F0D1FFF7BEFF002850D1FFF7BAFF53
:1006D00038B12B4B2B4A1A604FF050230122C3F83C
:1006E0005825294B1A680433072A1B6808D1023B96
:1006F000032B05D8254AD35C13B10022244B1A6082
:10070000FFF7A0FF50B14FF05023D3F80024D107DA
:1007100042BF0022C3F81421C3F818211A4B1D4A06
:100720001B681268072B09D14FF05023D3F800241F
:10073000D20744BF6FF00102C3F80024FFF782FF25
:1007400010B16522144B1A60144AD2F88C3043F46D
:100750004063C2F88C30124A124B1168C3F844153A
:10076000D269C3F84C25BDE80840FFF77DBF2922B8
:10077000094B1A6003221A63A8E700BF204A005001
:10078000309503504400EFBE3001FF002F0F0000F2
:100790004C2503503401FF000C47005000ED00E0F1
:1007A0000080FF0000600050012208B5084B0220C5
:1007B0001A7000F06DF800F038FA032000F068F8C5
:1007C000FFF7E4FC034A137B23F00103137308BD16
:1007D000E00000206400002008B50348034A00211F
:1007E000121A00F01EFA08BD64000020E400002088
:1007F00008B5174B03F5006282F3088883F30A8873
:100800000025E023134C84F82230E57725766576C1
:10081000A57684F82050636A43F4E023636284F889
:100820002350FFF769FEFFF70FFD4FF0FF33A36280
:10083000E36200F0FBF9284600F02AF8012000F0FE
:1008400027F82B462A4629460348FFF741FD00BFFB
:10085000E804002000ED00E0A907000008B5064804
:10086000064A0749121A00F0DEF9BDE80840054AB9
:100870000549064800F0D7B90000002064000020B8
:10088000340F000000000000340F000000000020C2
:100890000E4B70B553F82040013053F82060A6424B
:1008A00000D870BDD4E900352846984765B1EB689B
:1008B00030B10028B8BF4042FF28A8BFFF20187001
:1008C0005A7842F001025A700834E8E78C0E0000B2
:1008D00010B50A4C23681BB101230020236010BD12
:1008E00000F04EF80028F7D00138072803D8044B51
:1008F00053F8200010BD034810BD00BFC800002001
:10090000A00E0000FE8FFFFFBFF34F8F0549064B7F
:10091000CA6802F4E0621343CB60BFF34F8F00BF9D
:10092000FDE700BF00ED00E00400FA0530B44FF031
:10093000FE3200250B4B0C4C0C494968C3F80024CF
:10094000C3F80424C3F80824C3F80C24C3F8102403
:10095000C3F81424C3F81824C3F81C24C4F80055A1
:1009600030BC0847005084500040845004000020F0
:10097000024BD0E90012C3E90012704704000020C6
:1009800008B500F011F830B900F010F838B9054A90
:10099000C2F80C0A08BD00F037F8032008BD042097
:1009A00008BD00BF005084500020704710B51148AA
:1009B00000F048F800B110BD0F4800F043F80028DF
:1009C000F9D10E4C204600F03DF80028F3D10C4B35
:1009D0000C481C6000F036F801460028EBD100F00E
:1009E0002DF8044608B1204610BD00F03FF820461F
:1009F000FAE700BF180000200C00002014000020BF
:100A00001C0000201000002008B5084800F024F861
:100A1000074800F021F8074800F01EF8064800F0EB
:100A20001BF8BDE8084000F00BB800BF180000201C
:100A30000C0000201400002010000020002070474F
:100A4000704700BF08B5034B02681B6810689847E1
:100A5000002008BD2800002008B5034B02685B6831
:100A600010689847002008BD2800002070B5094C88
:100A7000094D2069AB68984718B1084B08485B6876
:100A800098470021074AEB6811602069BDE8704073
:100A9000184700BF38000020280000200400002074
:100AA000C00E0000CC00002010B5044630B16368D1
:100AB000DB0602D500232360636010BD024B0348B0
:100AC0005B689847F3E700BF04000020E00E0000D9
:100AD000B0B1436893B1DB060ED5012350E8002F77
:100AE000194640E8001C9CF0000FF7D1012AF5D010
:100AF000BFF35F8F0020704703487047034870477B
:100B00006FF4E040704700BFE98FFFFFEA8FFFFFFF
:100B1000034668B142683AB1D20607D5BFF35F8F8A
:100B2000002210461A607047034870470348704718
:100B30006FF4E040704700BFEA8FFFFFE98FFFFFCF
:100B400010B5044620B1002211232260636010BD5D
:100B50000148FFF7EBFEF6E7080F0000704772B69A
:100B6000002340F8103B8842FBD9BFF34F8F30BFC2
:100B7000FDE708B54FF02002EFF3118382F31288EE
:100B8000BFF36F8FFFF70AFDFFF764FBFCE77047C9
:100B9000002008B5FFF7EDFF704700F032B80146BE
:100BA000006800F02EB800210120FFF7F6BF08B55D
:100BB000FFF75EFBBDE80840FFF7BCBB10B5431E66
:100BC0000A44914200D110BD11F8014B03F8014FC6
:100BD000F7E70346C9B20244934200D1704703F8D5
:100BE000011BF9E7002008B5FFF7D8FCFFF770BE3E
:100BF00008B5FFF723FBFFF7CFFFBDE80840FFF77D
:100C000067BE10B54FF02003EFF3118483F3128811
:100C1000BFF36F8FFFF7E6FF84F31188BFF36F8F89
:100C200010BDFFF7D6BFFFF7C9BF70477047000080
:100C3000FFF72ABDD10100000000000055010000AF
:100C400000000000ED0B000000000000F10B0000B0
:100C5000000000002D060000000000000000000061
:100C6000A70B000000000000A70B00000000000020
:100C7000A70B000000000000A70B00000000000010
:100C8000A70B000000000000A70B00000000000000
:100C9000A70B000000000000A70B000000000000F0
:100CA000A70B000000000000A70B000000000000E0
:100CB000A70B000000000000A70B000000000000D0
:100CC000A70B000000000000A70B000000000000C0
:100CD000A70B000000000000A70B000000000000B0
:100CE000A70B000000000000A70B000000000000A0
:100CF000A70B000000000000A70B00000000000090
:100D0000A70B000000000000A70B0000000000007F
:100D1000A70B000000000000A70B0000000000006F
:100D2000A70B000000000000A70B0000000000005F
:100D3000A70B000000000000A70B0000000000004F
:100D4000A70B000000000000A70B0000000000003F
:100D5000A70B000000000000A70B0000000000002F
:100D6000A70B000000000000A70B0000000000001F
:100D7000A70B000000000000A70B0000000000000F
:100D8000A70B000000000000A70B000000000000FF
:100D9000A70B000000000000A70B000000000000EF
:100DA000A70B000000000000A70B000000000000DF
:100DB000A70B000000000000A70B000000000000CF
:100DC000A70B000000000000A70B000000000000BF
:100DD000A70B000000000000A70B000000000000AF
:100DE000A70B000000000000A70B0000000000009F
:100DF000A70B000000000000A70B0000000000008F
:100E0000A70B000000000000A70B0000000000007E
:100E1000A70B000000000000A70B0000000000006E
:100E2000A70B000000000000A70B0000000000005E
:100E3000A70B000000000000A70B0000000000004E
:100E4000A70B000000000000A70B0000000000003E
:100E5000A70B000000000000A70B0000000000002E
:100E6000A70B000000000000A70B0000000000001E
:100E7000A70B000000000000A70B0000000000000E
:100E8000A70B000000000000910B0000340C0000D4
:100E90004C0C00004C0C00005C0C00005C0C0000D2
:100EA000FF8FFFFFFF8FFFFFFE8FFFFFFE8FFFFF14
:100EB000FD8FFFFFFC8FFFFFFC8FFFFFFB8FFFFF0E
:100EC000436F756C64206E6F74206C6F636B207061
:100ED0006F7765722073617665206D757465780033
:100EE0006D757465785F667265652063616C6C65AD
:100EF000642077697468204E554C4C207061726193
:100F00006D6574657200000043616E277420696E20
:100F1000697469616C697A65206D757465782C20D7
:100F2000776173204E554C4C0D0A00010000000102
:100F3000010000000090D00300000000090900003B
:100F40003C00002048000020400000203800002025
:100F500014000020D000002011000000410B000010
:100F6000A90A0000D10A0000110B00005C0000205B
:100F70002000002054000020000000004C00002051
:100F8000D400002011000000D80000201100000053
:080F9000DC000020110000004C
:020000040100F9
:100000000808002159200001DF5C00012D200001BB
:100010002D2000012D2000012D20000100000000F6
:10002000000000000000000000000000591B00015B
:100030002D20000100000000011B00012D20000107
:10004000D91B0001D91B0001D91B0001D91B0001DC
:10005000D91B0001D91B0001D91B0001D91B0001CC
:10006000B75A0001D91B0001D91B0001D91B00019F
:10007000A15A0001D91B0001D91B0001D91B0001A5
:10008000D91B0001D91B0001D91B0001D91B00019C
:10009000D91B0001D91B0001D91B0001D91B00018C
:1000A000D91B0001D91B0001D91B0001D91B00017C
:1000B000D91B0001D91B000153B94AB9002908BF57
:1000C00000281CBF4FF0FF314FF0FF3000F070B937
:1000D000ADF1080C6DE904CE00F006F8DDF804E09F
:1000E000DDE9022304B070472DE9F047089E0D4674
:1000F00004468A46002B7FD18A42174641D9B2FA7C
:1001000082F24AB1C2F1200105FA02F3974094400D
:1001100020FA01F141EA030A4FEA17484FEA144C6A
:100120001FFA87F9BAFBF8FE08FB1EA30EFB09F1C4
:100130004CEA0343994206D9FB1802D2994200F2D5
:1001400024810EF1FF3E591AA3B2B1FBF8F008FB6F
:10015000101100FB09F943EA0144A14505D93C19F6
:1001600002D2A14500F20E810138A4EB090440EA55
:100170000E4000211EB1D4400023C6E90043BDE873
:10018000F08702B9FFDEB2FA82F2002A4FD1CB1B10
:100190004FEA174E1FFA87F80121250CB3FBFEFC2E
:1001A0000EFB1C302B4608FB0CF945EA0045A9451F
:1001B0000AD97D192CBF01230023A94502D9002BA0
:1001C00000F0D9800CF1FF3CA5EB0905A3B2B5FB0B
:1001D000FEF00EFB105508FB00F843EA0544A0456D
:1001E00005D93C1902D2A04500F2C9800138A4EB20
:1001F000080440EA0C40BDE78B4208D9002E00F00D
:10020000B1800021C6E900050846BDE8F087B3FAD1
:1002100083F1002946D1AB42C0F0A780824240F270
:10022000A4800846002EAAD0C6E9004AA7E7C2F17A
:100230002000974001FA02F34FEA174EC14024FA1A
:1002400000F51FFA87F894401D43B1FBFEF02B0C1C
:100250000EFB101100FB08FC43EA01439C4509D941
:10026000FB182CBF012100219C4502D9002900F078
:1002700095800138A3EB0C03ADB2B3FBFEF10EFB8E
:10028000113301FB08FC45EA0345AC4505D97D194E
:1002900002D2AC4500F289800139A5EB0C0341EA9A
:1002A00000417AE7C1F120048B4002FA01F705FA18
:1002B00001FCE24020FA04F8E54000FA01FE134395
:1002C00048EA0C024FEA13484FEA124C1FFA83F92E
:1002D000B5FBF8FA08FB1A550AFB09F04CEA054C85
:1002E00060450AD913EB0C0C2CBF01250025604595
:1002F00001D9002D55D00AF1FF3AACEB000C92B2B7
:10030000BCFBF8F008FB10CC00FB09F942EA0C4CEE
:10031000E14505D913EB0C0C01D2E1453BD801387E
:1003200040EA0A40ACEB090CA0FB0789CC454546E6
:100330004A4602D306D1C64504D20138B8EB0705B8
:1003400069EB03022EB3BEEB05036CEB020C23FA40
:1003500001F20CFA04F42CFA01F300211443C6E96B
:1003600000430CE73146304609E7841A65EB030386
:1003700001209A4656E7ACF1020C3D4424E70238CE
:100380003C4434E702383C44EFE6AEF1020E3B4415
:10039000D9E63146F3E602389C44C1E702383B44D3
:1003A00068E7AAF1020A9C44A7E702393D4474E7D2
:1003B000704700BF2DE9F041012543688D401B685F
:1003C00004461D42164607690AD11549154840F2F0
:1003D000924205F061FC40F29241114805F055FC53
:1003E0003B681D42636818BF86F001061B681D420A
:1003F0000AD10B490B484FF48D6205F04DFC4FF4C8
:100400008D61074805F041FC36B1A368DB682946D9
:100410002046BDE8F0411847A3681B69F7E700BF15
:10042000C0640001F164000170B503780446012B3B
:100430003BD100F083FA647804F00304012C34D13A
:100440001B4E1C4D32781C2102F00702013A032A90
:1004500094BF002201222868FFF7ACFF3278286899
:1004600012F0060F22D002F00702052A94BF0022E4
:1004700001221D21FFF79EFF32781E2102F00702A4
:10048000033A032A94BF002201222868FFF792FF53
:1004900032781F2182F00402C2F380022868FFF73D
:1004A00089FF054A13780133137070BD2246E0E7D7
:1004B0005803002138020021BC0000214FF0FF3317
:1004C000C340DB0710B504460AD40B490B4840F281
:1004D000292205F0E1FB40F22921074805F0D5FB70
:1004E000074800EB8400D0F8003203F0E04343F00B
:1004F0000303C0F8003210BD09650001F16400017A
:1005000000058C412DE9F74F2D4803F03FFE2D4C9F
:10051000206050B945212A4A2B4805F0CBFB6FF0EB
:100520000406304603B0BDE8F08F0025DFF8A08058
:10053000DFF8A090DFF8A0B0266818F8017BB36858
:100540007268009301231268BB401342D6F810A0D2
:100550000CD14FF4357249465846019305F09CFB87
:100560004FF43571484605F090FB019BDAF8002006
:10057000304622EA0303CAF80030009B4FF40032F1
:1005800039461B689847064640B103462A4645212E
:100590000E4805F08FFB00232360C2E70122394695
:1005A00020680135FFF706FF042DC5D10720FFF7AE
:1005B00085FF1920FFF782FF1A20FFF77FFFB0E7C2
:1005C0003C650001380200214365000166650001B9
:1005D00092650001C0640001F164000107B50122C9
:1005E0000F4BC3F80025D3F80825002AFBD0FFF7EE
:1005F00089FF0C4B0C4A5A6000221A809A700B4AF1
:100600009A600B4ADA6040221A741A6900920FCB82
:1006100000F048FA03B05DF804EB00F077B900BFD2
:10062000004000413C02002129040001BC000021DF
:10063000580300210F2230B41F49204D0B7801339D
:10064000B3FBF2F2C2EB02129B1A1D4ADCB2D25C7F
:100650001C4B0C70C3F8082501225A6004221A4B67
:100660001A702A78012A12D11848194B01780F29DB
:100670000FD10021297045F6C0515A60DA60C3F8E5
:1006800040151A60134B1A786AB100221A7030BCF8
:10069000704740F2DC5501315A60DA60C3F84055CA
:1006A0001A600170EEE702230B4803700B4B447095
:1006B0001B6830BC184700BFFF0300210204002163
:1006C0009C65000100800041FE030021F903002128
:1006D00000C00041FB030021FC0300215002002167
:1006E000F8B5184D184C2B780BB10123236140F25B
:1006F0001313C4F8003210230F221449C4F8043332
:100700000B7813480133B3FBF2F2C2EB02129B1ACF
:10071000DAB20A700F49104FCB5C104EC4F808359E
:10072000002303700E4B42701B6898470D4B3A78BC
:100730001968701C05F003FB3B78337001232B70A4
:100740002360F8BDFE03002100800041FF0300216B
:10075000FC0300219C6500010004002178030021B6
:100760005002002158020021074A117801290AD1BC
:1007700040F21110054BC3F800020820C3F804032F
:100780005960022313707047FE030021008000416E
:10079000026810B55309044629D0012B4FF6FF73A8
:1007A00018BF002302F01F02D340DB070AD412490E
:1007B000124840F2292205F06FFA40F229210E4832
:1007C00005F063FA236803F01F025B0922600CD076
:1007D000012B0FD00849094840F22E2205F05CFA9F
:1007E00040F22E21044805F050FA054810BD4FF0A4
:1007F000FF33D7E70348F9E709650001F164000119
:1008000000058C4100088C4137B52F4C2378042B10
:100810004BD12E4AD2F80034DB0744D501252C4CAD
:100820002C4B01A81D70D4F8043343F40033C4F8F2
:1008300004336564D4F84435A3F58C73C4F84435A7
:10084000D4F8443503F5AF73C4F84435D2F84835CD
:10085000214A5B425BB2137019230193FFF798FFA3
:100860000022019B05FA03F383601C4B1A701C4B9A
:100870001A7802B91D7040F2A1436560E560C4F8C2
:1008800040351923256001A80193FFF781FF019BE3
:1008900005FA03F3C360134B13481B7805704370CC
:1008A000124B1B68984703B030BD032BFBD10723C5
:1008B00001A80193FFF76CFF0123019A9340C360E5
:1008C00004232370EFE700BFFE03002100800041F6
:1008D00000C00041FB03002101040021F9030021B5
:1008E00002040021FF030021FC030021500200212B
:1008F0000022054BC3F8002101221A60D3F8002121
:10090000002AFBD0704700BF0050004145F6C0539D
:10091000074AC2F840350123D3601360A2F5804234
:1009200053600022034B1A700422034B1A70704765
:1009300000C0004102040021FE03002110B5054C57
:10094000054B2146186811F8012B05F0F8F92078BD
:1009500010BD00BF7803002154020021214BF7B5E0
:10096000D3F84041012C13D10022C3F840211A23AF
:1009700068460093FFF70CFF009A4368944024EA0E
:1009800003021C40184B82601B68C46003B1984787
:10099000144BD3F84441012C22D10022C3F8442146
:1009A000C3F844254FF48032104DC3F804232B784C
:1009B000042B15D10E4B0F4F0F4E19683A78701C4F
:1009C00005F0BDF93B7801A8337003232B700B4B66
:1009D0001C6007230193FFF7DBFE019B9C408460B2
:1009E00003B0F0BD00C0004160020021FE03002101
:1009F00058020021000400217803002100800041FA
:100A00002DE9F041214CD4F80C3143B3D4F8043330
:100A1000180724D500271E4BC4F80C711B78F3B1BE
:100A20001C4E96F80080B8F1020F18D1D4F80034AB
:100A3000D90714D5D4F808541749184B11F8012BCD
:100A40001B68EDB2681E02FB003005F078F9022D3C
:100A50004FF0010314D0A360A36086F800800B4B15
:100A6000D3F810217AB1D3F80423D2060BD5002293
:100A7000C3F810210A4B1B682BB1BDE8F0411847A1
:100A800023613770EBE7BDE8F08100BF00800041D3
:100A9000FA030021FE030021780300215402002103
:100AA0005C02002184B070B504AC84E80F005B4B9D
:100AB000059A9DF810101A60069A594B594E1A6003
:100AC000079A594B31701A609DF82020574B1A70C5
:100AD000FFF70EFF564A0029564B08BF1346564AE9
:100AE0001360564A564B08BF1346564A1360564B7E
:100AF000D3F8502642F00102C3F850260122C3F871
:100B0000FC2F0822C3F81425504AC3F818250222E6
:100B1000C3F834254FF6FF72C3F83C254C4AC3F89E
:100B2000382540F21312C3F800229DF81220002A43
:100B30006BD0012A02D10322C3F81025002206211E
:100B4000082000F083FF082000F062FF4FF480735C
:100B5000A022404DC5F8803185F808232B60102372
:100B6000394C3D48C4F8043304F083FF00BAC4F89C
:100B70001C053A4804F07DFF00BAC4F82005384847
:100B800004F077FFC4F82405364804F072FF364BB2
:100B9000C4F828050022C4F8043506210C2000F012
:100BA00055FF0C2000F034FF4FF48053C022C5F8ED
:100BB000803185F80C232B604FF480322B4BC3F827
:100BC00004230422C3F810250322C3F808250122B8
:100BD000C3F800229DF81130C4F80C353378B3B156
:100BE0000023C4F82C35FF23C4F83035204B214AAC
:100BF0001B78BDE87040D25C134B0021C3F8082578
:100C00001948812204B005F0A5B8042294E7022314
:100C1000C4F82C35C4F83025E8E700BF50020021A5
:100C200058020021FA03002154020021000400218F
:100C300035060001E10600016002002109080001FB
:100C4000690700015C02002100800041800003016F
:100C50002110010000E100E000000021040000215B
:100C6000080000210C0000217803002100C0004191
:100C7000FF0300219C65000138B54468054604F077
:100C80000304032C816002D02CB1002000E0006836
:100C900000236B6038BD45220449054804F0FCFF81
:100CA0004521024804F0F1FFEFE700BFAB6500010A
:100CB000F16400010B6801330B60014B1B6818479E
:100CC00014000021014B1860704700BF1400002180
:100CD00007B50B46002102460191034801A900F027
:100CE0006DFA03B05DF804FBB50C00012DE9F74F78
:100CF000B0F81CA004461AF0080F93461CD0012936
:100D00000CBF4AF0100A4AF0200AA0F81CA004F117
:100D1000140003F069FC40B9BA49BB48B92204F099
:100D2000BBFFB921B74804F0B0FF8BF31188BFF3C4
:100D30006F8F03B0BDE8F08FB44FDFF8CC820AF0BC
:100D4000070A022906D1204604F0E0FE0028DED082
:100D5000012865D1D4F81890A38BB9F1000F19DAE6
:100D60000026256823F00703C4E9006643F0010369
:100D7000A383A38B03F007025245009203D0A2681D
:100D8000002A40F0F18015B9002E00F02B814FF0C1
:100D9000000AEBE003F00702511F012922D80021CD
:100DA00023F00703062A25689BB2C4E900110CD181
:100DB0008D422A4638BF0A462AB1E18B12680131BA
:100DC000E183002AF8D143F002032046A38304F014
:100DD0009DFE06460028CCD0A38B43F02003A383BE
:100DE0000026C6E7042A0DD123F007039AB2204655
:100DF000A28304F08BFE054680B142F0200200255C
:100E0000A283EDE740F21B123946404604F044FF4E
:100E100040F21B11384604F038FF00252E46A8E7A3
:100E2000032831D1BAF1000F0AD0394640464FF4B9
:100E3000AB7204F031FF4FF4AB71384604F025FF7C
:100E4000236853B93946404640F2571204F024FF54
:100E500040F25711384604F018FF23691E6856B94E
:100E6000394640464FF4AD7204F016FF4FF4AD71B1
:100E7000384604F00AFFA38B23F0070343F0060370
:100E80000025A383A94674E704282ED1BAF1020FE6
:100E90000AD03946404640F25D1204F0FDFE40F2B1
:100EA0005D11384604F0F1FEE38B53B139464046FC
:100EB0004FF4AF7204F0F0FE4FF4AF71384604F017
:100EC000E4FE23695E6856B93946404640F2611235
:100ED00004F0E2FE40F26111384604F0D6FEA38B26
:100EE00023F0070343F00403CAE705282ED1BAF123
:100EF000010F0AD0394640464FF4B27204F0CCFEDE
:100F00004FF4B271384604F0C0FE236853B9394635
:100F1000404640F2651204F0BFFE40F265113846CB
:100F200004F0B3FE23699E6856B9394640464FF433
:100F3000B47204F0B1FE4FF4B471384604F0A5FE6B
:100F4000A38B23F0070343F0050399E7002540F244
:100F50006B123946404604F09FFE40F26B11384652
:100F600004F093FE2E468DE74FF0010A43F008038C
:100F7000A38304F114031846019303F035FB40B931
:100F800040462049B92204F087FEB9211D4804F0EB
:100F90007CFE8BF31188BFF36F8FBAF1000F39D14C
:100FA000002D4CD116B120461949B0474FF020030F
:100FB000EFF3118B83F31288BFF36F8F019803F067
:100FC00005FB40B940460F498E2204F065FE8E2194
:100FD0000C4804F05AFE019803F014FBA38B23F095
:100FE0000803A383A38BDA0631D5012123F0100374
:100FF000A383B4F81CA00AF0070A00297FF4A1AE6D
:1010000085E600BFF0650001F1640001CE650001D6
:1010100061100001A1680029C2D00B68002B38BF05
:1010200000239A4620464B46D1F804B0009AD84790
:10103000BAF1000FB4D05146DAF80030EEE7294695
:101040004B462046009A2D6804F07CFDA8E713F07B
:1010500020011EBF23F020030221A383C9E700BFA4
:10106000F8B504460D4600F114064FF02003EFF3E7
:10107000118783F31288BFF36F8F304603F0A6FA0F
:1010800040B90A490A488E2204F006FE8E2107481C
:1010900004F0FBFD304603F0B5FA3A462046A56160
:1010A0000121BDE8F840FFF721BE00BFF065000157
:1010B000F16400012DE9F04704460F4604F058FDA5
:1010C000051E54DB04F114094FF02003EFF3118ADD
:1010D00083F31288BFF36F8F484603F077FA40B965
:1010E000334934488E2204F0D7FD8E21304804F075
:1010F000CCFD484603F086FA4FF6FF71E38BA28BD6
:101100008B4202F007064AD0022E1FD135464FF01F
:1011100001080133E383484603F066FA40B92449E5
:101120002448B92204F0B8FDB921214804F0ADFDEE
:101130008AF31188BFF36F8FB8F1000F17D0002327
:1011400032463946204604F0FDFC10E0930701D0FA
:10115000062E0FD100233B606368EBB9C4E900772A
:101160003546F6B9524602212046FFF7BFFD284614
:10117000BDE8F087052E17D0012E0AD00E490D4884
:1011800040F2C91204F088FD40F2C9110A4804F087
:101190007CFD6FF0040504E01F606760E0E76FF01E
:1011A0000A054FF00008B6E76FF08505F9E700BFC4
:1011B000F0650001F1640001CE6500012DE9F04FFA
:1011C0008B4692461C46002591B002909AF800008A
:1011D00008B928465EE325280AF1010707D05946D9
:1011E000029B98470028C0F25583013510E218226F
:1011F00000210AA804F0AEFD9AF80130252B78D022
:1012000000229446164696461046394617F8013B8A
:101210002B2B00F09D8000F29480202B00F09B800F
:10122000232B00F09A8028B19DF8300040F0040094
:101230008DF83000BEF1000F05D09DF8300040F071
:1012400008008DF830002EB19DF8300040F01000FD
:101250008DF83000BCF1000F05D09DF8300040F053
:1012600020008DF830002AB19DF8302042F0400275
:101270008DF830209DF8302002F04400442803D13E
:101280006FF386128DF830209DF830202A2B42F023
:1012900080028DF830207BD19DF831204B1C42F02C
:1012A00001028DF831201A782E2A0CBF012100216D
:1012B0009DF8312061F341028DF8312074D15A78C4
:1012C0002A2A6AD000210A260133184610F8012B79
:1012D000A2F13007092F40F28E809DF830200E9148
:1012E000C2F3400040EAD17161F341028DF8302031
:1012F0005AE00AF102078DF833309DF83130D907F2
:1013000040F1498154F8049BB9F1000F07DA9DF8C8
:101310003020C9F1000942F004028DF830205A074C
:1013200040F1428154F8048BB8F1000F80F2418102
:101330009DF831306FF341038DF831304FF0FF38B5
:1013400037E12D2B0CD0302B7FF46DAF01225CE701
:101350004FF0010E59E7012657E74FF0010C54E713
:10136000012052E733460CFB0202303A1E4616F8C3
:10137000010BA0F13007092FF4D9994293D09DF8C1
:1013800030100D92D20F62F341018DF830108AE7D0
:101390000B4600224FF00A0CE8E79DF8312002339B
:1013A00042F004028DF831201F4617F8012B6C2AF9
:1013B00041D025D8682A2BD06A2A46D04C2A4CD056
:1013C0001F4617F8012B9DF83130782A8DF833200D
:1013D00000F2D980572A4DD8412A03D0453A022A33
:1013E00000F2D18004229DF8323062F302038DF8BE
:1013F000323001239EE006FB01210346303964E7C9
:10140000742A26D07A2ADBD106229DF831300DE0ED
:101410005A78682A9DF8312006D1012161F3C6026D
:101420008DF831209F1CCCE71346022262F3C603DD
:101430008DF83130C5E75A786C2A9DF8312001D1FA
:101440000421EBE713460322F0E705229DF8313033
:10145000ECE707229DF83130E8E7BDF8303023F49F
:10146000F04323F0020343F4804343F00203ADF85A
:101470003030A6E7A2F15801202900F2848001A0B3
:1014800050F821F04915000187150001871500016A
:1014900087150001871500018715000187150001D8
:1014A0008715000187150001E5130001871500016C
:1014B0004915000109150001E5130001E5130001BC
:1014C000E5130001871500010915000187150001CA
:1014D00087150001871500018715000151150001CE
:1014E000491500016D1500018715000187150001E0
:1014F0006D150001871500014915000187150001D0
:10150000871500014915000101209DF8321003F0F4
:10151000780360F30201402B8DF8321002BF9DF872
:10152000301041F001018DF83010632A31D1003BB9
:1015300018BF01239DF83020C2F340010B4363F331
:1015400041028DF83020D8E602209DF83210DEE707
:1015500003219DF8322003F07803A3F1400061F3EA
:10156000020243428DF832204341E3E703219DF814
:10157000322013F0780F61F3020214BF012300231D
:101580008DF83220D6E79DF8303043F001038DF816
:1015900030300023CEE79DF93020002AACBF4FF059
:1015A000FF39DDF83490BAE69B077FF5C7AEDDF86A
:1015B00038800023CDE90D339DF832309DF831207D
:1015C00003F00703012BC2F3C30236D1D31E042B51
:1015D00020D8DFE803F00307071F1F0054F8040BAF
:1015E000C11704E0073424F00704F4E80201CDE950
:1015F0000A019DF8303013F0030654D03B465246A2
:101600005946029804F02BFB0028C0F243810544A0
:10161000BA46DBE554F8040B012A4FEAE071CDE944
:101620000A0105D19DF828300A9300230B93E0E7C7
:10163000022ADED1BDF92800D2E7022B23D1D31E26
:10164000042B13D8DFE803F0030A0A12120000216A
:101650002068231D0A900B911C46CAE7073424F02A
:101660000703F3E80201CDE90A01F5E754F8043B6A
:10167000012A0A934FF000030B93D3D0022AB8D16A
:10168000BDF82830D0E7042B07D1073424F0070435
:10169000F4E80201CDE90A01ABE7032B04BF54F8DB
:1016A000043B0A93A5E79DF833007828B0D8622858
:1016B00022D825283FF493AD5828A9D1DDE90A01A5
:1016C0000DF1260300930CAA04AB04F07DFA8246C8
:1016D000B8F1000F0DF126000CDB9DF83020A0EBD7
:1016E0000A036FF3861298458DF8302002D9A8EBD3
:1016F00003030D9380463DE06338152888D801A187
:1017000051F820F085170001E917000111160001BA
:10171000111600011116000111160001E917000150
:101720001116000111160001111600011116000119
:1017300047180001151800011918000111160001C1
:10174000111600015D1700011116000115180001A6
:10175000111600011116000115180001B8F1000F53
:10176000DDF828A00ADB4146504604F0D3FA0026F3
:101770000AEB0008BAF1000F0CD149E7504604F01B
:10178000C2FAF4E700260A9B0DF111088DF810301B
:101790000DF1100AA8EB0A0306B101339DF83220BF
:1017A000D0066BD5023352060D9948BF0E9A0B44F2
:1017B00048BF9B18B9F1000F79DD9DF83020A9EBE7
:1017C0000309C2F380030393530770D4500664D512
:1017D00046B159463046029B984700285ADB039B86
:1017E00001351E46302359E01E0711D413F01006B0
:1017F00018BF2026DDE90A23002A73F10001BFF695
:101800005DAF524263EB43032D26CDE90A2355E732
:101810002B26EFE7002651E70A9848B30DF126037F
:101820000093002104AB0CAA04F0CEF9BDF83230CD
:10183000824603F0EF0343F4F04343F01003002625
:10184000ADF8323044E70A9B072A3FF6E1AEDFE805
:1018500002F00D04060D08080D0D1D70D8E61D8060
:10186000D6E62846E917C3E90001D1E61D60CFE6B8
:10187000DFF8C4800646A8F1050A8BE7110748BFC8
:10188000013390E7184603935946029B9847002876
:10189000039B04DA11B0BDE8F08F20234D444A4683
:1018A000002AA5EB090109F1FF39EBDC0D4636B141
:1018B00059463046029B98470028EBDB01359DF8DE
:1018C0003230D90601D41A0706D559463020029B7A
:1018D00098470028DEDB01359DF83230DB0607D55E
:1018E00059469DF83300029B98470028D2DB01350A
:1018F0000D9E2E44731B002B16DC43465246594660
:10190000029804F0ACF90028C4DB0544A944A9EB13
:101910000503002B7FF77CAE59462020029B984799
:101920000028B7DB0135F2E759463020029B984783
:101930000028AFDB0135DDE7226600014FF0200211
:10194000EFF3118382F31288BFF36F8F0121044AF2
:10195000C2F8401583F31188BFF36F8F00207047E2
:101960000000084120B1034B800143F001031847F8
:10197000704700BF90630001014910220A60704760
:1019800010ED00E072B6404080F31188BFF36F8F16
:10199000BFF34F8F30BF62B6BFF36F8F704700BF8A
:1019A00072B6494081F3118820BF80F3118862B676
:1019B000704700BF37B505460C46C9B18B68104863
:1019C0000093D1E90023452104F074F963694521AE
:1019D0000093D4E903230B4804F06CF94521E26934
:1019E000094804F067F94521A269084804F062F942
:1019F0002146284603B0BDE8304002F0F3BB00BFEB
:101A0000276600015B6600018F660001A366000186
:101A100043B2002B08DB012200F01F0002FA00F0A5
:101A2000024A5B0942F82300704700BF00E100E072
:101A3000054B420953F82220012300F01F0003FA4E
:101A400000F01040704700BF00E100E038B54C1CCA
:101A5000072C054608D90D490D48572204F01CF9FA
:101A600057210A4804F011F96BB2002BACBF03F107
:101A70006043084B4FEA4414E4B2ABBF03F5614343
:101A800005F00F0583F800435C5538BDD6660001AC
:101A9000F164000114ED00E030BFFFF7FDBF00BFAF
:101AA00008B5084B084A23F07F039360BFF34F8FBC
:101AB000BFF36F8F02F00CFC03F042FD00F0C0FAA0
:101AC00002F046FC0000000100ED00E0094A0A496E
:101AD000936809685867996708494B6843F08053D1
:101AE0004B60002383F31188BFF36F8F9368986F67
:101AF000704700BF18030021A864000100ED00E05A
:101B000013498A684FF030001044EFF3098C80E8E5
:101B1000F01F202080F31288BFF36F8F0D4F4FF01E
:101B200000668A698A603E60506F0023536780F3C5
:101B3000118802F1300090E8F01F8CF3098802F15F
:101B4000000004B504F0D2F8BDE80440704700007E
:101B50001803002104ED00E01EF0040F0CBFEFF3AA
:101B60000880EFF30980816911F8021C0229FFD077
:101B700001B504F0ACF801BD42F8203C009B0B49D4
:101B800042F81C3C019B21F0010142F8183C029BE9
:101B900042F8081C42F8143C4FF0807342F8043CB1
:101BA0000023203A02654367704700BFB55B000120
:101BB000084B9860436E83F30B88104681F30988C5
:101BC000002163B681F31188BFF36F8F00220023D9
:101BD00003F0F0FF1803002101B5EFF30580A0F139
:101BE00010004FEAC0000449014409C99847BDE804
:101BF000014002490847000044620001011C000145
:101C0000044B99689869884203D003494FF0805289
:101C10000A6070471803002104ED00E070B5274CFE
:101C200006460D462648452104F044F8A26AD0062F
:101C300003D54521234804F03DF8A36A190703D5CD
:101C40004521214804F036F81C4CA36A9A0710D5A8
:101C500045211E4804F02EF8626BA36A1B0608D5C6
:101C600045211B4804F026F81EB1A36A23F0800327
:101C7000A362124CA36AD80703D54521154804F086
:101C800019F8A36AD90602D4A36A9A070ED50B4B9A
:101C90009B6ADB060AD51049104840F24F1203F048
:101CA000FBFF40F24F110C4803F0EFFF0020034A06
:101CB000936A43F0FF039362287070BD00ED00E06B
:101CC0000C670001276700015F670001776700016B
:101CD00094670001AF670001D3670001F164000160
:101CE00070B5204C06460D461F48452103F0E2FF23
:101CF000A26AD30403D545211C4803F0DBFFA36A85
:101D00001C0503D545211A4803F0D4FF154CA36ADE
:101D1000980510D54521174803F0CCFFA26BA36AA4
:101D2000190408D54521144803F0C4FF1EB1A36A65
:101D300023F40043A3620B4CA26A520503D545214C
:101D40000E4803F0B7FFA36ADB0503D545210C4815
:101D500003F0B0FF0020034A936A43F47F43936289
:101D6000287070BD00ED00E00D68000128680001DA
:101D70005F6700013E6800015C6800017668000151
:101D80009668000138B5214C4521214803F092FFA7
:101D9000A26A950103D545211E4803F08BFFA36A73
:101DA000DC0103D545211C4803F084FF174DAC6AC4
:101DB00014F4801404D04521184803F07BFF02245A
:101DC000AB6A180303D54521154803F073FF0F4D87
:101DD000AA6A510303D54521124803F06BFFAB6A91
:101DE0009A0303D54521104803F064FF074DAB6A01
:101DF000DB0303D545210D4803F05CFFAB6A2046A9
:101E00006FEA03436FEA1343AB6238BD00ED00E0B5
:101E1000B3680001D0680001E868000107690001AB
:101E2000366900015969000183690001A269000156
:101E30002DE9F041684B0D46D3F8048000268AB0A6
:101E4000C8F3080786F31188BFF36F8F02F07F4352
:101E5000B3F17F4F07D102F00C03082B10D14521BD
:101E60005E4803F027FF40F2FB325D495D4803F016
:101E700013FF40F2FB315A4803F007FF002505E04D
:101E800012075CBF05460126002DECD00023FA1E88
:101E90001C468DF807301346092B00F28B80DFE8D3
:101EA00003F0057E826689898989898645214E48A5
:101EB00003F000FF484B8DF80740DC6A14F0020481
:101EC00005D04521494803F0F5FE002406E0DA6A12
:101ED000002A1DDA4521464803F0ECFE9DF8073044
:101EE0009BB92022294602A803F029FF099B002E56
:101EF0006DD0C3F3080222B96FEA53236FEA43237C
:101F00000993204602A9FFF755FD0AB0BDE8F0810C
:101F1000DB6A5B003AD54521364803F0CBFEAB695E
:101F200033F8022C4DF602739A420CD003F1604351
:101F300003F626631B786BB101200DF10701FFF753
:101F40006DFE0446CAE745212A682B4803F0B2FE1D
:101F50002C68C3E7294B1B782BB101200DF1070139
:101F6000FFF7BEFEEDE7264B1B889BB213B1FFF7D0
:101F700009FFE6E71A4940F2CD221A4803F08CFE29
:101F800040F2CD21164803F080FEA7E7144940F245
:101F9000D122144803F080FE40F2D121F2E7002064
:101FA0000DF10701CBE700200DF10701D8E745212E
:101FB000144888E7144918F4F87F144A144808BFF5
:101FC0000A46A7F11003452103F074FE7DE723F4D0
:101FD000FF7323F0010393E700ED00E0006A0001C6
:101FE000D3670001F1640001306A00014C6A00010E
:101FF000726A0001856A0001A96A000129ED00E00A
:102000002AED00E0CA6A0001D2690001E769000117
:10201000F36A0001044B5A6942F010025A615A698E
:1020200042F480625A61704700ED00E0EFF30880EF
:10203000EFF3098101B57246FFF7FAFE01BD00BF5B
:10204000002320210348C21801331E2B82F80013FD
:10205000F9D1704700E100E0002080F31488BFF35D
:102060006F8F002080F30A8880F30B8804F098F8C3
:1020700000200E490860BFF34F8F0D4880F3088899
:1020800000F03CF8202080F311880A484FF40061EA
:10209000401880F30988EFF314800221084380F38D
:1020A0001488BFF36F8FFFF7FBFC000094ED00E096
:1020B0000808002108090021BFF34F8F0549064B8E
:1020C000CA6802F4E0621343CB60BFF34F8F00BFD6
:1020D000FDE700BF00ED00E00400FA05002318460C
:1020E000054A1168C1F307218B4200D17047936004
:1020F00010610133F8E700BF90ED00E010B572B653
:10210000002484F31388FFF7E9FF0E4A23461146A3
:102110004FF0FF3403F120000133102B42F8204030
:10212000F8D100234FF0FF3003F160020133102B90
:1021300041F82200F8D162B6BFF34F8FBFF36F8F23
:1021400010BD00BF00E100E0084B9B6883420BD14B
:10215000EFF3058343B1064B5A6842F080525A6050
:102160005A6A22F400425A6203F056B91803002159
:1021700000ED00E01FB5094C094A2346012109483A
:1021800000F018F900230393074B0121E41A01A87A
:102190000193029400F02AF904B010BD000001215F
:1021A00000000021986300011001002110B50B68A8
:1021B0000C7A23F01F0204F01F031A43CB68640952
:1021C00023F01F03044943EA440343F001038860FA
:1021D000CA600B6110BD00BF90ED00E030B54B68E8
:1021E0000C6885B00A898D7A0094013B24F01F04A5
:1021F000234402F01F0242EA451223F01F0307287E
:1022000004468DF80820039309D902464521064863
:1022100003F050FD6FF01504204605B030BD69464F
:10222000FFF7C4FFF8E700BF0F6B00012DE9F04F87
:102230008946144606464FF00008514D85B0C84502
:1022400023DA7768002F41D01F2F17D9FB0615D14D
:10225000D6F800A01AF01F0F10D1504603F04AFD27
:10226000834607EB0A00013803F044FD834510D094
:102270006FF0150B5A464521424802E0424645217F
:10228000414803F017FD6FF01504204605B0BDE886
:10229000F08F1BF1160FEDD05C45EBDDC5F808B0F3
:1022A000E968C5F808B02F6921F01F01D6E90032AE
:1022B0001A44994247F01F0702F1FF3A1CD15745D3
:1022C00008D131465FFA8BF0FFF788FF08F101086B
:1022D0000C36B4E73146C5F808B0EB6822F01F02AF
:1022E00003F01F031A43EA60E0B2FFF777FF10F133
:1022F000160FC8D0441CE9E7013B5745E0B223F074
:102300001F03C5F808B006D12A69314602F01F0242
:1023100013432B61E9E7296901F01F010B432B618E
:102320003146FFF75BFF10F1160FACD0C5F808B0CF
:10233000EA689DF80830013F62F304038DF8083025
:102340002B699DF808205B0863F347128DF808207D
:10235000D6E900321344009323F01F033B44441C8E
:10236000A3EB0A0AE0B22AF01F030728039303D95C
:1023700002464521054884E76946FFF717FFB9E79C
:1023800090ED00E0626B00013A6B00010F6B000101
:102390000522034B5A60BFF34F8FBFF36F8F704717
:1023A00090ED00E0BFF35F8F0022014B5A60704751
:1023B00090ED00E010B50A4C2278FFF737FF20704F
:1023C00016300CD10749084840F2111203F064FCA2
:1023D000BDE8104040F21111024803F056BC10BD98
:1023E000030400218A6B0001F16400012DE9F74F1D
:1023F0002D4D8A4606464FF00008AB462B4FD04580
:1024000002DB03B0BDE8F08FD6F80490B9F1000FFD
:1024100044D031680846019103F06CFC01990446F0
:1024200009EB0100013803F065FC84424FF014020F
:102430001F4B13D06FF0150302FB08F84BF8083060
:1024400040F221121B491C4803F026FC40F22111E6
:10245000184803B0BDE8F04F03F017BC14F1160F95
:102460002C60EDD01978A142EADD02FB08B0BC6017
:10247000BC60FC6800F10801007B64F30400087193
:1024800038690C79400860F347140C71F96821F041
:102490001F016960396921F01F01296108F10108F4
:1024A00014350C36ABE700BF6402002190ED00E06C
:1024B000030400218A6B0001F164000170B51B4D1B
:1024C0002E68082E0DD94FF4A4721949194803F04B
:1024D000E3FB17484FF4A47103F0D7FB4FF0FF3034
:1024E00070BDFFF75FFF0020134C144A2263864241
:1024F00015D1134B1E70FFF74BFF2368C3F307235F
:10250000082B0AD00A490B484FF4D67203F0C4FBDB
:102510004FF4D671064803F0B8FB0020E0E7696885
:1025200001EB0011FFF742FE0130E0E7A463000178
:102530008A6B0001F164000190ED00E0AAFF440005
:1025400003040021014B1860704700BF18000021F0
:102550002DE9F0410E4C0746051BC5F347130C252A
:102560005D4305F148000E462044402103F0FEFB88
:10257000011E08DB074B2C44C4E91036064B5B599F
:10258000BDE8F041184738463346BDE8F0411847EA
:1025900088020021CF5D0001E463000138B5CCB2B0
:1025A000012C054608D908490848792203F074FB34
:1025B0007921054803F069FB0C212B6904FB0134E8
:1025C000A06C00F0070038BDD06B0001F164000181
:1025D000F8B5CCB2012C0546164607690AD9184948
:1025E000184840F24D1203F057FB40F24D111448C9
:1025F00003F04BFB4FF02003EFF3118283F31288BB
:10260000BFF36F8F0C2303FB0471896C11F0C001C1
:1026100001D08E4211D10121002003FB0473996483
:1026200082F31188BFF36F8F30B90C23696803FB05
:102630000414636898470020F8BD4FF0FF30EFE7BF
:10264000D06B0001F164000170B50D4606490446E7
:10265000411A491140220548FFF7BAFF2B460146AF
:102660002046BDE87040184788020021E46100015F
:1026700070B50022012104460520FFF7E7F90F4855
:1026800001F0A4F80E4B984215D101F0C1F826696B
:102690000C49304603F07BFA00280BDB0125B564BA
:1026A0002469084904F1200003F071FA002801DBD5
:1026B0000020656570BD6FF00400FBE7FD2600019A
:1026C0000000AD0BFC63000101460C2300224B43CC
:1026D000084870B5C4184833D4E910561844226429
:1026E00003F062FB2DB132462B46BDE87040024834
:1026F000184770BD88020021E4610001012808B577
:1027000006D0032808D0A0B90F4B9B6C5B0719D1EA
:10271000BDE80840FFF7D8BF0C4940F25E220C48E4
:1027200003F0BAFA40F25E21BDE80840074803F022
:10273000ACBA064940F26222054803F0ADFA40F215
:102740006221F1E708BD00BF88020021D06B0001C3
:10275000F164000108B54FF02003EFF3118183F31A
:102760001288BFF36F8F114A136843F0020013F011
:10277000010310600BD00E4AD2F80C34D2F80C24AE
:1027800013F0010303D00B4803F00EFB012381F388
:102790001188BFF36F8F23B1BDE808400020FFF719
:1027A00093BF0120BDE8084001F058B8E0020021C5
:1027B00000500041D0020021074BD3E8EF2F22F058
:1027C0000201C3E8E01F0028F7D1D30702D401209B
:1027D00001F0ACB8704700BFE00200211FB5002235
:1027E0000123CDE902236B46084ACDF800D0CDF88D
:1027F00004D003F0FEFA002805DB4FF480420023EA
:10280000684601F05FFF05B05DF804FBED5D000177
:102810002DE9F843012206464349D1E8EF3FC1E8DC
:10282000E02F0028F9D19BB9404941484B60CB606B
:102830008A60FEF73FFC00280ADA3E493E484FF422
:10284000087203F029FA4FF408713A4803F01DFAB0
:102850008EB3731E012B53D8012E06D1374BD3F8FC
:102860001C3403F00303022B25D003F068FC04465C
:1028700018B9334B1B78002B4FD14FF02003EFF3E7
:10288000118783F31288BFF36F8F01242B4DDFF87C
:10289000BC90A846D5F81834D5F81824D2030CD526
:1028A00003F00303022B01D0012E06D124B387F3DA
:1028B0001188BFF36F8FBDE8F883C4B13846FFF7C6
:1028C0006FF8D5F81835DBB2012BE3D11D4A11683A
:1028D0000029DFD000211160126802222021C5F8F2
:1028E0001825194AC2F88011C9F80030D2E7002132
:1028F000212002F05BFDE4E70223C8F80433DAE7A5
:102900000C490D4840F2322203F0C6F9BDE8F84305
:1029100040F23221074803F0B8B90222074B0746BC
:10292000C3F80823B2E700BFE402002178020021C7
:10293000A8020021D06B0001F164000100500041A9
:10294000040400210451004100E100E0085000416E
:1029500008B50848084B186003F0E3FB38B1074896
:10296000FFF7F0FD0548FEF7ADF9002008BD6FF058
:102970001200FBE72C620001E8020021812900011E
:102980000A2838B50446074D04D1286883680D210C
:102990005B68984728688368E1B25B68984720467F
:1029A00038BD00BFE802002170B516460C46056927
:1029B00041B91E491E48242203F06EF924211B4808
:1029C00003F063F9636843B918491948252203F0F5
:1029D00063F92521154803F058F96B685BB10022B3
:1029E0009C4213D123685AB9AA686B60944200D103
:1029F000AB600023236076B9002070BD0B46EFE783
:102A00001360AB689C4208BFAA60F2E719681A46D7
:102A10000029F3D13EB16B682360A8686C60002880
:102A2000EAD1AC60E9E76FF01500E6E72D6C000134
:102A3000F16400012DE9F843430903D0012B2FD0A5
:102A4000BDE8F883174F3B695C68002CF8D0256817
:102A50000126002D38BF002500F01F00DFF84C8054
:102A6000DFF84C908640A3681E4210D0636843B9DB
:102A700041464846452203F00FF94521404603F000
:102A800004F9D4E901322146384632409847002DF6
:102A9000D6D02B682C46002B38BF00231D46E2E71A
:102AA000014FD0E7FC610001146200012D6C0001B0
:102AB000F16400017FB5406801F01F04057BB2F5A9
:102AC000001F44EA45144FF0000504D1204601F0F0
:102AD00021FA002050E0B2F5800FCDE902554DD12A
:102AE000B3F1007F0CBF042305238DF80830836801
:102AF00023FA01F111F0010151D1B2F1A07F4ED1C1
:102B0000660946D04FF6FF73012E08BF194604F040
:102B10001F05E940CA070AD429492A4840F2292258
:102B200003F0BAF840F22921254803F0AEF866B167
:102B3000012E31D02249234840F22E2203F0ACF876
:102B400040F22E211E4803F0A0F81F4B803553F8A9
:102B50002530DB0723D40DF107052946204601F077
:102B60000FF91A4B984219D1284601F065F9184B14
:102B7000984213D06FF00B0004B070BDB3F1C06F7A
:102B800005D0B3F1007F0CBF02230123ADE703237F
:102B9000ABE74FF0FF31BAE70E4BD7E703950023C1
:102BA0002046194602AA00F0CDFF094B984204D1F5
:102BB0000121204601F046F98BE76FF00400DBE7C6
:102BC00009650001F164000100058C410400AD0BB2
:102BD0000000AD0B00088C4110B501F01DF9044652
:102BE00068B901F0F1F8084B98420AD1214607482C
:102BF00001F0C0F8224605210A20FEF727FF002039
:102C000010BD6FF00400FBE70000AD0B352A00019A
:102C10002DE9F043476801F01F053B7B0E46144643
:102C200085B045EA4315CAB902A9284601F0A8F8BB
:102C30000446284601F090F9494B984204D06FF0C1
:102C4000040005B0BDE8F083844205D19DF808007A
:102C500001F0ECF8A042F2D10020F2E74FF00009B9
:102C60000DF103013046CDE9029901F089F84B4698
:102C700080464946284602AA00F064FF384B984235
:102C800002D06FF01500DCE7804503D19DF803000A
:102C900001F0CCF8A3034FD540F2066340F20622C0
:102CA000234093423AD00CD8062B15D004D89BB1C0
:102CB000022BE6D104230FE0B3F5007FE1D101231D
:102CC0000AE040F2024293422AD0B3F5C06F29D005
:102CD000B3F5806FD5D102238DF8043084F48033AE
:102CE000C3F30043E0068DF805304CBF0323C4F363
:102CF000401321038DF8063016D501217B6801FAB7
:102D000006F69E600022284601A900F0C1FF144B80
:102D1000984214BF6FF01500002092E70723DBE70D
:102D20000523D9E70323D7E7620341BF01217B686D
:102D300001FA06F6DE60E5E7E3064FF000034CBF5C
:102D40000324C4F340141A46284601A98DF8044010
:102D500000F0F8FE024B98423FF47EAF91E700BFCF
:102D60000000AD0BF0B54B79012B28D0032B23D1FC
:102D700010248B79032B1FD1CE790EB1012E1BD1DC
:102D80000A79012A1DD0022A1FD0AAB915460B685C
:102D90004768B3F5164F3F686ED033D8B3F5165F6A
:102DA0006DD01CD8B3F5966F6BD010D8B3F5967F65
:102DB0006AD0B3F5167F6AD06FF085005BE000241F
:102DC000D7E74FF480750E22E1E70025FBE7B3F566
:102DD000166F5FD0B3F5965FEED1394B3EE0B3F599
:102DE000E14F5AD007D8B3F5615F58D0B3F5964F8D
:102DF000E2D1344B32E047F6122C6345DCD14FF47C
:102E000000032BE0B3F5613F4BD013D8B3F5963FE9
:102E10004AD009D84DF6C02C634547D0B3F5614F71
:102E2000CAD14FF46B0319E0B3F5E13FC4D14FF0C1
:102E3000EB7313E0B3F5612F3BD009D8DFF898C0EE
:102E4000634539D0B3F5E12FB6D14FF0E86305E023
:102E5000DFF888C06345AFD14FF08053006922434B
:102E60003543C7F824352A43031DC7F86C2503C929
:102E700083E803000020F0BD4FF41D03EEE7124B82
:102E8000ECE74FF49E23E9E74FF4A033E6E74FF475
:102E90001C33E3E74FF41D23E0E70C4BDEE70C4B5C
:102EA000DCE74FF06C73D9E70A4BD7E74FF46503C3
:102EB000D4E74FF07063D1E74FF08063CEE700BFF7
:102EC00000B0130000A04E000050270000C07500A5
:102ED00000F03A0000903A0190D0030040420F0009
:102EE0002DE9F7430746002201211320FEF7AEFD2E
:102EF0001320FEF78DFD0021D7F804803E69D8F835
:102F00000040D8F80C90C4F800154846376001AA74
:102F100003F014F8051E1FDB019BD9F80020197976
:102F2000186803F048F8051E16DB3846311DFFF718
:102F300019FF054680B9D8F8043099072BD506F15A
:102F4000120000F043FD294B984209D04521284842
:102F500002F0B0FE6FF00405284603B0BDE8F08330
:102F6000B77C14F10C0F47F00047C4F8A0710AD1E8
:102F70002049214840F24E2202F08EFE40F24E21BE
:102F80001C4802F082FE0123C4F88C70B27C93408E
:102F90001A4AC2F804350823C4F8003598F80830F6
:102FA0005BB9C4F81031D4F8103106F11103C4F83C
:102FB00034350123C4F838352360D8F8043010368E
:102FC0009A075CBF4FF48072C4F80423DB0644BF49
:102FD0004FF48003C4F804330023C4F84465C4F8F4
:102FE00048350123A360E360B6E700BF0000AD0BE6
:102FF000616C0001856C0001F164000100F000418A
:10300000F8B506460F46046903F099F810B92D4B40
:103010001B7883B94FF02003EFF3118583F31288F7
:10302000BFF36F8F706802F079FF28BB85F31188BA
:10303000BFF36F8FEEE76425706802F06FFF70B921
:10304000012002F0FCFF013DF6D10021212002F019
:10305000ADF9F0E785F31188BFF36F8FF5E74FF017
:103060002003EFF3118583F31288BFF36F8F70682D
:1030700002F054FF0028EDD0012204F8107F71689F
:103080000B68C3F84445C3F848250022C3F8202143
:10309000D3F82001C3F85821D3F858214A68D20642
:1030A00008D5082172681268C2F800154FF4800232
:1030B000C3F8042301229A6085F31188BFF36F8F50
:1030C000F8BD00BF04040021194970B5044622F080
:1030D0007F460868C1E90023A6F50013101AB3F56E
:1030E000400F4FF000050AD20125124B19680A065D
:1030F0000B0A9219104943F10003C1E9002302F0C1
:10310000B9FBA30003F1824303F5B033D3F84025A4
:10311000B2420BD11DB94FF40002C3F840254FF461
:103120008030064B00FA04F4C3F8444370BD00BF7E
:10313000280100210C030021100100210060014141
:103140000123834010B5DC430C4AD2E8EF1F01EAAB
:10315000040CC2E8EECFBEF1000FF6D14FF480327E
:1031600002FA00F0064AC2F80803BFF35F8FBFF30C
:103170006F8F0B4214BF0120002010BD08030021F7
:103180000060014101230E4A8340D2E8EF1F19433A
:10319000C2E8EC1FBCF1000FF7D14FF48033094AAD
:1031A0008340C2F80433084BD3E8AF3F23FA00F062
:1031B000C30742BF4FF48002044BC3F8002170479D
:1031C00008030021006001410403002100E100E048
:1031D0000D4B1B68190A1806BFF35F8F0B4BD3F812
:1031E0000435C01841F10001B3F5801F0AD2084B25
:1031F000D3E90023994208BF904203D210F18070B6
:1032000041F10001704700BF0C0300210060014143
:10321000100100212DE9F74F16461F460546FFF71E
:103220008FFF0090FFF7D4FFB94208BFB0427BD2B6
:1032300000234FF08072B6EB000867EB01094B45A5
:1032400008BF42457DD3404B03EB0513D3E902236E
:103250009F4208BF964251D04FF4803B26F07F42F8
:1032600014464FEA850905F1500809F182494FEAF1
:10327000880809F5B0391FFA88F808F18248D9F8AA
:103280004005324B08F5B0380BFA05FBD3F804A51E
:10329000A0EB0A0020F07F402AF07F410128C9F806
:1032A000401505D10192132002F075FF274B019ABA
:1032B0000AF1020CA4EB0C0020F07F400021B0F5D5
:1032C000000F88BF6446C8F80010D8F8000024F04A
:1032D0007F40C3F844B3C9F84005D3F804058245DC
:1032E00006D0201A023820F07F40B0F5000F19D820
:1032F000A41A24F07F44321947F10003124C29012B
:1033000004EB0510C0E902230C9A0D9B62500024C7
:103310004360009B13B12846FFF734FF204603B0FB
:10332000BDE8F08F2046B1E70123094AAB40D2E85F
:10333000EF1F1943C2E8E01F0028F8D132463B4690
:10334000DCE76FF01504E4E718010021006001419B
:103350000403002173B500244FF0FF304FF0FF311C
:10336000164D174BC5F80845C3E902014FF48033E9
:1033700002264FF48002C5F80433124B0121C5F830
:1033800004631620C3F880212246FEF75FFB162057
:10339000FEF73EFB01230C4A204613600B4A2B60CC
:1033A00013600B4B0B4A009301940023FFF732FF8D
:1033B0003046FFF72DFA204602B070BD0060014193
:1033C0001801002100E100E008600141080300212C
:1033D000C9300001FFFF7F00334B2DE97343D3F861
:1033E00004339A0709D5314B1A6832B100221A60AA
:1033F0002F4A1B681368013313604FF02003EFF36B
:10340000118283F31288BFF36F8F274BD3F80433F5
:10341000DB030ED5274BD3E8EF1F21F00100C3E8F3
:10342000E40F002CF7D1244B002936D1196800296C
:1034300033D1002382F31188BFF36F8F53B3FFF7AB
:10344000C7FE04464FF02003EFF3118083F3128888
:10345000BFF36F8F194B0022D3E90289494508BF9A
:1034600044451FD3D3E900164FF0FF344FF0FF352A
:103470001A604FF48032C3E902450B4BC3F848236E
:1034800080F31188BFF36F8F21B142464B46002075
:103490000096884702B0BDE87083002119601B6860
:1034A0000123C7E71146EBE70060014104610141D8
:1034B0000C03002104030021406101411801002197
:1034C000431C13B520D0012820DDB0F5000F1FDA12
:1034D000441EFFF77DFE0F4B0F49D3E90023801AEE
:1034E000B0F5000F28BF0024013004440B480091C0
:1034F000844228BF044600201219019043F10003C2
:10350000FFF788FE02B010BD0448E1E70024E0E7C1
:10351000024CDEE728010021C9300001FFFF7F00D7
:1035200008B5FFF755FE024B1B68C01A08BD00BF67
:1035300028010021026810B55309044629D0012B47
:103540004FF6FF7318BF002302F01F02D340DB07C2
:103550000AD41249124840F2292202F09DFB40F29F
:1035600029210E4802F091FB236803F01F025B093A
:1035700022600CD0012B0FD00849094840F22E22BE
:1035800002F08AFB40F22E21044802F07EFB05483F
:1035900010BD4FF0FF33D7E70348F9E70965000195
:1035A000F164000100058C4100088C41034845216D
:1035B00008B502F07FFB0020FEF77EFDD46C000111
:1035C0000022D30003F1FF7303F58033D3F8001317
:1035D000013107D0D3F800130132D3F80433202A85
:1035E0000B60EED1134B1B68072B1AD1124B1B68D3
:1035F000023B032B0CD8114AD35C4BB1104BD3F8D0
:103600000024D10742BF0022C3F81421C3F81821B7
:103610000B4BD3F80024D20744BF6FF00102C3F86C
:103620000024084B1A68084BC3F84425074B084A86
:103630001A6070473001FF013401FF01F66C000190
:10364000005000410080FF01006000413000002177
:103650000090D00370B501250268B2FA82F3C3F17D
:103660001F035E1CDCB210D005FA03F322EA030349
:10367000D0E8EF6F964204D1C0E8EC3FBCF1000FF8
:10368000F6D1E9D102480C7070BD0248FCE700BFDA
:103690000000AD0B0200AD0B036810B5CB40DB079B
:1036A00011D4012303FA01F1036841EA0302D0E8CF
:1036B000EF4F9C4204D1C0E8EC2FBCF1000FF6D1D3
:1036C000F2D1024810BD0248FCE700BF0000AD0B7C
:1036D0000400AD0B08B570B1012818D04FF44F723B
:1036E0001049114802F0D8FA0E484FF44F7102F019
:1036F000CCFA00200AE00D4A21B1D2F8183403F0C8
:1037000003030B70D2F81804C0F3004008BD074A49
:1037100021B1D2F80C3403F001030B70D2F80C0481
:10372000F2E700BFFA6C0001F164000100500041B3
:1037300073B5044660B1012832D01F491F48D82212
:1037400002F0AAFAD8211C4802F09FFA02B070BD1C
:1037500002221B4BC3F808230122C3F8040103F51E
:1037600082731B68174B1A6001239C4218BF002606
:1037700042F210758DF8073008BF0DF1070631468B
:103780002046FFF7A7FF0028E0D01EB19DF80730C4
:10379000012BDBD1012002F052FC013DEFD1D5E736
:1037A0000022074BC3F80803C3F8002103F5807318
:1037B0001B68054B1860D7E72E6D0001F16400010E
:1037C000005000410C5000410450004110B5044627
:1037D00050B90A490A4840F2151202F05DFA40F267
:1037E0001511064802F051FA064B1A7922B9012246
:1037F00005481C601A7110BD0448FCE72E6D0001DD
:10380000F1640001100300210000AD0B0C00AD0BB2
:1038100008B50E4B1B7953B90D490E484FF49772FA
:1038200002F03AFA4FF49771094802F02EFA052097
:10383000FEF7FEF810B90520FEF7EAF80122064B64
:10384000C3F81825C3F8142508BD00BF10030021D4
:103850002E6D0001F1640001005000412D4B13B5A5
:103860001B79044653B92C492C484FF4B47202F02A
:1038700013FA4FF4B471284802F007FA6CB1012C26
:103880003ED04FF4D3722449244802F005FA4FF495
:10389000D371214802F0F9F91EE020460DF107012D
:1038A000FFF718FFD0B19DF80730013B012B05D978
:1038B0000020FFF73DFF01238DF8073000219DF820
:1038C0000720174BC3F81825164A11601268022208
:1038D000C3F8042301229A6002B010BD104AD2F846
:1038E0001434DB07E7D5D2F81C3403F003038DF85A
:1038F0000730013B012BDBD80223C2F80433EBE78E
:103900000022094B1A601B68054BC3F804431C6076
:10391000E2E700BF100300212E6D0001F1640001F9
:103920000050004104510041005100410A4B10B5C4
:103930001B79044653B90949094840F2AD1202F017
:10394000ABF940F2AD11054802F09FF92046BDE801
:103950001040FFF7EDBE00BF100300212E6D0001E7
:10396000F1640001154B07B51A684AB10020012225
:1039700018601B68124BC3F80823124B1B6898474A
:10398000114B1A687AB100200DF1070118601B680D
:10399000FFF7A0FE9DF8071002220129084B05D170
:1039A000C3F81825996003B05DF804FBC3F8082339
:1039B000044B01201B689847F5E700BF0051004108
:1039C000005000411003002104510041014601480C
:1039D000FFF740BE34000021054B083033F81000DB
:1039E00000F02200A0F1220358425841704700BF66
:1039F0003800002170B50D4C00F1080334F8133085
:103A00000546DA050E4607D5C3F3432304EBC3028C
:103A1000526854F833309847A3682BB13146284692
:103A2000E268BDE87040184770BD00BF3800002153
:103A3000194B083033F8102010B5D1051DD5C2F34D
:103A4000432122F4F85223F81020002003F110043F
:103A500034F8022B12F4807F03D0C2F34322914248
:103A60000BD001303028F3D100220C4843F831202C
:103A7000FFF712FE0A4B984200D110BD09490A48CF
:103A80004FF4997202F008F9BDE810404FF49971B3
:103A9000044802F0FAB800BF38000021AC00002151
:103AA0000000AD0B6B6D0001F164000138B50C4CEA
:103AB00000F1080534F815309A060AD500225B0B90
:103AC0009B0003F1824303F52043C3F81025C3F89C
:103AD0001025FFF7ADFF002324F8153038BD00BFD7
:103AE0003800002110B50446006802F0AAFA50B967
:103AF0001049114840F2292202F0CEF840F2292163
:103B00000C4802F0C2F8236803F01F025B09226030
:103B10000CD0012B0CD00749074840F22E2202F0AE
:103B2000BBF840F22E21034802F0AFF8034810BD65
:103B30000348FCE709650001F164000100058C41C0
:103B400000088C41F0B5054616461C4685B0F1B11B
:103B5000FFF742FF10B14A4805B0F0BD0B46CDE972
:103B600000008DF80E008DF80F000DF10F020DF121
:103B70000E01284602F07AFA424A05F1080132F8AD
:103B8000113023F0020343F0010322F8113096B103
:103B90003C4B3078726805F1080633F816108F0731
:103BA0000CD5002AD7D133F8162022F01C0242EAA5
:103BB000800023F81600CCBB3348CDE721F020016C
:103BC000C904C90C23F81610002AECD00328C2D867
:103BD00092F800C04FEA8C0202F1824202F52042C4
:103BE00020B9C2F81005C2F81005DCE7D2F810754C
:103BF00041EA4C3127F00307C2F81075D2F810756E
:103C000041F0200127F44F3727F44077C2F81075B0
:103C1000D2F810E52F0207F47C574EEA004E47EA2F
:103C20000E07C2F8107523F81610BCE72846D4E931
:103C30000067FFF7FDFE002EBED0124C23689E42A7
:103C400004D163689F4201D100220AE00F480DF1C0
:103C50000F01FFF7FFFC0C4B98427FF47DAF9DF8FE
:103C60000F2004EBC20308355F6034F8153044F8C8
:103C7000326043EA422343F4807324F815309BE713
:103C80000400AD0B380000210000AD0BAC0000219A
:103C9000F0B50446164685B009B3334D00F1080768
:103CA00035F81730980701D49A065AD413F01C0F30
:103CB00002D04B78012B54D001238DF80F30002314
:103CC0004A1CCDE9001320468B1C0DF10F0102F0B8
:103CD000CDF935F8173043F0030325F8173016B93E
:103CE000224805B0F0BD204A04F1080732F8170059
:103CF000830736D5002396F800C020F020004FEA55
:103D00008C0101F18241C00401F52041C00CC1F8D1
:103D1000103522F81700C1F810357578002DDFD066
:103D2000D1F81035B67823F4991323F4F853C1F879
:103D30001035D1F810E5230203F47C532D0443EA37
:103D40000E0305F4403536052B4306F4801640EA91
:103D50004C30334340F02000C1F8103522F81700F2
:103D6000BEE70348BDE700BF380000210000AD0BEF
:103D70000400AD0B014BC3E902017047380000217C
:103D800038B504460D4651B90A490B4840F2352270
:103D900001F082FF40F23521064801F076FF074B23
:103DA000083433F814309A0643BF5B0B2B70044879
:103DB000044838BD6B6D0001F1640001380000213A
:103DC0000000AD0B0400AD0B38B50E4C94F87850E4
:103DD000B5B96022294604F1100001F0BBFF0A20AA
:103DE000FDF716FE4FF00042074B08481D601B68A8
:103DF000074BC3F80423012384F87830636738BD88
:103E00000448FCE7380000217CA100410000AD0B14
:103E100000A000410500AD0B034B93F8780000387B
:103E200018BF0120704700BF38000021014601483B
:103E3000FFF732BCA800002101460148FFF70ABC89
:103E4000A8000021F7B52F4D00F1080735F817300D
:103E5000044613F01C0F0E460AD12B492B4840F2A2
:103E6000DF3201F019FF40F2DF31274801F00DFF8A
:103E700035F8170083061FD510F002031CD1410B43
:103E8000084602F0EFF800F1824000F520400360A0
:103E900003688B0003F1824303F52043D3F8102518
:103EA00042F00102C3F8102526B10123184A8B40C5
:103EB000C2F8043303B0F0BD56B91349134840F2B9
:103EC000EE3201F0E9FE40F2EE310F4801F0DDFE86
:103ED00035F81730C3F38203042B0FD0052B0FD016
:103EE00001A80194FFF7FEFD019B0169D94001F093
:103EF00001010231204602F004F9DBE70321F9E772
:103F00000221F7E7380000216B6D0001F164000128
:103F100000A000410E4B00F1080233F81230990660
:103F200013D59A0711D401225B0B9A4009499B00D3
:103F300003F18243C1F8082303F52043D3F8102589
:103F400022F00302C3F810257047002102F0D9B80F
:103F50003800002100A00041104B00F1080213F8C6
:103F6000123013B5DB07044616D5FFF7D3FF204602
:103F7000FFF79CFD01A80194FFF7B4FD019B00EB46
:103F80008300D0F8003203F0E04343F00203C0F8AE
:103F90000032034802B010BD0248FBE738000021A0
:103FA0000000AD0B0400AD0B2DE9F04F0025012200
:103FB0002C465F4B5F48604989B01E6836B1D0F827
:103FC000046316421EBF1C601E68154304338B42F7
:103FD0004FEA4202F1D1594F3B682BB3584E336A36
:103FE00006933362574B1A6A07921A62CDE900634F
:103FF0000DF118094FF00008CB46D9F80030CBB9C5
:1040000008F12008B8F1400F09F10409F5D13B602F
:104010003B68009B01991A6A06921A62019B1B6A0F
:1040200007930B621343E3D10124002D68D109B03B
:10403000BDE8F08F93FAA3F3B3FA83F308EB03061A
:10404000414B06F1080233F81220F408C2F3820350
:1040500002939A46012306F0070003FA00FC1BF8BE
:104060000400910820EA0C000BF8040005A8039155
:104070000596FFF737FD059C0399803450F82440DE
:104080004B07C4F3014422D551463046FFF7B2FC3A
:1040900005A80596FFF726FD059AE4B2803250F890
:1040A0002220C2F30142944207D10021304602F09F
:1040B00028F82146304602F024F805A80596FFF7B7
:1040C00011FD0122059B02FA03F3036295E7022C1E
:1040D0000CBF03210221304602F013F8029B032B90
:1040E00004D0022C07D1BAF1010FE6D15146304677
:1040F000FFF780FCE1E7032CDFD1BAF1020FF4E710
:1041000095FAA5F3B3FA83F304FA03F29B0003F1E3
:10411000824303F52043D3F81005D3F81015C0F3FC
:104120000520C1F3014125EA0205FFF763FC7CE7A6
:1041300000A1004100A0004120A100417CA100415C
:1041400000058C4100088C41380000210E4B70B5F1
:1041500053F82040013053F82060A64200D870BDCB
:10416000D4E900352846984765B1EB6830B100289E
:10417000B8BF4042FF28A8BFFF2018705A7842F00D
:1041800001025A700834E8E79464000170B50546EE
:1041900010B90024204670BD0378002BF9D00F4AD7
:1041A0000F4C1646944208D10D4CB442F1D0204633
:1041B00001F0B7FF50B91834F7E7204601F0B1FF1E
:1041C00010B12368AB42E5D01834EBE728462168EC
:1041D00001F0A9FD0028EED1DCE700BF4462000138
:1041E000E4610001F7B504460E464FF02003EFF3FB
:1041F000118783F31288BFF36F8F01F007F9002254
:10420000042C98BF1D4B054694BF53F824301C4B1B
:104210000092452122461B4801F04CFD3EB1F36956
:10422000C3F308031BB14521174801F043FD35B125
:10423000284601F08AFF034608B1027802B9134B01
:104240002A464521124801F035FD31462046FFF748
:10425000ADF9042C08D10F490F488F2201F01CFD45
:104260008F210C4801F011FD87F31188BFF36F8F88
:10427000284603B0BDE8F040FDF766BFAC6400011E
:10428000A96D0001BF6D0001EC6D0001B76D00016B
:10429000126E00012F6E0001F1640001012208B5C9
:1042A000094B02201A70FFF751FF01F0D5FB0320E4
:1042B000FFF74CFF00F00AF9FCF790F9034A137B73
:1042C00023F00103137308BD04040021B001002191
:1042D00008B50348034A0021121A01F02CFF08BD5B
:1042E00010010021080400210023012270B586B0CE
:1042F000CDE904230F221825CDE9023201930F4B9B
:104300000F4E05FB00350F4906EBC016044601EBC6
:1043100000214FF4807230460B4B009500F082F87C
:10432000737B0A482C75013423F0040300EBC4248A
:104330007373EE606C6006B070BD00BF180300219F
:10434000300100210808002115460001080900215C
:1043500080B52D4BA6B003F5006282F3088883F385
:104360000A880024E023294D294E85F82230EC7775
:104370002C766C76AC7685F820406B6A254F43F43A
:10438000E0236B6285F82340FDF744FEFDF7F4FA65
:104390004FF0FF33AB62EB62FEF790F8FDF7EAFEF9
:1043A00040F20113ADF8243006ABB360CDE91F44F1
:1043B000229401F0B5FE2046FFF7C8FE0120164DFD
:1043C000FFF7C4FE00F0D2FE144BB5610593012344
:1043D00013494FF48062CDE9034328463B46CDE9BB
:1043E0000144009400F01EF806466A7B284622F03D
:1043F00004026A7300F03AFC2046FFF775FF3A4664
:1044000031462846FDF7D4FB0809002100ED00E005
:10441000180300219D420001B00100218D650001BB
:10442000080400212DE9F04385B0DDF83C900446F6
:10443000B9F10F0F0F46154698462ED11F4B9845E0
:104440002FD104F15803C4E91633109B00262373BF
:10445000042363730E9BE81D02930D9B20F007005D
:1044600001930C9B3D18C4E9197000932A464346FA
:1044700039462046C4E90666A66084F80E90E673C5
:10448000E666FDF779FB0E4B66659B6803B11B6F13
:104490002846236705B0BDE8F08309F110031E2B01
:1044A000CFD940F2FF120749074801F0F5FB40F26F
:1044B000FF11044801F0E9FBC3E700BF1546000106
:1044C000180300219E6E0001F16400012DE9F04700
:1044D000394F3A4D3E46DFF8EC8086B0BD420AD9EE
:1044E0004146374840F2D52201F0D6FB40F2D521B3
:1044F000404601F0CAFBB54205F130041DD300F07F
:10450000EBF940F2E7384FF000092C4C2D4DDFF865
:10451000B0A0B4420AD9294650464FF43D7201F08A
:10452000BBFB4FF43D71284601F0AFFBB44221D3F1
:1045300006B0BDE8F04700F07FBD54F8043C059399
:1045400054F8103C049354F8143C039354F8183C6A
:10455000029354F81C3C019354F8203C009354E916
:104560000A2354E90C01FFF75DFF54F8303C5D6508
:104570002546B3E7636A5A1C0FD04FF40042404609
:10458000494623EAE373C2FB0301494508BF40459E
:10459000276804D1384600F09FFB3034B9E74FF468
:1045A0007A720023FBF788FD02460B4607F11800DC
:1045B000054901F02BF8F0E70C0100210C01002166
:1045C000F16400019E6E00015D4D0001006838B18C
:1045D000044B00F003001B7DC01A18BF0120704778
:1045E0000120704718030021054903468A68087DA9
:1045F000196802430020914204BF186001207047EF
:1046000018030021024A117D93680B430360704731
:104610001803002108B50D4B9B6893F90E30002B51
:1046200008DA0B490B48272201F036FB27210848FE
:1046300001F02BFB4FF02002EFF3118382F312887D
:10464000BFF36F8FFDF79EF9F4E700BF1803002159
:10465000C16E0001F164000138B504464FF020033B
:10466000EFF3118583F31288BFF36F8F1248FFF7C2
:10467000ADFF40B9114912488E2201F00DFB8E2189
:104680000E4801F002FB0C48FFF7BCFF204600F08B
:104690002FFD48B10022826700F0E8FA2946BDE804
:1046A0003840054800F0E2B8D4E902329A4218BF17
:1046B0000133A360F2E700BF3C030021F065000175
:1046C000F1640001F7B5044616461F46EFF3058373
:1046D0005BB156EA070308D02B492C48792201F038
:1046E000DBFA7921284801F0D0FA4FF02003EFF3EC
:1046F000118583F31288BFF36F8F2548FFF766FF9C
:1047000040B9244921488E2201F0C6FA8E21214861
:1047100001F0BBFA1E48FFF775FFA368ABB1013B80
:104720001B48A360FFF760FF40B91A491748B92238
:1047300001F0B2FAB921174801F0A7FA85F3118800
:10474000BFF36F8F002003B0F0BD56EA070313D10B
:104750000F48FFF749FF40B90E490C48B92201F054
:104760009BFAB9210B4801F090FA85F31188BFF349
:104770006F8F6FF00F00E6E722462946CDE900670C
:10478000034800F0DBFBDEE7E26E0001F1640001AC
:104790003C030021F065000138B5074D2C6854B189
:1047A000FEF7BEFE054B04441C6128680021BDE8ED
:1047B000384001F021B838BD4C0300211803002116
:1047C000F8B505460E464FF02003EFF3118783F34B
:1047D0001288BFF36F8F1F48FFF7F8FE40B91E49DC
:1047E0001E488E2201F058FA8E211B4801F04DFA26
:1047F0001848FFF707FF00234FF4004C40F2E73062
:104800000021174C4FF47A722361ECFB0501002361
:10481000FBF752FC002D134B17DC1860124BA068FD
:104820001E60FFF7B9FF0B48FFF7DEFE40B90A49EB
:104830000A48B92201F030FAB921074801F025FAF7
:1048400087F31188BFF36F8FF8BD0228B8BF02202D
:10485000E3E700BF44030021F0650001F1640001BB
:10486000180300214C0300214803002110B5034622
:104870000C46C1B9EFF30582AAB9144A916992684E
:10488000914210D0FFF7B0FE40B911491148D02233
:1048900001F002FAD0210E4801F0F7F9BDE810400E
:1048A0000020FDF713B91846FFF79EFE40B90849EE
:1048B0000848B92201F0F0F9B921054801F0E5F9FD
:1048C00084F31188BFF36F8F10BD00BF1803002160
:1048D000F0650001F164000138B54FF02003EFF3FB
:1048E000118583F31288BFF36F8F2048FFF76EFEA8
:1048F00040B91F491F488E2201F0CEF98E211C4875
:1049000001F0C3F91948FFF77DFEEFF3058343B1CA
:1049100019491848FD2201F0BFF9FD21164801F0A0
:10492000B4F9164CA268D27B012A08D11249114869
:10493000FE2201F0B1F9FE210F4801F0A6F9A268AC
:10494000D37B013BD3730948FFF74EFE40B90849BA
:104950000848B92201F0A0F9B921054801F095F9FC
:1049600085F31188BFF36F8F38BD00BF440300216A
:10497000F0650001F1640001026F000118030021DD
:104980000B4B10B599420C460AD10A490A4840F22D
:104990003D4201F081F940F23D41064801F075F9D0
:1049A000D4E9003213605A600023C4E9003310BD1B
:1049B000300100212D6F0001F1640001836810B502
:1049C000044653B90A490B4840F2B92201F064F990
:1049D00040F2B921064801F058F92146A068FFF7D6
:1049E000CFFF637B23F0020363730023A36010BD3A
:1049F0002D6F0001F164000138B50246124801F044
:104A0000BCFB124D044600B9EC68AAB9AB6843B9C7
:104A10000F491048892201F03FF989210C4801F023
:104A200034F9AB685A7BD20606D1A26922B9DA8979
:104A30007F2A01D9AB6138BDAB68A34202D02046C2
:104A4000FFF7AAFEAC61F6E734030021180300214A
:104A50002D6F0001F164000170B590F90D2004463E
:104A6000002A437B06DA03F07F03014643731F48A5
:104A7000FFF786FF637B63F07F0363731C4B9C42ED
:104A800008D11C491C48BA2201F006F9BA2119487C
:104A900001F0FBF8194A114651F81C3F156A8B4288
:104AA00008BF0023002B38BF0023CBB194F90E6060
:104AB00093F90E0086420FD0801B00280CDD596848
:104AC000C4E900310C605C609068031B5842584197
:104AD000BDE87040FFF790BFAB4201D01B68E4E730
:104AE000C4E900152C601462EEE700BF3403002116
:104AF000300100212D6F0001F16400011803002135
:104B000070B505464FF02003EFF3118683F312884A
:104B1000BFF36F8F2648FFF759FD40B92549264856
:104B20008E2201F0B9F88E21224801F0AEF820481B
:104B3000FFF768FD214B224A9C6811688C42194698
